:020000040800F2
:1040000000500020318C0008658C0008678C000887
:10401000698C00086B8C00086D8C000800000000A3
:104020000000000000000000000000007D420008C9
:10403000718C0008000000000D4300085143000887
:10404000798C00087B8C00087D8C00087F8C000830
:10405000818C0008838C0008858C0008878C000800
:10406000898C00088B8C00088D8C00088F8C0008D0
:10407000918C0008938C0008958C0008978C0008A0
:10408000998C00089B8C00089D8C00089F8C000870
:104090001D840008A38C0008A58C0008A78C0008CC
:1040A000A98C0008AB8C0008AD8C0008AF8C000810
:1040B000B18C0008B38C0008B58C0008B78C0008E0
:1040C000B98C0008BB8C0008BD8C0008BF8C0008B0
:1040D000C18C0008C38C0008C58C0008C78C000880
:1040E000C98C0008CB8C0008CD8C000810B5054C9D
:1040F000237833B9044B13B10448AFF30080012394
:10410000237010BD8C00002000000000808F00088C
:1041100008B5064B1BB106480649AFF300800648B8
:10412000036813B1054B03B1984708BD00000000B8
:10413000808F0008900000208C000020000000000C
:10414000154B002B08BF134B9D46A3F5803A002169
:104150008B460F461348144A121A04F0A5FE0F4B63
:10416000002B00D098470E4B002B00D09847002022
:10417000002104460D4600200C490022002304F0D3
:1041800035FE04F06BFE2046294604F05BF904F08E
:1041900037FE00BF000008000050002000000000B3
:1041A000000000008C0000207C4A00202D8E0008BA
:1041B00000F1080343604FF0FF32C3600361002346
:1041C00082600360704700BF00230361704700BF37
:1041D00043684B609A688A609A6851609960086188
:1041E000036801330360704730B40D686B1C18BF5F
:1041F00000F1080201D10EE01A4653681C68A5427E
:10420000FAD24B6099608A6051600861036801339B
:10421000036030BC704702695368F2E74268816806
:10422000036991608268416851605A68824204BFA4
:1042300082685A600022026118680138186070476D
:1042400006480068006880F3088862B661B6BFF36C
:104250004F8FBFF36F8F00DF00BF000008ED00E05D
:104260004FF0807300E90A0044F2E923C0F600032E
:1042700040F80C3C40F8202C40387047074B196838
:104280000868B0E8F00F80F30988BFF36F8F4FF034
:10429000000080F311884EF00D0E7047704500202D
:1042A0004EF60453CEF200034FF080521A60BFF373
:1042B0004F8FBFF36F8F7047EFF311804FF0BF0147
:1042C00081F311887047002008B5FFF7F5FF40F231
:1042D0000003C2F200031A6801321A60BFF34F8F65
:1042E000BFF36F8F08BD00BF08B5FFF7E5FFFEE71E
:1042F00080F31188704700BF034B186801381860BD
:1043000000B17047FFF7F4BF00000020EFF3098011
:10431000BFF36F8F0D4B1A6820E9F00F10602DE985
:1043200008404FF0BF0080F3118800F0E5FB4FF02C
:10433000000080F31188BDE8084019680868B0E8FB
:10434000F00F80F30988BFF36F8F7047704500202E
:1043500008B5FFF7B1FF00F003FA30B14EF6045391
:10436000CEF200034FF080521A600020BDE80840F2
:10437000FFF7BEBF4EF2140241F63F11CEF200022B
:104380004EF21003C0F201011160CEF200030722C9
:104390001A60704708B54EF62053CEF200031A6833
:1043A00042F47F021A601A6842F07F421A60FFF7F7
:1043B000E1FF044B00221A60FFF742FFFFF77CFF8A
:1043C000FEE700BF00000020F8B5044600F0B4F995
:1043D000274A136873B92749274821F0070144F297
:1043E000F835264E81E8210086E80A0080E828009A
:1043F000012313602746002C33D004F108014B073A
:104400001CBF21F0070108314A1E44F2F6339A42DC
:104410002BD81A4C236801E01C4613465A68914277
:1044200002D91A68002AF7D1134A93421DD01A689C
:10443000276822605A680837501A10280DD95D186D
:10444000686059606E680D4C00E01446226851683F
:104450008E42FAD82A6025605A68094B19688A1A70
:104460001A6000F025FA3846F8BD0027F9E700BFCA
:10447000B8440020C0000020A8000020B0000020A8
:104480000400002038B50546C8B100F055F9A5F183
:10449000080055F8044C0A4A00E01A4613685968A7
:1044A0008C42FAD8074945F8083C10600B6855F86B
:1044B000042C9B180B60BDE8384000F0F9B938BDFA
:1044C000B000002004000020074B1A68126822B9CF
:1044D000064B4FF0FF321A6070471B68DB68DB68E1
:1044E0005A68024B1A607047D04400200800002030
:1044F00010B50E4B0E4A1968126804469042486087
:104500000BD30C4A106819680431FFF76DFE0A4B93
:104510001A68944238BF1C6010BD084A10681968B8
:104520000431BDE81040FFF75FBE00BF70450020BA
:104530008C450020D0440020080000209045002039
:104540002DE9F84F81464C200E4693469A46DDF8F9
:1045500028800B9F0C9CFFF737FF0546002800F0D2
:104560008480002C77D0046320460BF1FF3B00EBE6
:104570008B0B2BF0070B0024325D2B1983F83420B2
:10458000335D01340BB1102CF6D10023B8F1040FC8
:1045900034BF444604242E1D85F84330AB643046B6
:1045A000EC626C64FFF710FEC4F1050405F118001D
:1045B000FFF70AFE2D61AC616D62584649465246CE
:1045C000FFF74EFE286007B13D60FFF77DFE3A4BD6
:1045D0003A4C1A6801321A602268002A33D0384FE8
:1045E0003B681BB3DFF8FCA0EB6A4FF0010909FA46
:1045F00003FB344A344D116803EB83002B680AEB4C
:10460000800003EB090E4BEA010331461360C5F845
:1046100000E0FFF7DDFDFFF76FFE3B681BB123688D
:10462000DB6A98450AD84846BDE8F88F2368DFF86A
:10463000B4A0DB6A984528BF2560D5E7FFF730FEB8
:104640004846BDE8F88F25601B68DFF898A0012B6D
:104650000FD01B4FC8E74FEA8B00FFF7B5FE28636A
:10466000002882D12846FFF70DFF4FF0FF30BDE84C
:10467000F88F174607EB87000AEB80000137FFF73A
:1046800097FD052FF6D1114FDFF85C903846FFF704
:104690008FFD4846FFF78CFD0D48FFF789FD0D485B
:1046A000FFF786FD0C48FFF783FD0C4B1F600C4B9A
:1046B000034FC3F8009097E7AC45002070450020F9
:1046C000D4440020B04500209445002098450020A7
:1046D00074450020DC440020BC440020D04400206D
:1046E0009045002008450020F044002030B500240B
:1046F00085B0802200940194029403940A480B49E7
:104700002346FFF71DFF0128054601D005B030BD47
:10471000FFF7D2FD064B1D60064B1C6005B0BDE8DF
:104720003040FFF737BE00BF99490008D48E00081B
:10473000D44400208C45002044F26C53C2F20003A4
:104740001A6801321A60704710B5FFF7BDFD44F2D8
:104750008C53C2F200031C68FFF7CEFD204610BD4B
:104760002DE9F04F484B83B01B68002B70D1474BAD
:104770001A6801321A601B680193002B70D040F256
:104780000802C2F200021368019A9A4214D3404F01
:10479000DFF81491DFF814813E4E00244FF0010B36
:1047A0003B681B68002B23D140F208024FF0FF3317
:1047B000C2F20002136004E0DFF8EC90DFF8EC8056
:1047C0000024D8F80030344ADB6A126803EB830314
:1047D00059F82330012B88BF0124002A3DD02F4BEC
:1047E0001B68002B18BF0124204603B0BDE8F08FE2
:1047F00044F2D042C2F200021368DB68D3F80CA086
:10480000019BDAF804200AF10405934235D32846C7
:10481000FFF704FDDAF828200AF118000AB1FFF7C3
:10482000FDFCDAF82C0032680BFA00F100EB800096
:104830000A4309EB800029463260FFF7C9FCD8F82B
:104840000010DAF82C20CB6A9A4228BF0124A7E78F
:10485000114B00241A6801321A6004F0E7F9BEE730
:104860000B4F0F4A396810680E4B386011601A6898
:1048700001321A60FFF728FE81E740F20803C2F216
:1048800000031A609DE700BF6C4500208C450020A6
:10489000D0440020B045002004450020B44500204D
:1048A00090450020884500200845002070450020E4
:1048B0002DE9F84FFFF708FD304B1A68013A1A60EE
:1048C0001B68002B50D12E4B1B68002B4CD0DFF8FF
:1048D000BCB02C4EDA460127DFF8B490DFF8B48084
:1048E00023E0DAF80C30DC68251D04F11800FFF72E
:1048F00095FC2846FFF792FCE36A316807FA03FE4D
:1049000003EB830009EB80004EEA01032946336084
:10491000FFF75EFCD8F80030E16ADB6A994222BFFB
:1049200044F2B453C2F200031F60DBF80030002BE6
:10493000D7D1154C236883B1236873B10125FFF7E4
:104940000FFF20B144F2B453C2F200031D6023688C
:10495000013B23602368002BF1D144F2B453C2F22F
:1049600000031C68012C05D00024FFF7C5FC20467D
:10497000BDE8F88FFFF794FCF7E700BF6C45002017
:10498000AC450020B04500200445002074450020BF
:1049900008450020704500202DE9F84F1C4E1D4DA4
:1049A0001D4CDFF87880DFF87890B24606E0236887
:1049B000376801332360FFF77BFF4FB92B68002B6B
:1049C000F5D1D9F80030012BF8D9FFF769FCF5E7EC
:1049D000FFF77AFCDAF80C30D3F80CB00BF10400D6
:1049E000FFF71CFCD8F8003044F2D842013BC2F279
:1049F0000002C8F800301368013B1360FFF77CFC2D
:104A0000DBF83000FFF73EFD5846FFF73BFDD5E7EA
:104A1000DC440020D84400206C450020AC45002038
:104A20000845002038B518B9BDE83840FFF738BC54
:104A30000F4B104C1A6801321A600F4B1D68236827
:104A40004519181DFFF7EAFB38B12846FFF750FD5E
:104A5000FFF72EFF0028E7D038BD23680121DA6A6E
:104A6000064B01FA02F2196821EA02021A60ECE729
:104A70006C450020704500208C450020B04500208A
:104A800038B5194B1A6801321A60184B1A68036856
:104A90009A4201EB030406D2A34206D80460FFF752
:104AA00007FFE0B138BDA34201D8A242F6D2104DB3
:104AB000046028680430FFF7B1FB48B92B68012176
:104AC000DA6A0C4B01FA02F2196821EA02021A6052
:104AD0002046FFF70DFDFFF7EBFE0028E2D1BDE811
:104AE0003840FFF7DDBB00BF6C4500208C4500203F
:104AF00070450020B0450020104B1B68D3B9104A08
:104B00001360104B1A68B2FA82F2D2B20E4BC2F1A5
:104B10001F0202EB820203EB8202536802F10801DA
:104B20005B6853608B4204BF5B685360DA68074B75
:104B30001A607047024B01221A6070476C450020D2
:104B4000B4450020B04500200845002070450020F5
:104B5000C37830B47BB90378012103F01F0201FA56
:104B600002F15A094FF46143CEF20003203243F8B8
:104B7000221030BC70474FF46D43CEF20003DB6867
:104B80004478DB43C3F302230F22C3F1040122FA6A
:104B900003F304FA01F48578017803EA050222435D
:104BA00001F160431201D2B203F5614383F800239F
:104BB0000278012102F01F0301FA03F14FF461436F
:104BC000CEF20003520943F82210D2E721F06041EF
:104BD00021F07F014FF46D430843CEF2000398604B
:104BE000704700BF70B4036823F0020303600368DA
:104BF00043F0010303604368DB0707D44FF6FF73FC
:104C000001E0013B02D04268D207FAD5436813F0B5
:104C1000010308BF184658D08B79012B03680CBFDD
:104C200043F0800323F080030360CB79012B0368FA
:104C30000CBF43F0400323F0400303600B7A012BC9
:104C400003680CBF43F0200323F0200303604B7A7A
:104C5000012B03680CBF43F0100323F01003036023
:104C60008B7A012B03680CBF43F0080323F0080381
:104C70000360CB7A012B03680CBF43F0040323F0DD
:104C8000040303608A78CE780D7992074C790B88FB
:104C900042EA066242EA0542013B42EA04521343F9
:104CA000C361036823F0010303604368D90707D594
:104CB0004FF6FF7301E0013B02D04268D207FAD4FD
:104CC000406800F0010080F0010070BC704700BF38
:104CD000837AF0B4012404FA03F44FF4C843C4F215
:104CE0000003D3F80012E24341F00101C3F80012BF
:104CF000D3F81C121140C3F81C12017BC9B9D3F8B8
:104D00000C5246F240611540C3F80C52857AC788B0
:104D10004688483546EA074643F83560857A8688EE
:104D20000388ED00C4F20001691843EA06434B60B2
:104D3000017B012946D0C37A002B39D14FF4C843F7
:104D4000C4F20003D3F804121140C3F8041203891B
:104D50004BB94FF4C843C4F20003D3F814120A400D
:104D6000C3F814220389012B01BF4FF4C843C4F2D6
:104D70000003D3F81422224308BFC3F81422437B54
:104D8000012B01BF4FF4C843C4F20003D3F81C2227
:104D9000144308BFC3F81C424FF4C843C4F20003D5
:104DA000D3F8002222F00102C3F80022F0BC7047C1
:104DB0004FF4C843C4F20003D3F804122143C3F8EC
:104DC0000412C4E74FF4C841C4F20001D1F80C52F8
:104DD00046F240632543C1F80C52857A078846881D
:104DE000483546EA074641F83560857A8688C188A5
:104DF000ED00C4F2000341EA0641EB1859609AE75E
:104E00002DE9F00182680346520105D48268100141
:104E100059D50124204601E00024204604F118055C
:104E20002A019E5806F001069E5091F80880B8F1BC
:104E3000000F3FD04E689F5891F809C048EAC60855
:104E400048EA070646EA0C069E508A7A2D0102F0CF
:104E50000F028A725A19566803EB041426F00F06E3
:104E60005660576891F80AC004F5C4764CEA070703
:104E700057604A7B91F80E8091F80BC012040F7BAB
:104E800042EA086242EA0C0242EA0722C4F8882198
:104E90004A7C8F7CCC7B1204097C42EA0762224365
:104EA00042EA012272605A5942F001025A51BDE8A9
:104EB000F00170470E6891F809C09F584CEA4656B9
:104EC0003E439E50C1E79A68D20002D50224204694
:104ED000A4E70420EBE700BF21B1036943F02003FE
:104EE00003617047C36843F02003C360704700BF8D
:104EF00043691AB923EA01014161704719434161CD
:104F0000704700BFB1F5807F0FD011D9B1F5006FA8
:104F100009D017D9B1F5803F31D0B1F5003F2BD082
:104F2000B1F5004F03D10023836104234360704730
:104F3000082915D00DD9202915D04029F7D11023E3
:104F400003617047B1F5007FEFD0B1F5806FEED10E
:104F5000EBE701290AD00429E9D10823C36070478F
:104F60001023C360704708230361704740F20113A8
:104F7000C0F2010383607047102343607047082329
:104F800043607047CB782DE9F00303F00F06DB0692
:104F900048BF8B780A8848BF1E4312F0FF0F27D006
:104FA0000768002301254FF00F0803E00133082BA9
:104FB0001CD00A8805FA03F42240A242F6D19C00D4
:104FC00008FA04F906FA04F491F803C027EA09077D
:104FD000BCF1280F47EA040708BF4261E6D0BCF1E4
:104FE000480F08BF02610133082BE2D107600A882D
:104FF000FF2A28D94768002301254FF00F0803E056
:105000000133082B1ED00A8803F1080405FA04F4C2
:105010002240A242F4D19C0008FA04F906FA04F4F2
:1050200091F803C027EA0907BCF1280F04BF4261C9
:1050300091F803C02743BCF1480F08BF0261013358
:10504000082BE0D14760BDE8F0037047016170476D
:105050004161704730B400230028C4F2010300F41A
:105060004012B4BFDB695B68B2F5401F84B222D046
:10507000C20217D5C0F30342032505FA02F223EA60
:10508000020343F0706321B1420D120104FA02F4ED
:1050900023430022C4F201020028B4BFD36153604D
:1050A00030BC7047420D120104FA02F223EA0203F7
:1050B00043F07063E7E70022C4F20102556823F071
:1050C000706325F070655560DDE700BF10B44FF4E4
:1050D0008053C4F202035A6802F00C02042A01D081
:1050E000082A28D04FF49052C0F27A0202604FF49E
:1050F0008053C4F202035C681C49C4F303140C5DC2
:1051000022FA04F242605C68C4F302240C5D22FAC5
:1051100004F484605C68C4F3C224095D22FA01F2DD
:10512000C2605B681249C3F38133CB5CB2FBF3F21C
:10513000026110BC70475A685968C2F38342023258
:10514000CC030AD55B68990307D44FF49053C0F29F
:105150007A0303FB02F20260C9E74FF41063C0F266
:105160003D0303FB02F20260C1E700BF1000002014
:105170000C0000204FF48053C4F202039A6919B95D
:1051800022EA00009861704710439861704700BFA1
:105190004FF48053C4F20203DA6919B922EA00001D
:1051A000D86170471043D861704700BF70B5294B74
:1051B00084B09B7A4FF4C840082B98BF264A01A9B7
:1051C00094BF32F813300023ADF8043000240125D9
:1051D00007230226C4F200008DF808308DF806403F
:1051E0008DF807408DF809608DF80A408DF80B4066
:1051F0008DF80C408DF80D408DF80E408DF80F5055
:10520000FFF7F0FC4FF4C84031462A46C4F20000D4
:10521000FFF76EFE4FF4C84010212A46C4F200008A
:10522000FFF766FE4FF4C840C4F2000029462A4644
:10523000FFF75EFE14238DF800306846BD238DF81D
:1052400001308DF802408DF80350FFF781FC04B067
:1052500070BD00BFFC450020DC8E000800B585B0A5
:10526000002301226846ADF80030ADF80230ADF8F9
:105270000430ADF80630ADF808308DF80A308DF8FE
:105280000B308DF80C208DF80D20FFF721FD05B0B7
:1052900000BD00BF2DE9F04F04218DB0504A02201F
:1052A00003F0A6F8042107904D4A022003F0A0F86D
:1052B0004C4B08905B7A03B10423DFF824B18DF8DE
:1052C00024309BF801E09BF806709BF807609BF880
:1052D00008509BF809409BF80A009BF80B109BF8BC
:1052E0000C209BF80D304FF0000C8DF825C08DF888
:1052F00026E08DF827708DF828608DF829508DF8FC
:105300002A408DF82B008DF82C108DF82D208DF86B
:105310002E30FFF719FA4FF4C8490690C4F200097D
:105320004FF4C84007A9C4F20000FFF769FDD9F89F
:105330000C302B4A43F02003C9F80C309BF810A026
:105340009BF811809BF812609BF813509BF8141087
:105350009DF82A3002919DF82B109DF8287003913A
:105360009BF815109DF8294004919DF82C109DF88C
:1053700027E04744ED18DDF80C80029B05919BF86F
:105380001610D6443619DDF810A003EB0804DDF83A
:10539000148000910AEB08039DF82E109BF817006B
:1053A0009DF82DC0DDF800A000EB0108D4440221D7
:1053B00018208DF827E08DF828708DF829608DF879
:1053C0002A508DF82B408DF82C308DF82DC08DF89B
:1053D0002E8003F00DF8014606A8FFF751FB9FE76A
:1053E0003C490020FC4500202DE9F04F04218DB000
:1053F000504A022002F0FCFF042107904D4A02208F
:1054000002F0F6FF4C4B08905B7A03B10423DFF8FF
:1054100024B18DF824309BF801E09BF806709BF8CE
:1054200007609BF808509BF809409BF80A009BF81E
:105430000B109BF80C209BF80D304FF0000C8DF8F2
:1054400025C08DF826E08DF827708DF828608DF83E
:1054500029508DF82A408DF82B008DF82C108DF8EE
:105460002D208DF82E30FFF76FF94FF4C8490690C4
:10547000C4F200094FF4C84007A9C4F20000FFF7C6
:10548000BFFCD9F80C302B4A43F02003C9F80C308C
:105490009BF810A09BF811809BF812609BF81350AA
:1054A0009BF814109DF82A3002919DF82B109DF85E
:1054B000287003919BF815109DF8294004919DF8E0
:1054C0002C109DF827E04744ED18DDF80C80029B76
:1054D00005919BF81610D6443619DDF810A003EBA1
:1054E0000804DDF8148000910AEB08039DF82E10E3
:1054F0009BF817009DF82DC0DDF800A000EB010817
:10550000D444022118208DF827E08DF828708DF8FA
:1055100029608DF82A508DF82B408DF82C308DF8AD
:105520002DC08DF82E8002F063FF014606A8FFF71C
:10553000A7FA9FE7BC450020FC4500202DE9F04F6D
:1055400004218DB0504A022002F052FF042107903E
:105550004D4A022002F04CFF4C4B08905B7A03B19D
:105560000423DFF824B18DF824309BF801E09BF888
:1055700006709BF807609BF808509BF809409BF861
:105580000A009BF80B109BF80C209BF80D304FF095
:10559000000C8DF825C08DF826E08DF827708DF869
:1055A00028608DF829508DF82A408DF82B008DF851
:1055B0002C108DF82D208DF82E30FFF7C5F84FF404
:1055C000C8490690C4F200094FF4C84007A9C4F2C4
:1055D0000000FFF715FCD9F80C302B4A43F02003EC
:1055E000C9F80C309BF810A09BF811809BF8126052
:1055F0009BF813509BF814109DF82A3002919DF8E7
:105600002B109DF8287003919BF815109DF82940E8
:1056100004919DF82C109DF827E04744ED18DDF823
:105620000C80029B05919BF81610D6443619DDF8C4
:1056300010A003EB0804DDF8148000910AEB0803C6
:105640009DF82E109BF817009DF82DC0DDF800A0E6
:1056500000EB0108D444022118208DF827E08DF8D2
:1056600028708DF829608DF82A508DF82B408DF820
:105670002C308DF82DC08DF82E8002F0B9FE014639
:1056800006A8FFF7FDF99FE73C460020FC450020F7
:105690002DE9F04F04218DB0504A022002F0A8FEFF
:1056A000042107904D4A022002F0A2FE4C4B0890C4
:1056B0005B7A03B10423DFF824B18DF824309BF822
:1056C00001E09BF806709BF807609BF808509BF878
:1056D00009409BF80A009BF80B109BF80C209BF8E4
:1056E0000D304FF0000C8DF825C08DF826E08DF8B8
:1056F00027708DF828608DF829508DF82A408DF894
:105700002B008DF82C108DF82D208DF82E30FFF702
:105710001BF84FF4C8490690C4F200094FF4C84082
:1057200007A9C4F20000FFF76BFBD9F80C302B4A35
:1057300043F02003C9F80C309BF810A09BF81180AF
:105740009BF812609BF813509BF814109DF82A30B8
:1057500002919DF82B109DF8287003919BF815106D
:105760009DF8294004919DF82C109DF827E04744AE
:10577000ED18DDF80C80029B05919BF81610D644BD
:105780003619DDF810A003EB0804DDF81480009151
:105790000AEB08039DF82E109BF817009DF82DC00A
:1057A000DDF800A000EB0108D444022118208DF898
:1057B00027E08DF828708DF829608DF82A508DF833
:1057C0002B408DF82C308DF82DC08DF82E8002F0F6
:1057D0000FFE014606A8FFF753F99FE7FC4900209A
:1057E000FC4500202DE9F04F04218DB0504A0220E5
:1057F00002F0FEFD042107904D4A022002F0F8FD60
:105800004C4B08905B7A03B10423DFF824B18DF888
:1058100024309BF801E09BF806709BF807609BF82A
:1058200008509BF809409BF80A009BF80B109BF866
:105830000C209BF80D304FF0000C8DF825C08DF832
:1058400026E08DF827708DF828608DF829508DF8A6
:105850002A408DF82B008DF82C108DF82D208DF816
:105860002E30FEF771FF4FF4C8490690C4F20009CC
:105870004FF4C84007A9C4F20000FFF7C1FAD9F8F5
:105880000C302B4A43F02003C9F80C309BF810A0D1
:105890009BF811809BF812609BF813509BF8141032
:1058A0009DF82A3002919DF82B109DF828700391E5
:1058B0009BF815109DF8294004919DF82C109DF837
:1058C00027E04744ED18DDF80C80029B05919BF81A
:1058D0001610D6443619DDF810A003EB0804DDF8E5
:1058E000148000910AEB08039DF82E109BF8170016
:1058F0009DF82DC0DDF800A000EB0108D444022182
:1059000018208DF827E08DF828708DF829608DF823
:105910002A508DF82B408DF82C308DF82DC08DF845
:105920002E8002F065FD014606A8FFF7A9F89FE763
:105930007C460020FC4500202DE9F04F04218DB06D
:10594000504A022002F054FD042107904D4A0220E3
:1059500002F04EFD4C4B08905B7A03B10423DFF854
:1059600024B18DF824309BF801E09BF806709BF879
:1059700007609BF808509BF809409BF80A009BF8C9
:105980000B109BF80C209BF80D304FF0000C8DF89D
:1059900025C08DF826E08DF827708DF828608DF8E9
:1059A00029508DF82A408DF82B008DF82C108DF899
:1059B0002D208DF82E30FEF7C7FE4FF4C849069013
:1059C000C4F200094FF4C84007A9C4F20000FFF771
:1059D00017FAD9F80C302B4A43F02003C9F80C30E1
:1059E0009BF810A09BF811809BF812609BF8135055
:1059F0009BF814109DF82A3002919DF82B109DF809
:105A0000287003919BF815109DF8294004919DF88A
:105A10002C109DF827E04744ED18DDF80C80029B20
:105A200005919BF81610D6443619DDF810A003EB4B
:105A30000804DDF8148000910AEB08039DF82E108D
:105A40009BF817009DF82DC0DDF800A000EB0108C1
:105A5000D444022118208DF827E08DF828708DF8A5
:105A600029608DF82A508DF82B408DF82C308DF858
:105A70002DC08DF82E8002F0BBFC014606A8FEF773
:105A8000FFFF9FE77C490020FC4500202DE9F04FF7
:105A900004218DB0504A022002F0AAFC0421079094
:105AA0004D4A022002F0A4FC4C4B08905B7A03B1F3
:105AB0000423DFF824B18DF824309BF801E09BF833
:105AC00006709BF807609BF808509BF809409BF80C
:105AD0000A009BF80B109BF80C209BF80D304FF040
:105AE000000C8DF825C08DF826E08DF827708DF814
:105AF00028608DF829508DF82A408DF82B008DF8FC
:105B00002C108DF82D208DF82E30FEF71DFE4FF451
:105B1000C8490690C4F200094FF4C84007A9C4F26E
:105B20000000FFF76DF9D9F80C302B4A43F0200341
:105B3000C9F80C309BF810A09BF811809BF81260FC
:105B40009BF813509BF814109DF82A3002919DF891
:105B50002B109DF8287003919BF815109DF8294093
:105B600004919DF82C109DF827E04744ED18DDF8CE
:105B70000C80029B05919BF81610D6443619DDF86F
:105B800010A003EB0804DDF8148000910AEB080371
:105B90009DF82E109BF817009DF82DC0DDF800A091
:105BA00000EB0108D444022118208DF827E08DF87D
:105BB00028708DF829608DF82A508DF82B408DF8CB
:105BC0002C308DF82DC08DF82E8002F011FC01468E
:105BD00006A8FEF755FF9FE73C4A0020FC45002041
:105BE0002DE9F04F04218DB0504A022002F000FC54
:105BF000042107904D4A022002F0FAFB4C4B08901A
:105C00005B7A03B10423DFF824B18DF824309BF8CC
:105C100001E09BF806709BF807609BF808509BF822
:105C200009409BF80A009BF80B109BF80C209BF88E
:105C30000D304FF0000C8DF825C08DF826E08DF862
:105C400027708DF828608DF829508DF82A408DF83E
:105C50002B008DF82C108DF82D208DF82E30FEF7AE
:105C600073FD4FF4C8490690C4F200094FF4C840D0
:105C700007A9C4F20000FFF7C3F8D9F80C302B4A8B
:105C800043F02003C9F80C309BF810A09BF811805A
:105C90009BF812609BF813509BF814109DF82A3063
:105CA00002919DF82B109DF8287003919BF8151018
:105CB0009DF8294004919DF82C109DF827E0474459
:105CC000ED18DDF80C80029B05919BF81610D64468
:105CD0003619DDF810A003EB0804DDF814800091FC
:105CE0000AEB08039DF82E109BF817009DF82DC0B5
:105CF000DDF800A000EB0108D444022118208DF843
:105D000027E08DF828708DF829608DF82A508DF8DD
:105D10002B408DF82C308DF82DC08DF82E8002F0A0
:105D200067FB014606A8FEF7ABFE9FE7BC490020D3
:105D3000FC4500202DE9F04F04218DB04F4A022090
:105D400002F056FB042107904C4A022002F050FB5F
:105D50004B4B08905B7A03B10423DFF820918DF858
:105D6000243099F801E099F8067099F8076099F8DD
:105D7000085099F8094099F80A0099F80B1099F819
:105D80000C2099F80D304FF0000C8DF827708DF82D
:105D90002E308DF825C08DF826E08DF828608DF81E
:105DA00029508DF82A408DF82B008DF82C108DF895
:105DB0002D20FEF7C9FC0CAB4FF4C84743F8180D73
:105DC0000593C4F200072D4A0221182002F010FBAF
:105DD00001460598FEF754FE4FF4C84007A9C4F2E7
:105DE0000000FFF70DF8FB6843F02003FB6099F813
:105DF00010B099F8118099F812E099F8135099F8B9
:105E000014309DF827A001939DF82B309DF828C0F1
:105E1000029399F815309DF82A4003939DF82C3091
:105E2000DA44C444DDF808B0DDF8048004939DF83A
:105E3000296099F816009DF82D109DF82E3099F8DC
:105E400017202C1908EB0B05DDF80C80DDF810B0DD
:105E50007644411808EB0B0ED3188DF827A08DF867
:105E600028C08DF829608DF82A408DF82B508DF8C8
:105E70002CE08DF82D108DF82E30A4E73C49002041
:105E8000FC4500202DE9F04F042193B09F4A0220E9
:105E900002F0AEFA042108909C4A022002F0A8FA0F
:105EA0009B4C0990637A03B10423DFF860928DF86C
:105EB000283099F801C099F806E099F8077099F828
:105EC000086099F8095099F80A0099F80B1099F8A8
:105ED0000C2099F80D304FF000088DF832308DF815
:105EE0002AC08DF82BE08DF830108DF831208DF818
:105EF00029808DF82C708DF82D608DF82E508DF83E
:105F00002F00FEF721FC04210790824A022002F0B4
:105F10006FFA04210D907F4A022002F069FA637A39
:105F20000E9003B10423DFF8ECB18DF83C309BF800
:105F300001E09BF806709BF807609BF808509BF8FF
:105F400009409BF80A009BF80B109BF80C209BF86B
:105F50000D304FF0000C8DF846308DF83DC08DF8B7
:105F60003EE08DF83F708DF840608DF841508DF81F
:105F700042408DF843008DF844108DF84520FEF71F
:105F8000E3FB4FF4C843C4F2000300935F4A0221CD
:105F9000182002F02DFA014607A8FEF771FD4FF414
:105FA000C84008A9C4F20000FEF72AFF009F594A22
:105FB000FB6843F02003FB6099F810A09DF82F10B8
:105FC00099F8118099F8126099F8135099F814C053
:105FD0009DF82E309DF82C70CDF804C0029199F8F0
:105FE00015C09DF830109DF82D409DF82BE04744DA
:105FF000ED18DDF80880019BCDF80CC0049199F8EC
:1060000016C0D6443619DDF80CA003EB0804DDF801
:106010001080CDF814C00AEB08039DF8321099F8EF
:106020001700DDF814A09DF831C000EB0108D4443E
:10603000022118208DF82BE08DF82C708DF82D6042
:106040008DF82E508DF82F408DF830308DF831C0FE
:106050008DF8328002F0CCF9014607A8FEF710FD5A
:106060004FF4C8400DA9C4F20000FEF7C9FEDDF8E8
:1060700000C0DCF80C3043F02003CCF80C309BF867
:1060800010A09DF843209BF811C09BF812709BF85C
:1060900013509BF814109DF83F809DF841609BF8C9
:1060A0001530019102929DF844109DF840E09DF852
:1060B0004240D044BE19DDF808A0019F039304912B
:1060C0009BF816009DF845109DF846309BF8172068
:1060D000E6442C19DDF80CC007EB0A05DDF810A02A
:1060E00041180CEB0A07D3188DF83F808DF840E07B
:1060F0008DF841608DF842408DF843508DF8447022
:106100008DF845108DF8463040E700BF3C4900202F
:10611000FC450020BC4500202DE9F04F042199B03A
:10612000DA4A022002F064F904210990D74A0220D9
:1061300002F05EF9D64C0A90637A03B10423DFF8CB
:106140004C938DF82C3099F801C099F806E099F835
:10615000077099F8086099F8095099F80A0099F8B9
:106160000B1099F80C2099F80D304FF000088DF8BD
:1061700036308DF82EC08DF82FE08DF834108DF864
:1061800035208DF82D808DF830708DF831608DF8C8
:1061900032508DF83300FEF7D7FA04210890BD4A3B
:1061A000022002F025F904210E90BA4A022002F0E2
:1061B0001FF9637A0F9003B1042344F2BC51C2F279
:1061C00000010A468DF84030134691F801C091F85D
:1061D00006E0CF790E7A4D7A887AC97A127B5B7B9A
:1061E0004FF000088DF84A308DF842C08DF843E03A
:1061F0008DF848108DF849208DF841808DF8447055
:106200008DF845608DF846508DF84700FEF79CFAF2
:106210000421A14A022002F0EBF8042113909E4AC7
:10622000022002F0E5F8637A149003B10423DFF84A
:1062300068B28DF854309BF801E04FF4C84A9BF8DF
:1062400006709BF807609BF808509BF809409BF884
:106250000A009BF80B109BF80C209BF80D304FF0B8
:10626000000CC4F2000A8DF855C08DF856E08DF888
:1062700057708DF858608DF859508DF85A408DF848
:106280005B008DF85C108DF85D208DF85E30FEF7B8
:106290005BFACDF808A07D4A0221182002F0A8F888
:1062A000014608A8FEF7ECFB4FF4C84009A9C4F268
:1062B0000000FEF7A5FDDDF808C0764ADCF80C30DA
:1062C00043F02003CCF80C3099F810A099F8118015
:1062D00099F812C099F8137099F814109DF830309D
:1062E00003919DF833109DF83260049199F81510D0
:1062F000434405919DF834109DF82F409DF831E0FE
:10630000BE19DDF81080039F069199F81610E64437
:10631000544407EB080CDDF814A0DDF81880079151
:106320000AEB08079DF8361099F81700DDF81CA055
:106330009DF8355000EB01085544022118208DF8D6
:1063400030308DF831E08DF82F408DF832608DF8C7
:1063500033C08DF834708DF835508DF8368002F0EA
:1063600047F8014608A8FEF78BFB4FF4C8400EA97A
:10637000C4F20000FEF744FDDDF808C044F2BC5151
:10638000DCF80C30C2F2000143F02003CCF80C30F2
:1063900091F810A09DF8466091F8118091F812C014
:1063A000CF7C097D019603919DF8476044F2BC5172
:1063B000C2F20001497D9DF8443004969DF8486082
:1063C00043449DF8434005910696DDF8048044F26D
:1063D000BC5144F2BC56C2F20006C2F20001897DF3
:1063E0005444F07DDDF80CA007EB08069DF845E06D
:1063F000049FE644DDF814800AEB070CDDF818A0D2
:10640000079108EB0A079DF84A10DDF81C809DF8FB
:106410004950214A454400EB0108022118208DF81B
:1064200044308DF843408DF845E08DF847C08DF835
:1064300046608DF848708DF849508DF84A8001F01B
:10644000D7FF014608A8FEF71BFB4FF4C84013A96D
:10645000C4F20000FEF7D4FCDDF808A0DAF80C3036
:1064600043F02003CAF80C309BF810A09DF85B2085
:106470009BF811C09BF812709BF813509BF81410F6
:106480009DF857809DF8596008E000BF3C49002006
:10649000FC450020BC4500203C4600209BF8153000
:1064A000039104929DF85C109DF858E09DF85A40C5
:1064B000D044BE19DDF810A0039F059306919BF808
:1064C00016009DF85D109DF85E309BF81720E6449D
:1064D0002C19DDF814C007EB0A05DDF818A04118E7
:1064E0000CEB0A07D3188DF857808DF858E08DF81B
:1064F00059608DF85A408DF85B508DF85C708DF8BE
:106500005D108DF85E30C6E62DE9F04F04219FB096
:10651000DB4A022001F06CFF04210A90D84A0220D5
:1065200001F066FFD74C0B90637A03B10423DFF8C8
:1065300050938DF8303099F801C099F806E099F839
:10654000077099F8086099F8095099F80A0099F8C5
:106550000B1099F80C2099F80D304FF000088DF8C9
:106560003A308DF832C08DF833E08DF838108DF860
:1065700039208DF831808DF834708DF835608DF8C4
:1065800036508DF83700FEF7DFF804210990BE4A37
:10659000022001F02DFF04210F90BB4A022001F0E0
:1065A00027FF637A109003B1042344F2BC51C2F276
:1065B00000010A468DF84430134691F801C091F865
:1065C00006E0CF790E7A4D7A887AC97A127B5B7BA6
:1065D0004FF000088DF84E308DF846C08DF847E03A
:1065E0008DF84C108DF84D208DF845808DF8487051
:1065F0008DF849608DF84A508DF84B00FEF7A4F8ED
:106600000421A24A022001F0F3FE042114909F4AC3
:10661000022001F0EDFE637A159003B1042344F2E9
:106620003C6AC2F2000A9AF801C08DF858309AF814
:1066300006E09AF807709AF808609AF809509AF8F4
:106640000A009AF80B109AF80C209AF80D304FF0C7
:1066500000088DF862308DF85AC08DF85BE08DF837
:1066600060108DF861208DF859808DF85C708DF880
:106670005D608DF85E508DF85F00FEF765F80421CF
:10668000834A022001F0B4FE04211990804A0220BE
:1066900001F0AEFE637A1A9003B10423DFF8F0B183
:1066A0008DF86C309BF801E09BF806709BF8076052
:1066B0009BF808509BF809409BF80A009BF80B10C8
:1066C0009BF80C209BF80D304FF0000C8DF87630C5
:1066D0004FF4C843C4F200038DF86DC08DF86EE02E
:1066E0008DF86F708DF870608DF871508DF8724074
:1066F0008DF873008DF874108DF875200293604A40
:106700000221182001F074FE014609A8FEF7B8F92D
:106710004FF4C8400AA9C4F20000FEF771FB029CC6
:10672000594AE36843F02003E3609DF836C099F8C6
:1067300010A09DF8354099F8117099F81260CDF8C5
:1067400010C099F813809DF8373099F814109DF80F
:1067500034509DF833E03619049C99F815C0059122
:1067600006939DF83810D6447F19DDF818A008EB81
:106770000405DDF8148099F81630CDF81CC001919D
:1067800008EB0A04DDF81C80DDF804A000939DF8F6
:106790003A1008EB0A0399F81700DDF800809DF81D
:1067A00039C08DF833E0C44400EB01080221182001
:1067B0008DF834708DF835608DF838308DF839C02B
:1067C0008DF836508DF837408DF83A8001F010FE84
:1067D000014609A8FEF754F94FF4C8400FA9C4F2C6
:1067E0000000FEF70DFBDDF808A044F2BC5CDAF80F
:1067F0000C30C2F2000C43F02003CAF80C309DF8B4
:106800004A109CF810A09DF849409CF811709CF823
:10681000126004919CF8138044F2BC519CF814302F
:106820009DF84BC09DF848509DF847E03619C2F2DC
:106830000001049C497D0593CDF818C09DF84C30AB
:1068400044F2BC5CD6447F19DDF818A008EB0405BF
:10685000C2F2000CDDF814809CF816C00791019379
:1068600008EB0A0444F2BC53DDF81C80DDF804A0F8
:10687000CDF800C0C2F20003D87D9DF84E1009E0AB
:106880003C490020FC450020BC4500203C4600203F
:10689000FC49002008EB0A039DF84DC0DDF800809C
:1068A000714AC44400EB0108022118208DF847E02A
:1068B0008DF848708DF849608DF84C308DF84DC0DA
:1068C0008DF84A508DF84B408DF84E8001F090FDC8
:1068D000014609A8FEF7D4F84FF4C84014A9C4F241
:1068E0000000FEF78DFADDF808A044F23C6CDAF8FF
:1068F0000C30C2F2000C43F02003CAF80C309DF8B3
:106900005E109CF810A09DF85D409CF811709CF8FA
:10691000126004919CF8138044F23C619CF814309E
:106920009DF85FC09DF85C509DF85BE03619C2F29F
:106930000001049C497D0593CDF818C09DF8603096
:1069400044F23C6CD6447F19DDF818A008EB04052E
:10695000C2F2000CDDF814809CF816C00791019378
:1069600008EB0A0444F23C63DDF81C80DDF804A067
:10697000CDF800C0C2F20003D87D9DF8621008EB8C
:106980000A039DF861C0DDF80080384AC44400EB7A
:106990000108022118208DF85BE08DF85C708DF8FD
:1069A0005D608DF860308DF861C08DF85E508DF8B7
:1069B0005F408DF8628001F01BFD014609A8FEF7DB
:1069C0005FF84FF4C84019A9C4F20000FEF718FAA6
:1069D000DDF808A0DAF80C3043F02003CAF80C30D8
:1069E0009BF810A09DF873209BF811C09BF81270C3
:1069F0009BF813509BF814109DF86F809DF8716000
:106A00009BF81530039104929BF816109DF870E0E6
:106A10009DF87240D044BE19DDF810A0039F059385
:106A200006919DF874009DF875109DF876309BF8DE
:106A30001720E6442C19DDF814C007EB0A05069F61
:106A400060447918D3188DF86F808DF870E08DF858
:106A500071608DF872408DF873508DF874008DF868
:106A600075108DF876304AE63C460020FC4900203F
:106A70002DE9F04F0421A1B0D24A022001F0B8FC68
:106A800004210790CF4A022001F0B2FCDFF848B39E
:106A900008909BF8093003B1042344F63C11C2F27C
:106AA00000010A468DF82430134691F801E08F79F1
:106AB000CE790D7A4C7A887AC97A127B5B7B4FF05B
:106AC000000C8DF82E308DF825C08DF826E08DF85D
:106AD0002C108DF82D208DF827708DF828608DF8FA
:106AE00029508DF82A408DF82B00FDF72DFE04214A
:106AF0000690B54A022001F07BFC04210C90B24ABA
:106B0000022001F075FC9BF809300D9003B10423BD
:106B100044F2BC5CC2F2000C9CF801E08DF8383005
:106B20009CF806709CF807609CF808509CF8094097
:106B30009CF80A009CF80B109CF80C209CF80D3077
:106B40004FF0000C8DF842308DF839C08DF83AE0E6
:106B50008DF840108DF841208DF83B708DF83C6029
:106B60008DF83D508DF83E408DF83F00FDF7ECFD6F
:106B70000421964A022001F03BFC04211190934A23
:106B8000022001F035FC9BF80930129003B1042378
:106B900044F23C61C2F200010A468DF84C301346C3
:106BA00091F801E08F79CE790D7A4C7A887AC97A9A
:106BB000127B5B7B4FF0000C8DF856308DF84DC08A
:106BC0008DF84EE08DF854108DF855208DF84F70EB
:106BD0008DF850608DF851508DF852408DF853006B
:106BE000FDF7B2FD04217A4A022001F001FC0421E4
:106BF0001690774A022001F0FBFB9BF809301790B2
:106C000003B1042344F6FC1CC2F2000CE6467246B3
:106C10009CF801908DF860309CF806809CF807C0C5
:106C20009EF808E0577A967AD57A147B537B042134
:106C3000684A02204FF0000A8DF86A308DF864C06F
:106C40008DF865E08DF861A08DF862908DF8638015
:106C50008DF866708DF867608DF868508DF8694022
:106C600001F0C6FB04211B905A4A022001F0C0FB30
:106C70009BF809301C9003B104238DF8743044F262
:106C80007C63C2F2000393F801E04FF4C8499F7996
:106C9000DE791D7A5C7A987AD97A1A7B5B7B4FF021
:106CA000000CC4F200098DF875C08DF876E08DF8FF
:106CB00077708DF878608DF879508DF87A408DF87E
:106CC0007B008DF87C108DF87D208DF87E30CB46D2
:106CD0003C4A0221182001F08BFB014606A8FDF773
:106CE000CFFE4FF4C84007A9C4F20000FEF788F8B1
:106CF000DBF80C3044F63C1C43F02003CBF80C309E
:106D0000C2F2000C9CF810E09DF82A509CF811A0EB
:106D10009CF812909CF813109DF827409DF828309D
:106D20009CF8147003919DF82BC0049544F63C1117
:106D300053449DF829807444DDF810A0DDF80CE080
:106D4000C2F20001497D0597CDF804C0C84444F65D
:106D50003C150EEB0A0944F63C1CDDF814E0DDF8A6
:106D600004A00091C2F20005C2F2000CAE7D9DF8B5
:106D70002E109CF817009DF82C700EEB0A0C9DF855
:106D80002D50DDF800E0104A7744751900EB010E34
:106D9000022118208DF828308DF82BC08DF827405F
:106DA0008DF829808DF82A908DF82C708DF82EE0C2
:106DB0008DF82D5001F01CFB014606A8FDF760FE82
:106DC0000CE000BF3C490020BC4500203C460020B0
:106DD000FC4900207C460020FC4500204FF4C840C0
:106DE0000CA9C4F20000FEF70BF8DBF80C3044F2FB
:106DF000BC5143F02003CBF80C30C2F2000191F8F3
:106E000010E09DF83E7091F811A091F81290CD7CA1
:106E10009DF83B409DF83C3091F814C003959DF8D7
:106E20003F10049744F2BC5553449DF83D80744490
:106E3000DDF810A0DDF80CE0C2F200056D7DCDF8A4
:106E400014C00191C84444F2BC5C0EEB0A09DDF8A1
:106E500014E0DDF804A00095C2F2000C9CF8166066
:106E60009DF842109CF817009DF840700EEB0A0C3C
:106E70009DF84150DDF800E0A24A7744751900EB17
:106E8000010E022118208DF83C308DF83FC08DF89E
:106E90003B408DF83D808DF83E908DF840708DF828
:106EA00042E08DF8415001F0A3FA014606A8FDF733
:106EB000E7FD4FF4C84011A9C4F20000FDF7A0FFA0
:106EC000DBF80C3044F23C6143F02003CBF80C308B
:106ED000C2F2000191F810E09DF8527091F811A0F3
:106EE00091F81290CD7C9DF84F409DF8503091F86C
:106EF00014C003959DF85310049744F23C65534425
:106F00009DF851807444DDF810A0DDF80CE0C2F269
:106F100000056D7DCDF814C00191C84444F23C6C6D
:106F20000EEB0A09DDF814E0DDF804A00095C2F2CA
:106F3000000C9CF816609DF856109CF817009DF800
:106F400054700EEB0A0C9DF85550DDF800E06E4AC7
:106F50007744751900EB010E022118208DF850308E
:106F60008DF853C08DF84F408DF851808DF85290B8
:106F70008DF854708DF856E08DF8555001F038FAC0
:106F8000014606A8FDF77CFD4FF4C84016A9C4F2DF
:106F90000000FDF735FFDBF80C3044F6FC1143F040
:106FA0002003CBF80C30C2F2000191F810E09DF8FC
:106FB000667091F811A091F81290CD7C9DF8634015
:106FC0009DF8643091F814C003959DF867100497FC
:106FD00044F6FC1553449DF865807444DDF810A018
:106FE000DDF80CE0C2F200056D7DCDF814C0019112
:106FF000C84444F6FC1C0EEB0A09DDF814E0DDF889
:1070000004A00095C2F2000C9CF816609DF86A106E
:107010009CF817009DF868700EEB0A0C9DF86950FB
:10702000DDF800E0394A7744751900EB010E0221C2
:1070300018208DF864308DF867C08DF863408DF8A6
:1070400065808DF866908DF868708DF86AE08DF82F
:10705000695001F0CDF9014606A8FDF711FD4FF486
:10706000C8401BA9C4F20000FDF7CAFEDBF80C30D3
:1070700044F27C6143F0200344F27C62CBF80C3094
:10708000C2F20002C2F20001097C9DF87B5092F826
:10709000119092F812C0D77C137D9DF879E09DF88D
:1070A0007A6002910393517D05959DF877A0029D2A
:1070B000E644BE19DDF814C0039F04919DF8788062
:1070C0009DF87C40907D9DF87D109DF87E30D27DAE
:1070D000AA4407EB0C05049FC8443C194118D31877
:1070E0008DF877A08DF878808DF879E08DF87A604A
:1070F0008DF87B508DF87C408DF87D108DF87E30BA
:10710000E6E500BF3C460020FC4900207C4600200C
:107110002DE9F04F0421A9B0D24A022001F068F90C
:1071200004210A90CF4A022001F062F9DFF84CB343
:107130000B909BF8093003B1042344F63C11C2F2D2
:1071400000010A468DF83030134691F801E08F793E
:10715000CE790D7A4C7A887AC97A127B5B7B4FF0B4
:10716000000C8DF83A308DF831C08DF832E08DF892
:1071700038108DF839208DF833708DF834608DF823
:1071800035508DF836408DF83700FDF7DDFA0421D3
:107190000990B54A022001F02BF904210F90B24A60
:1071A000022001F025F99BF80930109003B1042367
:1071B00044F2BC5CC2F2000C9CF801E08DF8443053
:1071C0009CF806709CF807609CF808509CF80940F1
:1071D0009CF80A009CF80B109CF80C209CF80D30D1
:1071E0004FF0000C8DF84E308DF845C08DF846E01C
:1071F0008DF84C108DF84D208DF847708DF8486053
:107200008DF849508DF84A408DF84B00FDF79CFAF7
:107210000421964A022001F0EBF804211490934ACD
:10722000022001F0E5F89BF80930159003B1042322
:1072300044F23C61C2F200010A468DF85830134610
:1072400091F801E08F79CE790D7A4C7A887AC97AF3
:10725000127B5B7B4FF0000C8DF862308DF859C0CB
:107260008DF85AE08DF860108DF861208DF85B7014
:107270008DF85C608DF85D508DF85E408DF85F0094
:10728000FDF762FA04217A4A022001F0B1F80421E4
:107290001990774A022001F0ABF89BF809301A9058
:1072A00003B1042344F6FC1CC2F2000C62469CF8B5
:1072B00001908DF86C309CF806809CF807C092F81D
:1072C00008E0577A967AD57A147B537B0421694A71
:1072D00002204FF0000A8DF876308DF870C08DF8DE
:1072E00071E08DF86DA08DF86E908DF86F808DF83F
:1072F00072708DF873608DF874508DF8754001F0E0
:1073000077F804211E905B4A022001F071F89BF887
:1073100009301F9003B104238DF8803044F27C6360
:10732000C2F2000393F8019093F8068093F807C027
:1073300093F808E05F7A9E7ADD7A1C7B5B7B042100
:107340004D4A02204FF0000A8DF88A308DF884C033
:107350008DF885E08DF881A08DF882908DF883807E
:107360008DF886708DF887608DF888508DF889408B
:1073700001F03EF8042123903F4A022001F038F842
:107380009BF80930249003B1042344F67C1BC2F21D
:10739000000B9BF801E08DF894309BF806709BF889
:1073A00007609BF808509BF809409BF80A009BF87F
:1073B0000B109BF80C209BF80D304FF0000C8DF853
:1073C00095C08DF896E08DF897708DF898608DF8DF
:1073D00099508DF89A408DF89B008DF89C108DF88F
:1073E0009D208DF89E301F4A0221182001F000F8E0
:1073F0004FF4C844C4F20004014609A8FDF740FB5D
:107400000AA92046FDF7FCFCE36844F63C1C43F067
:107410002003E360C2F2000C9DF836309CF810B0F7
:107420009CF811709CF812A09CF813109DF833E0A2
:107430009DF83560069344F63C139CF814C0059102
:10744000C2F200039DF83710DE445B7D9DF8345096
:107450005644DDF818B0DDF814A0CDF81CC0029138
:1074600001930DE03C490020BC4500203C46002033
:10747000FC4900207C4600207C490020FC4500207F
:107480007F1944F63C1C0AEB0B0544F63C13DDF86F
:107490001CA0DDF808B0C2F2000CC2F200039CF898
:1074A00016809DF83A10D87D9DF838900AEB0B03B2
:1074B0009DF839C0DDF804A0C444DB4AD14400EB98
:1074C000010A022118208DF833E08DF837308DF84D
:1074D00034708DF835608DF836508DF838908DF811
:1074E00039C08DF83AA000F083FF014609A8FDF7E6
:1074F000C7FA20460FA9FDF783FCE36844F2BC5CA1
:1075000043F02003E360C2F2000C9DF84A309CF87F
:1075100010B09CF811709CF812A09CF813109DF804
:1075200047E09DF84960069344F2BC539CF814C0B0
:107530000591C2F200039DF84B10DE445B7D9DF87F
:1075400048505644DDF818B0DDF814A0CDF81CC042
:10755000029101937F1944F2BC5C0AEB0B0544F2E3
:10756000BC53DDF81CA0DDF808B0C2F2000CC2F27A
:1075700000039CF816809DF84E10D87D9DF84C9025
:107580000AEB0B039DF84DC0DDF804A0C444A74AE4
:10759000D14400EB010A022118208DF847E08DF854
:1075A0004B308DF848708DF849608DF84A508DF851
:1075B0004C908DF84DC08DF84EA000F019FF01469B
:1075C00009A8FDF75DFA204614A9FDF719FCE36848
:1075D00044F23C6C43F02003E360C2F2000C9DF8DF
:1075E0005E309CF810B09CF811709CF812A09CF8CA
:1075F00013109DF85BE09DF85D60069344F23C63D8
:107600009CF814C00591C2F200039DF85F10DE449F
:107610005B7D9DF85C505644DDF818B0DDF814A091
:10762000CDF81CC0029101937F1944F23C6C0AEB27
:107630000B0544F23C63DDF81CA0DDF808B0C2F293
:10764000000CC2F200039CF816809DF86210D87DF1
:107650009DF860900AEB0B039DF861C0DDF804A073
:10766000C444734AD14400EB010A022118208DF86A
:107670005BE08DF85F308DF85C708DF85D608DF8A3
:107680005E508DF860908DF861C08DF862A000F0BA
:10769000AFFE014609A8FDF7F3F9204619A9FDF749
:1076A000AFFBE36844F6FC1C43F02003E360C2F246
:1076B000000C9DF872309CF810B09CF811709CF88A
:1076C00012A09CF813109DF86FE09DF8716006936E
:1076D00044F6FC139CF814C00591C2F200039DF817
:1076E0007310DE445B7D9DF870505644DDF818B091
:1076F000DDF814A0CDF81CC0029101937F1944F667
:10770000FC1C0AEB0B0544F6FC13DDF81CA0DDF8AD
:1077100008B0C2F2000CC2F200039CF816809DF87B
:107720007610D87D9DF874900AEB0B039DF875C018
:10773000DDF804A0C4443F4AD14400EB010A022111
:1077400018208DF86FE08DF873308DF870708DF81B
:1077500071608DF872508DF874908DF875C08DF849
:1077600076A000F045FE014609A8FDF789F92046FC
:107770001EA9FDF745FBE36844F27C6C43F020034F
:10778000E360C2F2000C9DF886309CF810B09CF8C3
:1077900011709CF812A09CF813109DF883E09DF8DE
:1077A0008560069344F27C639CF814C00591C2F294
:1077B00000039DF88710DE445B7D9DF8845056449D
:1077C000DDF818B0DDF814A0CDF81CC002910193CB
:1077D0007F1944F27C6C0AEB0B0544F27C63DDF804
:1077E0001CA0DDF808B0C2F2000CC2F200039CF845
:1077F00016809DF88A10D87D9DF888900AEB0B03BF
:107800009DF889C0DDF804A0C4440B4AD14400EBC4
:10781000010A022118208DF883E08DF887308DF859
:1078200084708DF8856009E0BC4500203C4600204E
:10783000FC4900207C4600207C4900208DF88650C1
:107840008DF888908DF889C08DF88AA000F0D0FD61
:10785000014609A8FDF714F9204623A9FDF7D0FA3F
:10786000E36844F67C1CC2F2000C43F02003E360A2
:1078700061469CF810B09CF811909CF812C0CF7C27
:107880000A7D4D7D9DF89B309DF897A09DF899E06D
:107890009DF89A60059544F67C1504920693C2F211
:1078A0000005887D9DF898809DF89C409DF89D106E
:1078B0009DF89E30EA7DDA44E644BE19DDF818B042
:1078C000049FDDF814C0C84407EB0B05644441185D
:1078D000D3188DF897A08DF898808DF899E08DF8E1
:1078E0009A608DF89B508DF89C408DF89D108DF816
:1078F0009E3078E52DE9F04F0421ADB0D34A022047
:1079000000F076FD04210990D04A022000F070FDBD
:10791000DFF854B30A909BF8093003B1042344F60E
:107920003C11C2F200010A468DF82C30134691F842
:1079300001E08F79CE790D7A4C7A887AC97A127BF8
:107940005B7B4FF0000C8DF836308DF82DC08DF834
:107950002EE08DF834108DF835208DF82F708DF8CD
:1079600030608DF831508DF832408DF83300FCF7DF
:10797000EBFE04210890B64A022000F039FD0421F4
:107980000E90B34A022000F033FD9BF809300F90AF
:1079900003B1042344F2BC5AC2F2000A9AF801E08F
:1079A0008DF840309AF806709AF807609AF80850F7
:1079B0009AF809409AF80A009AF80B109AF80C20E5
:1079C0009AF80D304FF0000C8DF84A308DF841C018
:1079D0008DF842E08DF848108DF849208DF84370FD
:1079E0008DF844608DF845508DF846408DF847007D
:1079F000FCF7AAFE0421974A022000F0F9FC0421BA
:107A00001390944A022000F0F3FC9BF80930149084
:107A100003B1042344F23C6CC2F2000C9CF801E078
:107A20008DF854309CF806709CF807609CF808505C
:107A30009CF809409CF80A009CF80B109CF80C205C
:107A40009CF80D304FF0000C8DF85E308DF855C06D
:107A50008DF856E08DF85C108DF85D208DF857702C
:107A60008DF858608DF859508DF85A408DF85B00AC
:107A7000FCF76AFE0421784A022000F0B9FC0421D8
:107A80001890754A022000F0B3FC9BF80930199059
:107A900003B1042344F6FC12C2F2000292F80190F2
:107AA0008DF8683092F8068092F807C092F808E0E6
:107AB000577A967AD57A147B537B0421674A022041
:107AC0004FF0000A8DF872308DF86CC08DF86DE0C3
:107AD0008DF869A08DF86A908DF86B808DF86E70C6
:107AE0008DF86F608DF870508DF8714000F080FC5B
:107AF00004211D90594A022000F07AFC9BF80930BD
:107B00001E9003B104238DF87C3044F27C63C2F2F2
:107B1000000393F8019093F8068093F807C093F858
:107B200008E05F7A9E7ADD7A1C7B5B7B04214C4AFD
:107B300002204FF0000A8DF886308DF880C08DF855
:107B400081E08DF87DA08DF87E908DF87F808DF896
:107B500082708DF883608DF884508DF8854000F038
:107B600047FC042122903E4A022000F041FC9BF891
:107B70000930239003B1042344F67C1CC2F2000CAC
:107B800062469CF801908DF890309CF806809CF835
:107B900007C092F808E0577A967AD57A147B537B1F
:107BA0000421304A02204FF0000A8DF89A308DF8F7
:107BB00094C08DF895E08DF891A08DF892908DF895
:107BC00093808DF896708DF897608DF898508DF8A9
:107BD000994000F00DFC04212790224A022000F079
:107BE00007FC9BF80930289003B104238DF8A430DA
:107BF00044F63C23C2F2000393F801E09F79DE795A
:107C00001D7A5C7A987AD97A1A7B5B7B4FF0000CEC
:107C10008DF8A5C08DF8A6E08DF8A7708DF8A86046
:107C20008DF8A9508DF8AA408DF8AB008DF8AC10F6
:107C30008DF8AD208DF8AE30044A0221182000F0F6
:107C4000D7FB4FF4C844C4F200040FE03C490020C5
:107C5000BC4500203C460020FC4900207C4600201A
:107C60007C4900203C4A0020FC450020014608A831
:107C7000FCF706FF09A92046FDF7C2F8E36844F6C1
:107C80003C1A43F02003E360C2F2000A9DF8311071
:107C9000D4469DF832509AF810B005919AF81170B8
:107CA0009AF812A09CF813309DF830609DF82FE0F0
:107CB0000395059D9CF8149006939DF833C044F6F7
:107CC0003C11DE44BF19DDF80CB00AEB0506C2F228
:107CD0000001DDF818A0497DCDF81C90CDF808C052
:107CE0000AEB0B0544F63C13DDF81CA0DDF808B0E8
:107CF0000191C2F2000393F816809DF83610D87DEA
:107D00009DF834900AEB0B039DF835C0DDF804A014
:107D1000C444DB4AD14400EB010A022118208DF84B
:107D20002FE08DF830708DF831608DF832508DF87D
:107D300033308DF835C08DF834908DF836A000F0D2
:107D400057FB014608A8FCF79BFE20460EA9FDF74D
:107D500057F8E36844F2BC5C43F02003E3609DF80D
:107D60004510C2F2000C9DF846509CF810B00591E9
:107D70009CF811709CF812A09CF813309DF8446098
:107D80009DF843E00395059D9CF8149006939DF89B
:107D900047C044F2BC51DE44BF19DDF80CB00AEB19
:107DA0000506C2F20001DDF818A0497DCDF81C904F
:107DB000CDF808C00AEB0B0544F2BC53DDF81CA05B
:107DC000DDF808B00191C2F2000393F816809DF827
:107DD0004A10D87D9DF848900AEB0B039DF849C0E6
:107DE000DDF804A0C444A74AD14400EB010A0221F3
:107DF00018208DF843E08DF844708DF845608DF8BB
:107E000046508DF847308DF849C08DF848908DF870
:107E10004AA000F0EDFA014608A8FCF731FE204622
:107E200013A9FCF7EDFFE36844F23C6C43F0200338
:107E3000E3609DF85910C2F2000C9DF85A509CF86E
:107E400010B005919CF811709CF812A09CF81330AA
:107E50009DF858609DF857E00395059D9CF8149097
:107E600006939DF85BC044F23C61DE44BF19DDF827
:107E70000CB00AEB0506C2F20001DDF818A0497D3E
:107E8000CDF81C90CDF808C00AEB0B0544F23C631A
:107E9000DDF81CA0DDF808B00191C2F2000393F8F0
:107EA00016809DF85E10D87D9DF85C900AEB0B0360
:107EB0009DF85DC0DDF804A0C444734AD14400EBD2
:107EC000010A022118208DF857E08DF858708DF8BE
:107ED00059608DF85A508DF85B308DF85DC08DF883
:107EE0005C908DF85EA000F083FA014608A8FCF7CC
:107EF000C7FD204618A9FCF783FFE36844F6FC1C85
:107F000043F02003E3609DF86D10C2F2000C9DF871
:107F10006E509CF810B005919CF811709CF812A05E
:107F20009CF813309DF86C609DF86BE00395059DFF
:107F30009CF8149006939DF86FC044F6FC11DE4443
:107F4000BF19DDF80CB00AEB0506C2F20001DDF83E
:107F500018A0497DCDF81C90CDF808C00AEB0B05A0
:107F600044F6FC13DDF81CA0DDF808B00191C2F264
:107F7000000393F816809DF87210D87D9DF87090DC
:107F80000AEB0B039DF871C0DDF804A0C4443F4A1E
:107F9000D14400EB010A022118208DF86BE08DF826
:107FA0006C708DF86D608DF86E508DF86F308DF8B7
:107FB00071C08DF870908DF872A000F019FA01462A
:107FC00008A8FCF75DFD20461DA9FCF719FFE36832
:107FD00044F27C6C43F02003E3609DF88110C2F210
:107FE000000C9DF882509CF810B005919CF811701F
:107FF0009CF812A09CF813309DF880609DF87FE0FB
:108000000395059D9CF8149006939DF883C044F257
:108010007C61DE44BF19DDF80CB00AEB0506C2F244
:108020000001DDF818A0497DCDF81C90CDF808C0FE
:108030000AEB0B0544F27C63DDF81CA0DDF808B008
:108040000191C2F2000393F816809DF88610D87D46
:108050009DF884900AEB0B039DF885C0DDF804A021
:10806000C4440B4AD14400EB010A022118208DF8C8
:108070007FE08DF880708DF881608DF8825009E086
:10808000BC4500203C460020FC4900207C460020E6
:108090007C4900208DF883308DF885C08DF8849060
:1080A0008DF886A000F0A4F9014608A8FCF7E8FCCA
:1080B000204622A9FCF7A4FEE36844F67C1C43F0AA
:1080C0002003E3609DF89510C2F2000C9DF89650D5
:1080D0009CF810B005919CF811709CF812A09CF8C7
:1080E00013309DF894609DF893E00395059D9CF8EE
:1080F000149006939DF897C044F67C11DE44BF1996
:10810000DDF80CB00AEB0506C2F20001DDF818A09C
:10811000497DCDF81C90CDF808C00AEB0B0544F65C
:108120007C13DDF81CA0DDF808B00191C2F2000359
:1081300093F816809DF89A10D87D9DF898900AEBD8
:108140000B039DF899C0DDF804A0C444354AD1441E
:1081500000EB010A022118208DF893E08DF894704D
:108160008DF895608DF896508DF897308DF899C000
:108170008DF898908DF89AA000F03AF9014608A879
:10818000FCF77EFC204627A9FCF73AFEE36844F69C
:108190003C2CC2F2000C43F02003E36061469CF8E3
:1081A00010B09DF8AA309CF811909CF812C0CA7CBF
:1081B0000D7D9DF8A7A09DF8A8809DF8A9E044F644
:1081C0003C27069204930595C2F200074D7D9DF869
:1081D000AB60887D9DF8AC409DF8AD109DF8AE3049
:1081E000FA7DDA44C844E644DDF81890DDF810B0B2
:1081F000DDF814C009EB0B0766442C194118D3189D
:108200008DF8A7A08DF8A8808DF8A9E08DF8AA7048
:108210008DF8AB608DF8AC408DF8AD108DF8AE30B8
:108220000AE500BF3C4A00202DE9F0414FF44065CB
:1082300086B0C4F201054FF0040809200121FCF7C3
:1082400099FF0324102628460DEB08014FF4006720
:10825000C4F20107ADF804808DF807608DF8064080
:10826000FCF790FE05200121FCF784FF384602A9A7
:10827000ADF808808DF80B608DF80A40FCF782FE9F
:1082800005200121FCF776FF0823384603A9ADF845
:108290000C308DF80F608DF80E40FCF773FE4FF434
:1082A000007328460DEB0601ADF8103018238DF849
:1082B00013308DF81240FCF765FE4FF480732846AA
:1082C00005A9ADF8143028238DF817308DF8164025
:1082D000FCF758FE01214FF00070FCF759FF012018
:1082E0000146FCF747FF4FF4EA100121FCF7B2FE0C
:1082F00006B0BDE8F08100BF00B5134B83B000228B
:108300000192597B019A4FF47A700A4301929A7B49
:10831000019B43EA02230193019B00FB03F0FCF75E
:1083200081FB72B6BFF34F8F4FF46D42CEF2000265
:10833000D168042301F4E061C0F2FA530B43D36027
:10834000BFF34F8FFEE700BFFC45002008B54FF498
:1083500040600421C4F20100FCF778FE4FF49670EF
:10836000FCF760FB4FF44060C4F201000421FCF70D
:108370006FFE5020FCF756FBE9E700BF70B50D4CCF
:108380000026254605E0FCF763FE40F28A20FCF754
:1083900049FB23784FF44060012B4FF00401C4F2F5
:1083A0000100F0D14FF44060C4F20100FCF74EFE32
:1083B0002E70EAE7B845002010B586B0044601A843
:1083C000FCF784FE41F25973029ACDF2B713A3FB76
:1083D00002135B0B03FB04F40094009B2BB1009B86
:1083E000013B0093009B002BF9D106B010BD00BFEC
:1083F00030B4002382B000290193C8BF121809DDF0
:10840000D55CDC0005FA04F4019D01332C438B425A
:108410000194F5D1019802B030BC704710B54FF40B
:10842000C844C4F2000402212046FCF76BFD20463C
:108430000021FCF751FD44F2B853C2F200030122BF
:108440001A7010BD10B584B072B64FF000604FF4D2
:108450008041FCF7BBFB62B600237E4C1A4603F159
:10846000006101F5404101330978402BA1541A46BF
:10847000F5D10023784819464CF24002C0F60002BC
:108480009A1812780133402B0A541946F4D100236C
:10849000724819464CF28002C0F600029A1812780F
:1084A0000133402B0A541946F4D100236C48194675
:1084B0004CF2C002C0F600029A1812780133402B29
:1084C0000A541946F4D1002366481A4603F10061A4
:1084D00001F5414101330978402B11541A46F5D179
:1084E0000023614819464CF24012C0F600029A1867
:1084F00012780133402B0A541946F4D100235B480B
:1085000019464CF28012C0F600029A181278013314
:10851000402B0A541946F4D10023554819464CF211
:10852000C012C0F600029A1812780133402B0A5488
:108530001946F4D100234F481A4603F1006101F5B2
:10854000424101330978402B11541A46F5D1FFF707
:108550006BFEFCF72BFEFCF781FEE37B4FF47A7099
:1085600000FB03F0FFF728FF237B012B00F05D8267
:10857000384BE27A1B7A013B012A00F04A82072B32
:1085800000F23882DFE813F01E02FC01D0017A010C
:108590003A01F0009C00080000243749802223465D
:1085A00000940194029403943448FBF7C9FF3449C2
:1085B0008022234600940194029403943148FBF7EF
:1085C000BFFF314980222346009401940294039412
:1085D0002E48FBF7B5FF2E498022234600940194D4
:1085E000029403942B48FBF7ABFF2B4980222346D0
:1085F00000940194029403942848FBF7A1FF2849B2
:108600008022234600940194029403942548FBF7AA
:1086100097FF2549802223460094019402940394F5
:108620002248FBF78DFF22498022234600940194C3
:10863000029403941F48FBF783FF1F4980222346BF
:1086400000940194029403941C48FBF779FFFCF713
:108650004DF8FEE7FC4500203C490020BC450020C9
:108660003C460020FC4900207C4600207C4900203C
:108670003C4A0020BC490020FC8E000895520008AE
:10868000148F0008E9530008208F00083D550008AA
:108690002C8F000891560008388F0008E557000815
:1086A000448F000839590008508F00088D5A00087F
:1086B0005C8F0008E15B0008088F00087D830008DC
:1086C0000024894980222346009401940294039453
:1086D0008648FBF735FF86498022234600940194A3
:1086E000029403948348FBF72BFF8349802223469F
:1086F00000940194029403948048FBF721FF804981
:108700008022234600940194029403947D48FBF751
:1087100017FF7D498022234600940194029403941C
:108720007A48FBF70DFF7A49802223460094019492
:10873000029403947748FBF703FF7749802223468E
:1087400000940194029403947448FBF7F9FE744971
:108750008022234600940194029403947148FBF70D
:10876000EFFEFBF7C3FFFEE700245F4980222346AC
:1087700000940194029403945C48FBF7E1FE5C4989
:108780008022234600940194029403945948FBF7F5
:10879000D7FE594980222346009401940294039401
:1087A0005648FBF7CDFE564980222346009401949B
:1087B000029403945348FBF7C3FE53498022234697
:1087C00000940194029403945048FBF7B9FE504979
:1087D0008022234600940194029403944D48FBF7B1
:1087E000AFFE4F49802223460094019402940394E3
:1087F0004C48FBF7A5FEFBF779FFFEE700243A495A
:108800008022234600940194029403943748FBF796
:1088100097FE3749802223460094019402940394E2
:108820003448FBF78DFE344980222346009401949E
:10883000029403943148FBF783FE3149802223469A
:1088400000940194029403942E48FBF779FE2E497C
:108850008022234600940194029403942B48FBF752
:108860006FFE2F49802223460094019402940394C2
:108870002C48FBF765FEFBF739FFFEE700241A4999
:108880008022234600940194029403941748FBF736
:1088900057FE1749802223460094019402940394C2
:1088A0001448FBF74DFE144980222346009401949E
:1088B000029403941148FBF743FE1149802223469A
:1088C00000940194029403940E48FBF739FE144976
:1088D0008022234600940194029403941148FBF7EC
:1088E0002FFEFBF703FFFEE7FC8E00089552000801
:1088F000148F0008E9530008208F00083D55000838
:108900002C8F000891560008388F0008E5570008A2
:10891000448F000839590008508F00088D5A00080C
:10892000088F00087D83000800249949802223468F
:1089300000940194029403949648FBF701FE964933
:108940008022234600940194029403949348FBF7F9
:10895000F7FD9349802223460094019402940394E6
:108960009048FBF7EDFD9049802223460094019446
:10897000029403948D48FBF7E3FDFBF7B7FEFEE797
:108980000024834980222346009401940294039496
:108990008048FBF7D5FD804980222346009401944E
:1089A000029403947D48FBF7CBFD7F498022234648
:1089B00000940194029403947C48FBF7C1FDFBF7FB
:1089C00095FEFEE70024724980222346009401941C
:1089D000029403946F48FBF7B3FD7349802223464A
:1089E00000940194029403947048FBF7A9FDFBF7EF
:1089F0007DFEFEE70020022403466D49802201909F
:108A00000290039000946B48FBF79AFDFBF76EFE13
:108A1000FEE7072BEED8DFE813F01300E900A30010
:108A20008B0073005B0043002B0000230093019335
:108A300002930393604980226048FBF781FD97E52C
:108A40000024534980222346009401940294039405
:108A50005B48FBF775FD544980222346009401943E
:108A6000029403945148FBF76BFDFBF73FFEFEE7D2
:108A700000245449802223460094019402940394D4
:108A80005148FBF75DFD484980222346009401943C
:108A9000029403944548FBF753FDFBF727FEFEE7DE
:108AA00000244A49802223460094019402940394AE
:108AB0004548FBF745FD3C4980222346009401943C
:108AC000029403943948FBF73BFDFBF70FFEFEE7EA
:108AD00000243F4980222346009401940294039489
:108AE0003C48FBF72DFD3049802223460094019439
:108AF000029403942D48FBF723FDFBF7F7FDFEE7F7
:108B00000024354980222346009401940294039462
:108B10003248FBF715FD2449802223460094019436
:108B2000029403942148FBF70BFDFBF7DFFDFEE702
:108B300000242B498022234600940194029403943C
:108B40002848FBF7FDFC1849802223460094019435
:108B5000029403941548FBF7F3FCFBF7C7FDFEE70F
:108B600000240F4980222346009401940294039428
:108B70001D48FBF7E5FC0C49802223460094019434
:108B8000029403940948FBF7DBFCFBF7AFFDFEE71B
:108B9000FC8E000895520008148F0008E953000865
:108BA000208F00083D550008088F00087D830008CD
:108BB000688F00084D830008F08E0008F9820008D5
:108BC000355D00085C8F0008F5780008508F0008BC
:108BD000448F000811710008388F0008716A00087E
:108BE0002C8F0008096500081961000800240B4952
:108BF0008022234600940194029403940848FBF7D2
:108C00009FFC084980222346009401940294039417
:108C10000548FBF795FCFBF769FDFEE7148F00089C
:108C2000855E0008088F00087D830008704700BF3C
:108C30000749084A084B9A42BEBF51F8040B42F854
:108C4000040BFFF7F8BF05488047054800470000C0
:108C50008C8F0008000000208C000020D18C0008C0
:108C600041410008FEE7FEE7FEE7FEE7FEE7FEE71C
:108C7000FEE7FEE7FEE7FEE7FEE7FEE7FEE7FEE7CC
:108C8000FEE7FEE7FEE7FEE7FEE7FEE7FEE7FEE7BC
:108C9000FEE7FEE7FEE7FEE7FEE7FEE7FEE7FEE7AC
:108CA000FEE7FEE7FEE7FEE7FEE7FEE7FEE7FEE79C
:108CB000FEE7FEE7FEE7FEE7FEE7FEE7FEE7FEE78C
:108CC000FEE7FEE7FEE7FEE7FEE7FEE7FEE700BFA2
:108CD0004FF48053C4F202031968002241F00101ED
:108CE00019605968CFF6FF020A405A601A680021DD
:108CF00022F0847222F480321A601A6882B022F460
:108D000080221A6058681A4620F4FE0058604FF41A
:108D10001F00986000910191196841F48031196039
:108D200003E0009BB3F5A06F09D0136803F4003390
:108D30000193009B01330093019B002BF1D04FF472
:108D40008053C4F202031B6813F4003308BF01937D
:108D500001D001230193019B012B08D04FF46D43F7
:108D6000CEF200034FF000629A6002B070474FF4F9
:108D70000052C4F2020211684FF4805341F0100116
:108D800011601168C4F2020321F003011160106840
:108D9000194640F0020010605A685A605A685A60DA
:108DA0005A6842F480625A605A6822F47C125A600F
:108DB0005A6842F4E8125A601A6842F080721A60E7
:108DC0000A684FF480539201C4F20203F8D559683F
:108DD0001A4621F003015960596841F002015960B7
:108DE000536803F00C03082BFAD1B7E710B5034C16
:108DF00014B1AFF3008010BD204610BD000000008C
:108E000008B5084B04461BB10021AFF3008001E018
:108E100000F00CF8044B1868836A03B198472046A9
:108E200000F04AF8000000007C8F000870B5094B84
:108E3000094C0025E41AA41003EB840602E07259E1
:108E40009047013C043D002CF9D1BDE8704000F092
:108E50003BB800BF880000208C00002070B50E4B8E
:108E60000E4D0024ED1AAD101E4603E056F82420E6
:108E700090470134AC42F9D100F020F8084D094B7D
:108E80000024ED1AAD101E4603E056F8242090474A
:108E90000134AC42F9D170BD840000208400002070
:108EA00088000020840000208218034601E003F8B7
:108EB000011B9342FBD17047FEE700BFF8B500BF2E
:108EC000F8BC08BC9E467047F8B500BFF8BC08BCAB
:108ED0009E46704749444C450000000003000600D0
:108EE0000C0018001E0024003C0096002C0100001D
:108EF0004175746F5265626F6F74000043414E5F3D
:108F00004D73675F3100000043414E5F52784D73EF
:108F10006700000043414E5F4D73675F3200000001
:108F200043414E5F4D73675F3300000043414E5F26
:108F30004D73675F3400000043414E5F4D73675FC0
:108F40003500000043414E5F4D73675F36000000FF
:108F500043414E5F4D73675F3700000043414E5FF2
:108F60004D73675F380000004C45445F424C494EEA
:108F70004B5F4552524F520043000000200000203A
:048F800000000000ED
:088F8400BCB1FF7F01000000F9
:108F8C00AAAAAAAAF8430000FFFFFFFF02040608E2
:108F9C000000000001020304010203040607080993
:108FAC0000000000000000000000000000000000B5
:108FBC0000000000000000000000000000000000A5
:108FCC00788F000800000000000000000000000086
:108FDC000000000000000000000000000000000085
:108FEC000000000000000000000000000000000075
:108FFC000000000000000000000000000000000065
:0C900C000000000011410008ED400008C9
:04000005080041406E
:00000001FF
