:020000040800F2
:100000000050002085430008790600088506000896
:100010008D060008950600089D06000800000000F7
:10002000000000000000000000000000A50600081D
:10003000B106000800000000BD060008C90600085F
:10004000CD430008CF430008D1430008D343000844
:10005000D5430008D7430008D9430008DB43000814
:10006000DD430008DF430008E1430008E3430008E4
:10007000E5430008E7430008E9430008EB430008B4
:10008000ED430008EF430008F1430008F343000884
:10009000D5060008F7430008F9430008FB430008B1
:1000A000FD430008FF430008014400080344000822
:1000B0000544000807440008094400080B440008F0
:1000C0000D4400080F4400081144000813440008C0
:1000D0001544000817440008194400081B44000890
:1000E0001D4400081F440008E106000823440008DE
:1000F0002544000827440008294400082B44000830
:100100002D4400082F4400083144000833440008FF
:100110003544000837440008394400083B440008CF
:100120003D4400083F44000841440008434400089F
:1001300010B5054C237833B9044B13B10448AFF321
:1001400000800123237010BD540500200000000032
:100150002463000808B5064B1BB106480649AFF3F7
:1001600000800648036813B1054B03B1984708BDEA
:1001700000000000246300085805002054050020FA
:1001800000000000154B002B08BF134B9D46A3F544
:10019000803A00218B460F461348144A121A05F084
:1001A0008DFF0F4B002B00D098470E4B002B00D03B
:1001B00098470020002104460D4600200C490022EB
:1001C000002305F0D5FE05F051FF2046294600F03A
:1001D00035FA05F025FF00BF0000080000500020A0
:1001E000000000000000000054050020560600201A
:1001F0004160000880B582B000AF4FF080504FF0F2
:10020000010105F07DFD4FF040004FF0010105F0C8
:100210004DFD4FF010004FF0010105F047FD4FF08C
:1002200020004FF0010105F041FD4FF04803FB7144
:100230004FF00103BB804FF00203BB7107F10403D1
:100240004FF48050C4F20100194604F0BBFD4FF09A
:100250004803FB714FF48053BB804FF00203BB7126
:1002600007F104034FF4A050C4F20100194604F052
:10027000A9FD4FF01003FB714FF0E003BB804FF07E
:100280000203BB7107F104034FF4C050C4F2010034
:10029000194604F097FD4FF4802004F0DFFC40F293
:1002A0009853C2F200034FF480221A6040F2985330
:1002B000C2F200034FF008025A7140F29853C2F2A2
:1002C00000034FF001029A7140F29850C2F2000010
:1002D00004F09EFB07F10807BD4680BD80B500AF66
:1002E0004FF0000005F038FB4FF400004FF0010123
:1002F00005F006FD80BD00BF80B500AF40F2805321
:10030000C2F200034FF003021A604FF001004FF0F9
:10031000010105F093F880BD80B582B000AF40F2D6
:100320002C63C2F200037B607B689B7A002B07D0B2
:1003300040F28053C2F200034FF005021A6006E05B
:1003400040F28053C2F200034FF001021A6004F041
:1003500079F807F10807BD4680BD00BF80B582B0BF
:1003600000AF4FF4A06004F03BFA4FF014033B7170
:100370004FF002037B714FF00003BB714FF001039C
:10038000FB7107F10403184604F03EFA4FF02A030C
:100390003B714FF001037B7107F10403184604F031
:1003A00033FA07F10807BD4680BD00BF80B582B0B3
:1003B00000AF0346FB71FB79002B08D04FF480504F
:1003C000C4F201004FF4005104F050FE07E04FF476
:1003D0008050C4F201004FF4005104F039FE07F1DF
:1003E0000807BD4680BD00BF90B583B000AF4FF099
:1003F0000003FB804FF00003BB804FF48050C4F239
:1004000001004FF0010104F0CBFD0346FB804FF4E7
:10041000A050C4F201004FF4805104F0C1FD034626
:10042000BB8040F29053C2F200034FF004021A70F6
:10043000FB88DAB240F29053C2F200035A70BB88D4
:10044000DAB240F29053C2F200039A704FF4C050F7
:10045000C4F201004FF0400104F0A2FD0346DCB2FB
:100460004FF4C050C4F201004FF0200104F098FD99
:1004700003464FEA4303DBB222461343DBB2DAB250
:1004800040F29053C2F20003DA7040F20003C2F26D
:1004900000034FF000021A704FF0810040F29051BB
:1004A000C2F200014FF0050203F01CFF4FF0010003
:1004B00002F064FFFB88DAB2BB884FEA4303DBB289
:1004C0001343DBB2DBB2184607F10C07BD4690BD03
:1004D00080B584B000AF02460B46FA71BB714FF095
:1004E00000033B734FF000037B73FB793B73BB79D5
:1004F0007B7340F20003C2F200034FF000021A7057
:1005000007F10C034FF0810019464FF0020203F08F
:10051000E9FE4FF0010002F031FF07F11007BD4680
:1005200080BD00BF80B584B000AF4FF2E873C1F664
:10053000FF731B68FB604FF2EC73C1F6FF731B681F
:10054000BB604FF2F073C1F6FF731B687B60FA6803
:100550007B68D318FB60FB68002B0BD0F868074959
:100560004FF0080200F00EF8B86805494FF0040299
:1005700000F008F807F11007BD4680BD0600002016
:100580001600002080B487B000AFF860B960134651
:10059000FB714FF00003FB754FF00003FB7531E07A
:1005A000FB684FEA1373092B0DD8FB7D4FEA430319
:1005B000BA68D318FA684FEA1272D2B202F1300266
:1005C000D2B21A700CE0FB7D4FEA4303BA68D3182D
:1005D000FA684FEA1272D2B202F13702D2B21A703E
:1005E000FB684FEA0313FB60FB7D4FEA430303F113
:1005F0000103BA68D3184FF000021A70FB7D03F1B3
:100600000103FB75FA7DFB799A42C9D307F11C07F8
:10061000BD4680BC704700BF80B483B000AF786037
:1006200003E07B6803F1FF337B607B68002BF8D12C
:1006300007F10C07BD4680BC704700BF80B500AF16
:10064000FFF7D8FDFFF78AFEFFF748FE02F07EF9BC
:1006500000E000BF40F28053C2F200031B68052B8C
:10066000F7D140F20003C2F200031B78DBB2002B8B
:10067000EFD0FFF7B9FEECE780B400AFBD4680BC19
:10068000704700BF80B400AFFEE700BF80B400AF8A
:10069000FEE700BF80B400AFFEE700BF80B400AF4C
:1006A000FEE700BF80B400AFBD4680BC704700BF0E
:1006B00080B400AFBD4680BC704700BF80B400AFBF
:1006C000BD4680BC704700BF80B400AFBD4680BC53
:1006D000704700BF80B500AF00F07AF880BD00BF62
:1006E00080B500AF4FF4802004F0B8FA80BD00BFA1
:1006F00080B582B000AF4FF0010040F2A451C2F2C9
:10070000000103F017FE40F2A453C2F200035B782D
:10071000002B03D14FF00003FB7102E04FF0010307
:10072000FB7140F2A453C2F200031B78022B18D0D5
:10073000032B2BD0012B34D1FB79002B08D04FF4A5
:10074000C050C4F201004FF0400104F081FC28E0E9
:100750004FF4C050C4F201004FF0400104F086FC99
:100760001FE0FB79002B08D04FF4C050C4F2010009
:100770004FF0200104F06CFC13E04FF4C050C4F2C1
:1007800001004FF0200104F071FC0AE040F2A45394
:10079000C2F200035A7840F29053C2F200031A7179
:1007A00000BF4FF001004FF4405102F04FFD07F140
:1007B0000807BD4680BD00BF80B400AF40F2000313
:1007C000C2F200034FF001021A70BD4680BC7047B0
:1007D00080B58AB000AF4FF000037B6245F644431A
:1007E000C4F200031B689AB240F2AE53C2F2000397
:1007F0001A8040F2AE53C2F200031B889BB203F48E
:10080000004240F25063C2F200031B881340002BE9
:1008100001D002F0C9F840F2AE53C2F200031B88C7
:100820009BB203F4806240F25063C2F200031B8863
:100830001340002B0CD045F64443C4F200034FF69E
:10084000FF321A6040F25C03C2F200035B68984713
:1008500040F2AE53C2F200031B889BB203F4005275
:1008600040F25063C2F200031B881340002B06D0F5
:1008700045F64443C4F200034DF6FF721A6040F29D
:10088000AE53C2F200031B889BB203F4805240F2C5
:100890005063C2F200031B881340002B0AD045F6B8
:1008A0004443C4F200034EF6FF721A604FF000009A
:1008B00000F058FD40F2AE53C2F200031B889BB219
:1008C00003F4006240F25063C2F200031B8813403D
:1008D000002B28D040F2F003C2F200031B78DBB2F9
:1008E000002B15D040F28053C2F200031B68052B89
:1008F0000ED14FF44063C4F201034FF44062C4F2DE
:100900000102D26842F08002DA6000F00BFC03E0E2
:100910004FF0020000F026FD45F64443C4F2000308
:100920004FF2FF721A6040F2AE53C2F200031B880E
:100930009BB203F4007240F25063C2F200031B88C2
:100940001340002B14D045F64443C4F200034FF685
:10095000FF521A6040F27053C2F200031B78DBB200
:1009600003F10103DAB240F27053C2F200031A70CD
:1009700040F2AE53C2F200031B889BB203F48072B4
:1009800040F25063C2F200031B881340002B00F0BA
:10099000C88045F64443C4F200034FF6FF621A6074
:1009A00045F64843C4F200031B689BB21BB2002B00
:1009B00080F2AC8040F27453C2F200031B6803F172
:1009C000010240F27453C2F200031A6040F2745301
:1009D000C2F200031B68032B40F29F8045F64043A0
:1009E000C4F200031B689BB203F00803002B40F025
:1009F000948045F64043C4F200031B689BB21A463C
:100A000040F27853C2F200031A604FF000037B6299
:100A100015E07B6A4FEA830303F1804303F5B84393
:100A20001B689BB21A467B6A4FEA830307F12801D1
:100A3000CB1843F8242C7B6A03F101037B627B6AA9
:100A4000072BE6D940F27853C2F200031B6843F04B
:100A5000010240F27853C2F200031A6045F64043A7
:100A6000C4F2000340F27852C2F20002126892B25D
:100A70001A6040F27853C2F200031B6823F00102AF
:100A800040F27853C2F200031A6045F64043C4F2C4
:100A9000000340F27852C2F20002126892B21A6069
:100AA00000BF45F64443C4F200031B689BB203F445
:100AB0008063002BF5D045F64443C4F200034FF6A3
:100AC000FF321A604FF000037B6214E07B6A4FEA4A
:100AD000830303F1804303F5B8437A6A4FEA820245
:100AE00007F128018A1852F8242C92B21A607B6A06
:100AF00003F101037B627B6A072BE7D940F2745351
:100B0000C2F200034FF000021A6006E040F2745394
:100B1000C2F200034FF000021A604FF0070000F02D
:100B200021FC07F12807BD4680BD00BF80B500AF9E
:100B3000FFF7F8FC40F24C63C2F200031B684FF071
:100B400000029A7200F08EFA03F0ACFB40F2805380
:100B5000C2F200034FF000021A6080BD80B500AF02
:100B600040F24C63C2F200031B684FF000029A721D
:100B700040F24C63C2F200031B684FF00002DA72CD
:100B800040F24C63C2F200031A6846F27823C0F6C2
:100B90000003DB7953724FF0000002F095FA4FF03A
:100BA00000004FF4007102F0D9FA4FF000004FF04E
:100BB000100102F011FB4FF000004FF0180102F09D
:100BC000C1FE4FF000004FF0580102F097FE4FF0C9
:100BD000000002F083FC40F25C03C2F2000393F8D1
:100BE0002C304FF00000194602F068FF4FF0000073
:100BF00002F0F0FB4FF001004FF4C06102F0AEFADA
:100C00004FF001004FF4807102F078FE4FF00100C8
:100C10004FF4A07102F096FE4FF001004FF040013A
:100C200002F0F4FE4FF001004FF0020102F046FF27
:100C30004FF001004FF4405102F008FB4FF001006B
:100C40004FF0200102F0C8FA4FF0000001F034FE2E
:100C500040F28053C2F200034FF001021A6080BDDF
:100C600080B483B000AF40F22C63C2F200037B601B
:100C70007B689B7A002B06D040F28053C2F20003BF
:100C80004FF005021A6007F10C07BD4680BC7047A3
:100C900080B400AF40F28053C2F200034FF0040270
:100CA0001A60BD4680BC704780B582B000AF40F28C
:100CB000B453C2F200035B78002B03D14FF0000362
:100CC000FB7102E04FF00103FB7140F2B453C2F23A
:100CD00000031B78022B18D0032B2BD0012B34D10F
:100CE000FB79002B08D04FF4C050C4F201004FF044
:100CF000400104F0ADF928E04FF4C050C4F2010007
:100D00004FF0400104F0B2F91FE0FB79002B08D04E
:100D10004FF4C050C4F201004FF0200104F098F9E4
:100D200013E04FF4C050C4F201004FF0200104F072
:100D30009DF90AE040F2B453C2F200035A7840F23F
:100D40009053C2F200031A7100BF07F10807BD46B5
:100D500080BD00BF80B400AFBD4680BC704700BFFF
:100D600080B584B000AF0346FB714FF00003FB6019
:100D7000FB79062B2DD140F24C63C2F200031B68B5
:100D80001B7803F07F03012B23D140F24C63C2F2A6
:100D900000031B685B79002B1BD140F24C63C2F24D
:100DA00000031B689B78222B05D140F67173C0F6B7
:100DB0000003FB6031E040F24C63C2F200031B68A9
:100DC0009B78212B29D140F69973C0F60003FB6074
:100DD00023E040F24C63C2F200031B681B7803F06F
:100DE0007F03212B1AD1FB79032B02D0092B06D0CC
:100DF00012E041F22903C0F60003FB600EE040F66A
:100E00005D63C0F60003FB6040F27C53C2F2000356
:100E10004FF009021A7001E000E000BFFB68002BF0
:100E200002D14FF0020314E040F24C63C2F200031F
:100E30001B68FA689A6140F24C63C2F200031B68B7
:100E40004FF000025A82FB684FF0000098474FF0C5
:100E50000003184607F11007BD4680BD80B483B07B
:100E600000AF0346FB80FB88002B0AD140F24C63A5
:100E7000C2F200031B684FF040021A824FF00003D9
:100E800003E040F2B453C2F20003184607F10C0726
:100E9000BD4680BC704700BF80B582B000AF03463E
:100EA000FB7140F24C63C2F200031B681B7803F035
:100EB0007F03212B06D1FB790B2B03D100F09CF88B
:100EC000034601E04FF00203184607F10807BD464C
:100ED00080BD00BF80B582B000AF0346FB80FB88B9
:100EE000184640F2B001C2F2000100F0C9FE03460C
:100EF000184607F10807BD4680BD00BF80B582B027
:100F000000AF0346FB80FB88184640F2B801C2F2EE
:100F1000000100F0B5FE0346184607F10807BD467C
:100F200080BD00BF80B584B000AF0346FB8040F2B7
:100F30004C63C2F200031B68DB78FB73FB7B042B62
:100F400002D94FF000030DE0FB7B4FEAC30240F2F1
:100F5000D003C2F20003D318FA881046194600F0F5
:100F60008FFE0346184607F11007BD4680BD00BF3F
:100F700080B582B000AF0346FB80FB88184640F284
:100F8000C001C2F2000100F07BFE0346184607F1E3
:100F90000807BD4680BD00BF80B582B000AF0346E4
:100FA000FB80FB88184640F2C801C2F2000100F045
:100FB00067FE0346184607F10807BD4680BD00BF1F
:100FC00080B483B000AF02460B46FA71BB71BB79A7
:100FD000002B02D04FF0020307E0FB79002B02D078
:100FE0004FF0020301E04FF00003184607F10C0731
:100FF000BD4680BC704700BF80B483B000AF40F2F4
:101000004C63C2F200031B68DB78FB71FA7940F293
:10101000B053C2F200031A604FF00003184607F104
:101020000C07BD4680BC704780B483B000AF034658
:10103000FB80FB88002B0AD140F24C63C2F2000314
:101040001B684FF001021A824FF0000303E040F2E8
:10105000B053C2F20003184607F10C07BD4680BC2E
:10106000704700BF80B582B000AF4FF00100FFF7BE
:101070009DF94FF00103FB8045F64043C4F20003A5
:10108000FA881A6040F25063C2F200034FF0000287
:101090001A8045F64043C4F2000340F25062C2F2A7
:1010A000000212881A6045F64443C4F200034FF070
:1010B00000021A6040F25063C2F200034FF4E052A3
:1010C0001A8045F64043C4F2000340F25062C2F277
:1010D000000212881A604FF00003184607F1080753
:1010E000BD4680BD80B500AF45F64043C4F2000365
:1010F0004FF001021A6045F64443C4F200034FF07A
:1011000000021A604FF00000FFF750F945F6404327
:10111000C4F200034FF003021A604FF000031846B8
:1011200080BD00BF80B485B000AF4FF00003FB600E
:101130004FF00003BB604FF000033B6045F64043B7
:10114000C4F200031B68FB804FF00003FB6014E057
:10115000FB684FEA830303F1804303F5B8431B6840
:101160009BB2194640F2FC53C2F20003FA6843F8FE
:101170002210FB6803F10103FB60FB68072BE7D932
:10118000FB8843F48063FB8045F64043C4F20003D0
:10119000FA881A60FB8843F00103FB8045F6404360
:1011A000C4F20003FA881A60FB8823F00103FB8075
:1011B00045F64043C4F20003FA881A6000BF45F6C2
:1011C0004443C4F200031B689BB203F48063002B0A
:1011D000F5D045F64443C4F200034FF6FF321A60DF
:1011E0004FF00003FB6013E0FB684FEA830303F159
:1011F000804303F5B84340F2FC52C2F20002F968A2
:1012000052F8212092B21A60FB6803F10103FB60DF
:10121000FB68072BE8D9FB8843F00803FB8045F601
:101220004043C4F20003FA881A6045F64043C4F212
:1012300000031B68FB80FB8843F00403FB8045F63A
:101240004043C4F20003FA881A604FF4E043C4F24A
:1012500000031B683B604FF4E043C4F200031B68CB
:10126000BB60BB6823F00303BB60BB6843F00103B2
:10127000BB604FF4E043C4F20003BA681A604FF455
:101280006D43CEF200034FF46D42CEF200021269BC
:1012900042F004021A6145F64443C4F200031B689D
:1012A0009BB203F48053002B0DD130BF4FF46D433C
:1012B000CEF200034FF46D42CEF20002126922F02A
:1012C00004021A6128E045F64443C4F200034EF6D6
:1012D000FF721A6045F64043C4F200031B68FB80AE
:1012E000FB8823F00803FB8045F64043C4F200036B
:1012F000FA881A604FF4E043C4F200033A681A60B7
:101300004FF46D43CEF200034FF46D42CEF2000273
:10131000126922F004021A6107F11407BD4680BC6D
:10132000704700BF80B582B000AF45F64043C4F2BD
:1013300000031B68FB80FB8823F00403FB8045F659
:101340004043C4F20003FA881A60FEF7E5FF45F651
:101350004043C4F200034FF43F421A6007F108070C
:10136000BD4680BD80B584B000AF0346FB714FF42D
:101370004063C4F201034FF44062C4F20102D26838
:1013800022F08002DA60FB79072B05D040F2F85397
:10139000C2F20003FA791A7040F2F853C2F2000365
:1013A0001B78DBB2052B00F2BA8001A252F823F0C1
:1013B000C9130008FB1300081D1400083B140008A3
:1013C00077140008B514000840F28453C2F20003F9
:1013D0001B68002B09D1FFF7A5FF40F2F853C2F2BA
:1013E00000034FF006021A70A5E040F2F853C2F273
:1013F00000034FF005021A709DE0FFF793FF40F2E3
:10140000F853C2F200034FF004021A7040F2845302
:10141000C2F200034FF001021A608CE040F2F85370
:10142000C2F200034FF002025A7040F2F853C2F2C7
:1014300000034FF003021A707DE040F2F853C2F24D
:1014400000035B78DBB203F1FF33DAB240F2F8530A
:10145000C2F200035A7040F2F853C2F200035B7804
:10146000DBB2002B64D140F2F853C2F200034FF01C
:1014700004021A705CE045F64043C4F200031B68A6
:10148000FB81FB8943F01003FB8145F64043C4F226
:101490000003FA891A6040F2F853C2F200034FF0D9
:1014A00005021A7040F2F853C2F200034FF00A022C
:1014B0005A7040E040F2F853C2F200035B78DBB2AE
:1014C00003F1FF33DAB240F2F853C2F200035A706C
:1014D00040F2F853C2F200035B78DBB2002B29D153
:1014E00045F64043C4F200031B68FB81FB8923F0EF
:1014F0001003FB8145F64043C4F20003FA891A60E9
:1015000040F2F853C2F200034FF006021A7040F2A4
:101510008453C2F200034FF000021A600AE040F266
:10152000F853C2F200034FF006021A7000BF02E047
:1015300000BF00E000BF07F11007BD4680BD00BF3F
:1015400080B582B000AF0346FB80FB88002B0AD138
:1015500040F24C63C2F200031B684FF001021A8292
:101560004FF000030DE040F24863C2F200031B6835
:101570001B68984740F24C63C2F200031B6803F1FA
:101580000A03184607F10807BD4680BD80B500AFC5
:1015900040F24C63C2F200031B68DA7840F2580351
:1015A000C2F200035B789A4225D840F24C63C2F243
:1015B00000031B689B78002B1DD140F24C63C2F2E4
:1015C00000031B689B88002B15D140F24C63C2F2CC
:1015D00000031A6840F24C63C2F200031B68DB7818
:1015E000937240F24863C2F200031B685B6898473D
:1015F0004FF0000301E04FF00203184680BD00BF2A
:1016000080B582B000AF0346FB80FB88002B0AD177
:1016100040F24C63C2F200031B684FF001021A82D1
:101620004FF000030DE040F24863C2F200031B6874
:101630009B68984740F24C63C2F200031B6803F1B9
:101640000C03184607F10807BD4680BD80B582B07F
:1016500000AF40F22463C2F200031B689A6940F2B3
:101660004C63C2F200031B68597940F24C63C2F22A
:1016700000031B68DB780846194690470346FB7158
:1016800040F24C63C2F200031B689B7A002B3AD0F5
:10169000FB79002B0FD140F24C63C2F200031B68B0
:1016A0001B79002B07D140F24C63C2F200031B6888
:1016B0009B78002B02D04FF0020326E0FB79002B31
:1016C00021D140F24863C2F200031B68DB689847EF
:1016D00040F24C63C2F200031A6840F24C63C2F25B
:1016E00000031B685B79D37240F24C63C2F20003C3
:1016F0001A6840F24C63C2F200031B68DB78137374
:101700004FF0000301E04FF00203184607F108070D
:10171000BD4680BD80B584B000AF0346FB80FB882A
:10172000002B0AD140F24C63C2F200031B684FF059
:1017300002021A824FF00003C5E040F21C63C2F2BD
:1017400000034FF000021A8040F24C63C2F2000323
:101750001B681B7803F07F03002B47D140F24C63DA
:10176000C2F200031B685B7AFB73FB7B03F0200370
:10177000002B0DD040F21C63C2F200031B7843F033
:101780000203DAB240F21C63C2F200031A700CE0EA
:1017900040F21C63C2F200031B7823F00203DAB2AA
:1017A00040F21C63C2F200031A70FB7B03F040039B
:1017B000002B0DD040F21C63C2F200031B7843F0F3
:1017C0000103DAB240F21C63C2F200031A706FE048
:1017D00040F21C63C2F200031B7823F00103DAB26B
:1017E00040F21C63C2F200031A7061E040F24C63E5
:1017F000C2F200031B681B7803F07F03012B04D1A6
:1018000040F21C63C2F200035DE040F24C63C2F29E
:1018100000031B681B7803F07F03022B45D140F2C5
:101820004C63C2F200031B685B79BB73BB7B03F0A4
:101830000F037B73BB7B5BB2002B1ADA7B7B4FEA17
:10184000830303F1804303F5B8431B689BB203F0A5
:101850003003102B2CD140F21C63C2F200031B7822
:1018600043F00103DAB240F21C63C2F200031A70C3
:101870001EE07B7B4FEA830303F1804303F5B8430B
:101880001B689BB203F44053B3F5805F10D140F264
:101890001C63C2F200031B7843F00103DAB240F28A
:1018A0001C63C2F200031A7002E04FF000030AE06A
:1018B00040F24863C2F200031B681B69984740F27C
:1018C0001C63C2F20003184607F11007BD4680BD35
:1018D00090B587B000AF40F24C63C2F200031B68C2
:1018E0001B7803F07F033B613B69002B11D140F271
:1018F0004C63C2F200031A6840F24C63C2F2000368
:101900001B685B7A23F02003DBB253724FF00003B5
:10191000F1E03B69022B40F0EC8040F24C63C2F2F4
:1019200000031B685B88002B07D140F24C63C2F2B6
:1019300000031B681B79002B02D04FF00203DAE092
:1019400040F25803C2F20003FB6040F24C63C2F263
:1019500000031B685B79BB60BB6823F080037B607E
:101960007B683B6040F24C63C2F200031B685B790A
:10197000DBB25BB2002B0CDA3B684FEA830303F166
:10198000804303F5B8431B689BB203F030037B61CF
:101990000BE03B684FEA830303F1804303F5B84350
:1019A0001B689BB203F440537B61FB681B781A46AB
:1019B0007B689A420AD97B69002B07D040F24C63BE
:1019C000C2F200031B689B7A002B02D14FF0020386
:1019D00091E0BB6803F08003002B19D03B684FEA0D
:1019E000830303F1804303F5B8431B689BB203F004
:1019F0003003102B73D13B68DBB2184601F00EFFA9
:101A00003B68DBB218464FF0300101F0E5FB66E0C1
:101A10003B684FEA830303F1804303F5B8431B6837
:101A20009BB203F44053B3F5805F58D13B68002B61
:101A30002ED13B68DAB240F25C03C2F2000393F8A5
:101A40002C301046194602F039F83B684FEA830300
:101A500003F1804303F5B8431B689BB223F4804332
:101A600023F070039CB284F480539CB284F400533E
:101A70009CB23B684FEA830303F1804202F5B8420F
:101A800048F28003CFF6FF7323439BB2136026E036
:101A90003B68DBB2184601F091FE3B684FEA8303D6
:101AA00003F1804303F5B8431B689BB223F48043E2
:101AB00023F070039CB284F480539CB284F40053EE
:101AC0009CB23B684FEA830303F1804202F5B842BF
:101AD00048F28003CFF6FF7323439BB2136040F2BA
:101AE0004863C2F200031B685B6998474FF000032C
:101AF00001E04FF00203184607F11C07BD4690BDF8
:101B000090B585B000AF40F24C63C2F200031B6891
:101B10005B79BB60BB6823F080037B607B683B60C4
:101B200040F24C63C2F200031B685B79DBB25BB22C
:101B3000002B0CDA3B684FEA830303F1804303F583
:101B4000B8431B689BB203F03003FB600BE03B68BB
:101B50004FEA830303F1804303F5B8431B689BB24C
:101B600003F44053FB6040F25803C2F200031B78B9
:101B70001A463B689A4212D940F24C63C2F2000303
:101B80001B685B88002B0AD1FB68002B07D040F252
:101B90004C63C2F200031B689B7A002B02D14FF00A
:101BA00002034CE0BB6803F08003002B1FD03B68AE
:101BB0004FEA830303F1804303F5B8431B689BB2EC
:101BC00023F4E04323F040039CB284F010039CB262
:101BD0003B684FEA830303F1804202F5B84248F2C2
:101BE0008003CFF6FF7323439BB213601EE03B6874
:101BF0004FEA830303F1804303F5B8431B689BB2AC
:101C000023F4804323F070039CB284F480539CB28D
:101C10003B684FEA830303F1804202F5B84248F281
:101C20008003CFF6FF7323439BB2136040F24863F7
:101C3000C2F200031B689B6998474FF000031846E7
:101C400007F11407BD4690BD80B500AF40F24C636C
:101C5000C2F200031A6840F24C63C2F200031B6830
:101C60005B7A43F02003DBB2537240F24863C2F266
:101C700000031B68DB6998474FF00003184680BDDE
:101C800080B485B000AF03463960FB8040F24C63FE
:101C9000C2F200031B685B8AFB60FB88002B0ED13D
:101CA00040F24C63C2F200031B683A689188FA68FC
:101CB00092B28A1A92B21A824FF0000303E03B6894
:101CC0001A68FB68D318184607F11407BD4680BC94
:101CD000704700BF80B584B000AF40F24C63C2F2E1
:101CE00000031B6803F11003BB60BB681B887B60AB
:101CF000BB689B68002B2FD07B68002B2CD0BB6867
:101D00009B88FB60FA687B689A4201D97B68FB601C
:101D1000BB689B68FA6892B2104698473860BB6807
:101D20001A88FB689BB2D31A9AB2BB681A80BB6848
:101D30005A88FB689BB2D3189AB2BB685A804FF09E
:101D4000000001F043FE03461A46FB689BB2386868
:101D500011461A4601F022F9BB681B88002B13D0EC
:101D600040F25263C2F200034FF440521A804FF027
:101D700000004FF0000101F049FE40F25463C2F24E
:101D800000034FF030021A80BB681A88BB689B883A
:101D90009A4208D340F24C63C2F200031B684FF032
:101DA00003021A7230E0BB681B88002B08D040F297
:101DB0004C63C2F200031B684FF005021A7223E065
:101DC000BB681B88002B1FD140F24C63C2F200039A
:101DD0001B684FF006021A7245F65043C4F2000326
:101DE0001B689BB21A4643F20203C2F20003D318E7
:101DF0004FEA43034FF000021A6040F25463C2F20C
:101E000000034FF030021A8007F11007BD4680BD75
:101E100080B586B000AF40F24C63C2F200031B688D
:101E200003F11003FB60FB681B88BB6040F24C634E
:101E3000C2F200031B681B7A7B61BB68002B37D1A1
:101E40007B69042B34D140F28853C2F200031B7823
:101E5000012B22D145F65043C4F200031B689BB20C
:101E60001A4643F20203C2F20003D3184FEA4303B7
:101E70004FF000021A6040F25463C2F200034FF0C8
:101E800030021A804FF004037B6140F28853C2F2A3
:101E900000034FF000021A7056E04FF007037B6119
:101EA00040F25463C2F200034FF010021A804BE07C
:101EB000FB689B883B61BA683B699A4202D84FF045
:101EC000040301E04FF002037B613A69BB689A4268
:101ED00001D9BB683B61FB689B683A6992B21046C6
:101EE000984778604FF0000001F052FD03461A4613
:101EF0003B699BB2786811461A4601F00BF83B69C2
:101F00009BB24FF00000194601F080FDFB681A8873
:101F10003B699BB2D31A9AB2FB681A80FB685A8855
:101F20003B699BB2D3189AB2FB685A8040F2546363
:101F3000C2F200034FF030021A8040F25263C2F244
:101F400000034FF440521A8040F24C63C2F2000387
:101F50001B687A69D2B21A7207F11807BD4680BDB4
:101F600080B584B000AF4FF00203FB7340F24C63C6
:101F7000C2F200031B685B787B6040F24C63C2F2E4
:101F800000031B681B7803F07F03002B76D17B686E
:101F9000092B04D1FFF7FAFA0346FB739EE07B6836
:101FA000052B29D140F24C63C2F200031B68DB7899
:101FB000DBB25BB2002B17DB40F24C63C2F20003D2
:101FC0001B689B78002B0FD140F24C63C2F20003D8
:101FD0001B689B88002B07D140F24C63C2F20003C0
:101FE0001B689B7A002B03D04FF00803BB60AEE068
:101FF0004FF00003FB7371E07B68032B18D140F2B4
:102000004C63C2F200031B68DB78012B0CD140F259
:102010004C63C2F200031B689B88002B04D1FFF7BE
:1020200013FE0346FB7359E04FF00203FB7356E0C7
:102030007B68012B52D140F24C63C2F200031B6853
:10204000DB78012B16D140F24C63C2F200031B680F
:102050009B88002B0ED140F24C63C2F200031B6838
:102060005B7A03F02003002B04D0FFF731FC03461A
:10207000FB7334E04FF00203FB732FE040F24C633C
:10208000C2F200031B681B7803F07F03012B07D10A
:102090007B680B2B23D1FFF7D9FA0346FB731EE0B5
:1020A00040F24C63C2F200031B681B7803F07F030D
:1020B000022B0FD17B68012B04D1FFF709FC0346EB
:1020C000FB730CE07B68032B09D1FFF719FD034676
:1020D000FB7304E04FF00203FB7300E000BFFB7BE7
:1020E000002B12D040F22463C2F200031B685B692C
:1020F0007A68D2B2104698470346FB73FB7B032BEA
:1021000003D14FF00903BB6021E0FB7B002B03D020
:102110004FF00803BB601AE04FF00603BB6045F6C2
:102120005043C4F200031B689BB21A4643F20203F9
:10213000C2F20003D3184FEA43034FF000021A60C3
:1021400040F25463C2F200034FF030021A8040F2B2
:102150004C63C2F200031B68BA68D2B21A7200BFA5
:1021600007F11007BD4680BD80B58AB000AF40F2D0
:102170004C63C2F200031B685B78BB614FF0000345
:102180007B624FF000037B61BB69062B33D140F2C9
:102190004C63C2F200031B681B7803F07F03002B23
:1021A00040F03C8140F24C63C2F200031B689B7814
:1021B000FB74FB7C012B07D140F22463C2F20003C5
:1021C0001B68DB697B6229E1FB7C022B07D140F2B3
:1021D0002463C2F200031B681B6A7B621EE1FB7C66
:1021E000032B40F01B8140F22463C2F200031B6802
:1021F0005B6A7B6212E1BB69002B40F0B58040F264
:102200004C63C2F200031B685B88002B40F0AC807B
:1022100040F24C63C2F200031B68DB88022B40F0E3
:10222000A38040F24C63C2F200031B681B79002BB1
:1022300040F09A8040F24C63C2F200031B681B78A6
:1022400003F07F03002B0DD140F24C63C2F2000378
:102250001B689B88002B05D141F21573C0F6000363
:102260007B62DAE040F24C63C2F200031B681B7829
:1022700003F07F03012B22D140F22463C2F200035A
:102280001B689A6940F24C63C2F200031B685B79D9
:1022900018464FF0000190470346002B40F0BD80E8
:1022A00040F24C63C2F200031B689B7A002B00F0E3
:1022B000B48041F21573C0F600037B62ADE040F2DA
:1022C0004C63C2F200031B681B7803F07F03022BF0
:1022D00040F0A38040F24C63C2F200031B685B79BC
:1022E00003F00F03FB6040F24C63C2F200031B6873
:1022F0005B7903F07003BB6040F24C63C2F20003F1
:102300001B685B79DBB25BB2002B0CDAFB684FEA2F
:10231000830303F1804303F5B8431B689BB203F0CA
:102320003003FB610BE0FB684FEA830303F180435A
:1023300003F5B8431B689BB203F44053FB6140F2C2
:102340005803C2F200031B781A46FB689A4264D90C
:10235000BB68002B61D1FB69002B5ED041F2157385
:10236000C0F600037B6258E0BB69082B0FD140F236
:102370004C63C2F200031B681B7803F07F03002B41
:102380004CD141F24153C0F600037B6246E0BB6989
:102390000A2B43D140F24C63C2F200031B681B7846
:1023A00003F07F03012B39D140F24C63C2F20003EA
:1023B0001B689B7A002B31D040F24C63C2F20003C1
:1023C0001B685B88002B29D140F24C63C2F20003EA
:1023D0001B681B79002B21D140F24C63C2F2000331
:1023E0001B68DB88012B19D140F22463C2F2000381
:1023F0001B689A6940F24C63C2F200031B685B7968
:1024000018464FF0000190470346002B06D141F2D9
:102410000163C0F600037B6200E000BF7B6A002B13
:1024200017D040F24C63C2F200031B687A6992B283
:102430005A8240F24C63C2F200031B687A6A9A61C6
:102440007B6A4FF0000098474FF0000387F8233075
:102450001DE040F22463C2F200031B681A6940F2D7
:102460004C63C2F200031B685B7818469047034632
:1024700087F8233097F82330032B08D140F24C63C0
:10248000C2F200031B684FF009021A72ACE040F27E
:102490004C63C2F200031B681A8A4FF6FF739A421C
:1024A00008D140F24C63C2F200031B684FF00902EE
:1024B0001A7299E097F82330022B07D040F24C6350
:1024C000C2F200031B681B8A002B08D140F24C6348
:1024D000C2F200031B684FF008021A7284E040F257
:1024E0004C63C2F200031B681B78DBB25BB2002BAB
:1024F0006ADA40F24C63C2F200031B68DB887B603F
:1025000040F24C63C2F200031B681B8A1A467B68C8
:102510009A4208D940F24C63C2F200031B687A6801
:1025200092B21A8240E040F24C63C2F200031B6890
:102530001A8A40F24C63C2F200031B68DB889A429D
:1025400032D240F24C63C2F200031B681A8A40F296
:102550002463C2F200031B6893F82C309A4207D21E
:1025600040F28853C2F200034FF000021A701BE0E1
:1025700040F24C63C2F200031B681B8A1A4640F209
:102580002463C2F200031B6893F82C3092FBF3F132
:1025900003FB01F3D31A002B06D140F28853C2F299
:1025A00000034FF001021A7040F24C63C2F20003C4
:1025B0001A6840F22463C2F200031B6893F82C30BF
:1025C0009382FFF725FC0EE040F24C63C2F2000359
:1025D0001B684FF003021A7240F25263C2F200030A
:1025E0004FF440521A8000BF07F12807BD4680BD56
:1025F00090B583B000AF4FF00103FB8045F6504328
:10260000C4F200031B689BB21A4643F20403C2F2F1
:102610000003D3184FEA43031B689BB24FEA4303FE
:1026200003F1804303F5C0433B6040F24C63C2F2C8
:1026300000031B681B7A092B4DD040F24C63C2F299
:1026400000031A683B681978117003F101033B60BD
:1026500040F24C63C2F200031A683B68197851706B
:1026600003F101033B603A68FB884FEA4303D31848
:102670003B6040F24C63C2F200031C683B681A885E
:1026800003F102033B60104601F0F2FD0346638054
:102690003A68FB884FEA4303D3183B6040F24C632F
:1026A000C2F200031C683B681A8803F102033B6016
:1026B000104601F0DDFD0346A3803A68FB884FEA2F
:1026C0004303D3183B6040F24C63C2F200031B6823
:1026D0003A681288DA8040F24C63C2F200031B6849
:1026E0004FF001021A7240F24C63C2F200031B6801
:1026F000DB88002B02D1FFF733FC01E0FFF734FD4C
:1027000000F0AAF80346184607F10C07BD4690BD35
:1027100080B582B000AF40F24C63C2F200031B6888
:102720001B7A7B607B68022B02D07B68042B09D16B
:10273000FFF76EFB40F24C63C2F200031B681B7A8A
:102740007B6032E07B68062B2CD140F24C63C2F2F6
:1027500000031B685B78052B19D140F24C63C2F271
:1027600000031B681B7803F07F03002B0FD140F29E
:102770004C63C2F200031B68DB78184600F09CF83B
:1027800040F24863C2F200031B681B6A984740F29C
:102790002463C2F200031B689B6898474FF008034C
:1027A0007B6002E04FF008037B6040F24C63C2F2B2
:1027B00000031B687A68D2B21A7200F04DF8034623
:1027C000184607F10807BD4680BD00BF80B582B03E
:1027D00000AF40F24C63C2F200031B681B7A7B60BF
:1027E0007B68022B02D07B68042B03D14FF00803D7
:1027F0007B6020E07B68032B02D07B68052B09D12E
:10280000FFF768FA40F24C63C2F200031B681B7AC0
:102810007B6010E07B68072B0AD140F22463C2F290
:1028200000031B68DB6898474FF008037B6002E0F9
:102830004FF008037B6040F24C63C2F200031B6858
:102840007A68D2B21A7200F007F80346184607F108
:102850000807BD4680BD00BF80B500AF40F25C03F5
:10286000C2F2000393F82C304FF00000194601F03B
:1028700025F940F24C63C2F200031B681B7A082B57
:102880000DD140F25263C2F200034FF480521A801D
:1028900040F25463C2F200034FF010021A8040F27B
:1028A0004C63C2F200031B681B7A092B14BF002380
:1028B0000123DBB2184680BD80B485B000AF03466B
:1028C000FB7140F25803C2F200031B78BB604FF06B
:1028D0000003FB6021E0FB68DBB24FEA830303F1F6
:1028E000804303F5B843FA68D2B24FEA820202F19C
:1028F000804202F5B842126892B2114640F60F7259
:102900000A4042F4004242F08002F968C9B20A4328
:102910001A60FB6803F10103FB60FA68BB689A4226
:10292000D9D345F64C43C4F20003FA7962F07F0232
:10293000D2B21A6007F11407BD4680BC704700BFD1
:1029400080B400AFBD4680BC704700BF80B500AF0B
:1029500040F24C63C2F2000340F22C62C2F2000269
:102960001A6040F24C63C2F200031B684FF002028F
:102970001A7240F22463C2F2000340F25C02C2F217
:1029800000021A6040F24863C2F2000340F28C0277
:10299000C2F200021A6040F22463C2F200031B6814
:1029A0001B68984780BD00BF90B583B000AF4FF063
:1029B0000003FB80F5E140F2AE53C2F200031B8836
:1029C0009BB2DBB203F00F03DAB240F22863C2F22B
:1029D00000031A7040F22863C2F200031B78002B38
:1029E00040F06F814FF4B843C4F200031B689AB201
:1029F00040F25263C2F200031A8040F25263C2F204
:102A000000031B889BB203F030039AB240F2546378
:102A1000C2F200031A8040F25263C2F200031B8824
:102A20009BB203F440539AB240F25263C2F20003E5
:102A30001A804FF4B843C4F200031B689BB24BF6F4
:102A4000BF741C4084F4005484F020044FF4B84256
:102A5000C4F20002A1B248F28003CFF6FF730B4329
:102A60009BB2136040F2AE53C2F200031B889BB2CC
:102A700003F01003002B5AD14FF4B843C4F2000303
:102A80004FF4B842C4F20002126892B2114648F6FE
:102A90000F720A401A60FFF73BFE4FF4B843C4F2CE
:102AA00000031B689BB24BF6BF741C4040F252639C
:102AB000C2F200031B889BB203F480539BB2002B2D
:102AC00001D084F4805440F25263C2F200031B88A8
:102AD0009BB203F400539BB2002B01D084F400544A
:102AE00040F25463C2F200031B889BB203F0100350
:102AF0009BB2002B01D084F0100440F25463C2F268
:102B000000031B889BB203F020039BB2002B01D073
:102B100084F020044FF4B842C4F20002A1B248F29B
:102B20008003CFF6FF730B439BB213604BE14FF46E
:102B3000B843C4F200031B689BB2FB80FB889BB2C6
:102B400003F40063002B5AD04FF4B843C4F20003DF
:102B50004FF4B842C4F20002126892B2114640F635
:102B60008F720A401A60FFF743FD4FF4B843C4F276
:102B700000031B689BB24BF6BF741C4040F25263CB
:102B8000C2F200031B889BB203F480539BB2002B5C
:102B900001D084F4805440F25263C2F200031B88D7
:102BA0009BB203F400539BB2002B01D084F4005479
:102BB00040F25463C2F200031B889BB203F010037F
:102BC0009BB2002B01D084F0100440F25463C2F297
:102BD00000031B889BB203F020039BB2002B01D0A3
:102BE00084F020044FF4B842C4F20002A1B248F2CB
:102BF0008003CFF6FF730B439BB21360E3E0FB88C7
:102C00009BB29BB21BB2002B80F2CB804FF4B84337
:102C1000C4F200034FF4B842C4F20002126892B248
:102C2000114640F68F720A401A60FFF7CFFD4FF44D
:102C3000B843C4F200031B689BB24BF6BF741C4040
:102C400040F25263C2F200031B889BB203F480532C
:102C50009BB2002B01D084F4805440F25263C2F244
:102C600000031B889BB203F400539BB2002B01D0DE
:102C700084F4005440F25463C2F200031B889BB2F8
:102C800003F010039BB2002B01D084F0100440F23B
:102C90005463C2F200031B889BB203F020039BB273
:102CA000002B01D084F020044FF4B842C4F200029B
:102CB000A1B248F28003CFF6FF730B439BB21360BF
:102CC00081E040F22863C2F200031B784FEA8303DD
:102CD00003F1804303F5B8431B689BB2FB80FB887C
:102CE0009BB29BB21BB2002B2ADA40F22863C2F2DD
:102CF00000031B784FEA830303F1804303F5B843D5
:102D000040F22862C2F2000212784FEA820202F117
:102D1000804202F5B842126892B2114640F68F72B4
:102D20000A401A6040F22863C2F200031B7803F1E4
:102D3000FF3240F23C03C2F2000353F822309847BE
:102D4000FB889BB203F08003002B2AD040F228635B
:102D5000C2F200031B784FEA830303F1804303F5BB
:102D6000B84340F22862C2F2000212784FEA8202AF
:102D700002F1804202F5B842126892B2114648F65A
:102D80000F720A401A6040F22863C2F200031B78F7
:102D900003F1FF3240F22003C2F2000353F8223065
:102DA000984745F64443C4F200031B689BB21A4699
:102DB00040F2AE53C2F200031146198093B21BB227
:102DC000002BFFF6F8AD07F10C07BD4690BD00BF24
:102DD00080B582B000AF4FF000037B6084E045F621
:102DE0004443C4F2000347F6FF721A6040F2AE5348
:102DF000C2F200031B889BB2DBB203F00F03DAB20E
:102E000040F22863C2F200031A7040F22863C2F253
:102E100000031B784FEA830303F1804303F5B843B3
:102E20001B689BB27B607B6803F40043002B2BD0B4
:102E300040F22863C2F200031B784FEA830303F1D8
:102E4000804303F5B84340F22862C2F200021278D0
:102E50004FEA820202F1804202F5B842126892B251
:102E6000114640F68F720A401A6040F22863C2F29F
:102E700000031B7803F1FF3240F23C03C2F200036F
:102E800053F8223098472FE07B6803F08003002B33
:102E90002AD040F22863C2F200031B784FEA830372
:102EA00003F1804303F5B84340F22862C2F2000206
:102EB00012784FEA820202F1804202F5B8421268AB
:102EC00092B2114648F60F720A401A6040F2286327
:102ED000C2F200031B7803F1FF3240F22003C2F27A
:102EE000000353F82230984745F64443C4F20003E8
:102EF0001B689BB21A4640F2AE53C2F20003114661
:102F0000198093B21BB2002BFFF669AF07F10807D7
:102F1000BD4680BD80B489B000AF786013460A46D4
:102F20007A803B803B8803F101034FEA63037B61B6
:102F30007B8803F1005303F540534FEA4303BB6121
:102F40007B69FB6122E07B681B783B617B6803F156
:102F500001037B607B681B784FEA03231A463B69B9
:102F60001343FB60FB689AB2BB691A80BB6903F12B
:102F70000203BB61BB6903F10203BB617B6803F120
:102F800001037B60FB6903F1FF33FB61FB69002BED
:102F9000D9D107F12407BD4680BC704780B487B003
:102FA00000AF786013460A467A803B803B8803F185
:102FB00001034FEA6303FB607B8803F1005303F5D1
:102FC00040534FEA43033B61FB687B6114E03B697C
:102FD0001B689AB27B681A807B6803F101037B60EF
:102FE0003B6903F104033B617B6803F101037B60F0
:102FF0007B6903F1FF337B617B69002BE7D107F12C
:103000001C07BD4680BC704780B483B000AF034648
:10301000FB8045F64043C4F20003FA881A6007F1CA
:103020000C07BD4680BC704780B400AF45F64043F6
:10303000C4F200031B689BB21846BD4680BC7047B3
:1030400080B483B000AF0346FB8045F64443C4F22E
:103050000003FA881A6007F10C07BD4680BC704770
:1030600080B400AF45F64443C4F200031B689BB232
:103070001846BD4680BC704780B400AF45F6484353
:10308000C4F200031B689BB21846BD4680BC704763
:1030900080B483B000AF0346FB8045F64C43C4F2D6
:1030A0000003FA881A6007F10C07BD4680BC704720
:1030B00080B400AF45F64C43C4F200031B689BB2DA
:1030C0001846BD4680BC704780B483B000AF03464D
:1030D000FB8045F65043C4F20003F9884FF6F872BE
:1030E0000A401A6007F10C07BD4680BC704700BF5C
:1030F00080B400AF45F65043C4F200031B689BB296
:103100001846BD4680BC704780B483B000AF02460D
:103110000B46FA71BB80FB794FEA830303F18043CE
:1031200003F5B843BA881A6007F10C07BD4680BCA6
:10313000704700BF80B483B000AF0346FB71FB79DA
:103140004FEA830303F1804303F5B8431B689BB246
:10315000184607F10C07BD4680BC704780B483B0A9
:1031600000AF02460B46FA71BB80FB794FEA83033E
:1031700003F1804303F5B843FA794FEA820202F182
:10318000804202F5B842126892B222F4EC4222F078
:10319000700291B2BA880A4392B292B21A6007F1F1
:1031A0000C07BD4680BC704780B483B000AF0346B7
:1031B000FB71FB794FEA830303F1804303F5B843C6
:1031C0001B689BB203F4C0639BB2184607F10C075F
:1031D000BD4680BC704700BF90B482B000AF0246CD
:1031E0000B46FA71BB80FB794FEA830303F18043FE
:1031F00003F5B8431B689BB223F4E04323F040037C
:103200009CB2BB8803F010039BB2002B02D084F069
:1032100010039CB2BB8803F020039BB2002B02D0AA
:1032200084F020039CB2FB794FEA830303F18042D0
:1032300002F5B84248F28003CFF6FF7323439BB2F6
:10324000136007F10807BD4690BC704790B482B088
:1032500000AF02460B46FA71BB80FB794FEA83034D
:1032600003F1804303F5B8431B689BB223F480430A
:1032700023F070039CB2BB8803F480539BB2002BF5
:1032800002D084F480539CB2BB8803F400539BB2F9
:10329000002B02D084F400539CB2FB794FEA8303E5
:1032A00003F1804202F5B84248F28003CFF6FF7383
:1032B00023439BB2136007F10807BD4690BC7047DB
:1032C00080B584B000AF02460B46FA71BB71FB7942
:1032D0001846FFF72FFF0346FB81BB79012B0BD16B
:1032E000FB794FEA830303F1804303F5B843FA897E
:1032F00022F480521A600DE0BB79022B0AD1FB79CF
:103300004FEA830303F1804303F5B843FA8922F0BF
:1033100010021A6007F11007BD4680BD80B483B06B
:1033200000AF0346FB71FB794FEA830303F180434F
:1033300003F5B8431B689BB203F030039BB21846F9
:1033400007F10C07BD4680BC704700BF80B483B056
:1033500000AF0346FB71FB794FEA830303F180431F
:1033600003F5B8431B689BB203F440539BB2184665
:1033700007F10C07BD4680BC704700BF90B482B017
:1033800000AF0346FB71FB794FEA830303F18043EF
:1033900003F5B8431B689BB223F4E04323F04003DA
:1033A0009CB284F010039CB284F020039CB2FB79A1
:1033B0004FEA830303F1804202F5B84248F28003EA
:1033C000CFF6FF7323439BB2136007F10807BD4696
:1033D00090BC704790B482B000AF0346FB71FB799C
:1033E0004FEA830303F1804303F5B8431B689BB2A4
:1033F00023F4804323F070039CB284F480539CB286
:1034000084F400539CB2FB794FEA830303F18042BA
:1034100002F5B84248F28003CFF6FF7323439BB214
:10342000136007F10807BD4690BC704780B483B0B5
:1034300000AF0346FB71FB794FEA830303F180423F
:1034400002F5B842FB794FEA830303F1804303F5A9
:10345000B8431B689BB223F4F8734FEA03534FEA57
:1034600013539BB243F07F4343F47F0343F4014380
:1034700043F080039BB29BB2136007F10C07BD467B
:1034800080BC704780B483B000AF0346FB71FB790A
:103490004FEA830303F1804202F5B842FB794FEA19
:1034A000830303F1804303F5B8431B689BB223F405
:1034B000F8734FEA03534FEA13539BB243F07F4331
:1034C00043F47F0343F4004343F080039BB29BB279
:1034D000136007F10C07BD4680BC704780B483B011
:1034E00000AF0346FB71FB794FEA830303F180428F
:1034F00002F5B842FB794FEA830303F1804303F5F9
:10350000B8431B689BB223F4F8734FEA03534FEAA6
:1035100013539BB243F07F4343F47F0343F40043D0
:1035200043F080039BB29BB2136007F10C07BD46CA
:1035300080BC704780B483B000AF0346FB71FB7959
:103540004FEA830303F1804202F5B842FB794FEA68
:10355000830303F1804303F5B8431B689BB223F454
:10356000F8734FEA03534FEA13539BB243F07F4380
:1035700043F47F0343F4014343F080039BB29BB2C7
:10358000136007F10C07BD4680BC704780B483B060
:1035900000AF0346FB71FB794FEA830303F18042DE
:1035A00002F5B842FB794FEA830303F1804303F548
:1035B000B8431B689BB223F4F8734FEA03534FEAF6
:1035C00013539BB243F07F4343F47F0343F401431F
:1035D00043F080039BB29BB2136007F10C07BD461A
:1035E00080BC704780B483B000AF0346FB71FB79A9
:1035F0004FEA830303F1804202F5B842FB794FEAB8
:10360000830303F1804303F5B8431B689BB223F4A3
:10361000F8734FEA03534FEA13539BB243F07F43CF
:1036200043F47F0343F4004343F080039BB29BB217
:10363000136007F10C07BD4680BC704780B483B0AF
:1036400000AF0346FB71FB794FEA830303F180432C
:1036500003F5B8431B689BB203F03003102B14BF73
:1036600000230123DBB2184607F10C07BD4680BCDE
:10367000704700BF80B483B000AF0346FB71FB7995
:103680004FEA830303F1804303F5B8431B689BB201
:1036900003F44053B3F5805F14BF00230123DBB272
:1036A000184607F10C07BD4680BC704780B483B054
:1036B00000AF0346FB71FB794FEA830303F18043BC
:1036C00003F5B843FA794FEA820202F1804202F52B
:1036D000B842126892B2114640F68F720A401A60E0
:1036E00007F10C07BD4680BC704700BF80B483B0B3
:1036F00000AF0346FB71FB794FEA830303F180437C
:1037000003F5B843FA794FEA820202F1804202F5EA
:10371000B842126892B2114648F60F720A401A6017
:1037200007F10C07BD4680BC704700BF80B483B072
:1037300000AF0346FB71FB794FEA830303F180433B
:1037400003F5B843FA794FEA820202F1804202F5AA
:10375000B842126892B2114640F60F720A4042F423
:10376000404242F080021A6007F10C07BD4680BC5F
:10377000704700BF80B483B000AF0346FB71FB7994
:103780004FEA830303F1804303F5B843FA794FEA24
:10379000820202F1804202F5B842126892B21146EA
:1037A00040F60F720A4042F4004242F0C0021A6032
:1037B00007F10C07BD4680BC704700BF80B483B0E2
:1037C00000AF0346FB71FB794FEA830303F18043AB
:1037D00003F5B8431B689BB203F48043002B18D059
:1037E000FB794FEA830303F1804303F5B843FA7989
:1037F0004FEA820202F1804202F5B842126892B2A8
:10380000114640F60F720A4042F4404242F08002F4
:103810001A6007F10C07BD4680BC704780B483B0C6
:1038200000AF0346FB71FB794FEA830303F180434A
:1038300003F5B8431B689BB203F04003002B18D07C
:10384000FB794FEA830303F1804303F5B843FA7928
:103850004FEA820202F1804202F5B842126892B247
:10386000114640F60F720A4042F4004242F0C00294
:103870001A6007F10C07BD4680BC704780B483B066
:1038800000AF02460B46FA71BB71FB794FEA830326
:1038900003F1804303F5B843FA794FEA820202F15B
:1038A000804202F5B842126892B2114640F60F7299
:1038B0000A4042F4004242F08002B9790A431A6099
:1038C00007F10C07BD4680BC704700BF80B483B0D1
:1038D00000AF0346FB71FB794FEA830303F180439A
:1038E00003F5B8431B68DBB203F00F03DBB21846E5
:1038F00007F10C07BD4680BC704700BF80B483B0A1
:1039000000AF02460B46FA71BB8045F65043C4F245
:1039100000031B689BB21A46FB794FEAC303D31816
:1039200003F1005303F540534FEA4303BA884FEACB
:10393000520292B24FEA42021A6007F10C07BD46EA
:1039400080BC704780B483B000AF02460B46FA716A
:10395000BB8045F65043C4F200031B689BB21A4675
:10396000FB794FEAC303D21843F20403C2F2000307
:10397000D3184FEA4303BA884FEA520292B24FEA91
:1039800042021A6007F10C07BD4680BC704700BFB9
:1039900080B483B000AF0346FB7145F65043C4F2D8
:1039A00000031B689BB21A46FB794FEAC303D31886
:1039B00003F1005303F540534FEA43031B689BB2E6
:1039C000184607F10C07BD4680BC704780B483B031
:1039D00000AF0346FB7145F65043C4F200031B6879
:1039E0009BB21A46FB794FEAC303D21843F2040391
:1039F000C2F20003D3184FEA43031B689BB2184678
:103A000007F10C07BD4680BC704700BF80B483B08F
:103A100000AF02460B46FA71BB8045F65043C4F234
:103A200000031B689BB21A46FB794FEAC303D21806
:103A300043F20203C2F20003D3184FEA4303BA88E9
:103A40001A6007F10C07BD4680BC704780B485B092
:103A500000AF78600B467B807B883E2B15D97B8836
:103A60004FEA5313FB817B8803F01F03002B03D124
:103A7000FB8903F1FF33FB81FB894FEA832343F486
:103A800000431A467B681A6012E07B884FEA5303B2
:103A9000FB817B8803F00103002B03D0FB8903F13A
:103AA0000103FB81FB894FEA83231A467B681A6076
:103AB00007F11407BD4680BC704700BF80B485B0D5
:103AC00000AF02460B46FA71BB8045F65043C4F284
:103AD00000031B689BB21A46FB794FEAC303D21856
:103AE00043F20603C2F20003D3184FEA4303BB605C
:103AF000BB883E2B15D9BB884FEA5313FB81BB888B
:103B000003F01F03002B03D1FB8903F1FF33FB817B
:103B1000FB894FEA832343F400431A46BB681A60CB
:103B200012E0BB884FEA5303FB81BB8803F001031B
:103B3000002B03D0FB8903F10103FB81FB894FEAD2
:103B400083231A46BB681A6007F11407BD4680BC80
:103B5000704700BF80B483B000AF0346FB7145F6E9
:103B60005043C4F200031B689BB21A46FB794FEA2C
:103B7000C303D21843F20203C2F20003D3184FEA80
:103B800043031B689BB24FEA83534FEA93539BB2A4
:103B9000184607F10C07BD4680BC704780B483B05F
:103BA00000AF0346FB7145F65043C4F200031B68A7
:103BB0009BB21A46FB794FEAC303D21843F20603BD
:103BC000C2F20003D3184FEA43031B689BB24FEACB
:103BD00083534FEA93539BB2184607F10C07BD4637
:103BE00080BC704780B483B000AF13460246FA71C0
:103BF0000A46BA807B8045F65043C4F200031B6836
:103C00009BB21A46FB794FEAC303D31803F1005362
:103C100003F540534FEA4303BA884FEA520292B287
:103C20004FEA42021A6045F65043C4F200031B6893
:103C30009BB21A46FB794FEAC303D21843F204033E
:103C4000C2F20003D3184FEA43037A884FEA5202C4
:103C500092B24FEA42021A6007F10C07BD4680BCDF
:103C6000704700BF80B483B000AF02460B46FA71C4
:103C7000BB8045F65043C4F200031B689BB21A4652
:103C8000FB794FEAC303D31803F1005303F5405304
:103C90004FEA4303BA884FEA520292B24FEA420215
:103CA0001A6007F10C07BD4680BC704780B483B032
:103CB00000AF02460B46FA71BB8045F65043C4F292
:103CC00000031B689BB21A46FB794FEAC303D21864
:103CD00043F20403C2F20003D3184FEA4303BA8845
:103CE0004FEA520292B24FEA42021A6007F10C0701
:103CF000BD4680BC704700BF80B483B000AF0346B0
:103D0000FB7145F65043C4F200031B689BB21A4690
:103D1000FB794FEAC303D31803F1005303F5405373
:103D20004FEA43031B689BB2184607F10C07BD46D8
:103D300080BC704780B483B000AF0346FB7145F68A
:103D40005043C4F200031B689BB21A46FB794FEA4A
:103D5000C303D21843F20403C2F20003D3184FEA9C
:103D600043031B689BB2184607F10C07BD4680BC95
:103D7000704700BF80B487B000AF13460246FA71A7
:103D80000A46BA71BB80BB79012B3FD145F650433F
:103D9000C4F200031B689BB21A46FB794FEAC303C7
:103DA000D21843F20203C2F20003D3184FEA4303CE
:103DB0003B61BB883E2B15D9BB884FEA5313FB826E
:103DC000BB8803F01F03002B03D1FB8A03F1FF33F1
:103DD000FB82FB8A4FEA832343F400431A463B6984
:103DE0001A602AE0BB884FEA5303FB82BB8803F0CA
:103DF0000103002B03D0FB8A03F10103FB82FB8A42
:103E00004FEA83231A463B691A6016E0BB79022BFE
:103E100013D145F65043C4F200031B689BB21A4607
:103E2000FB794FEAC303D21843F20203C2F2000344
:103E3000D3184FEA4303BA881A60BB79012B3FD1EC
:103E400045F65043C4F200031B689BB21A46FB7947
:103E50004FEAC303D21843F20603C2F20003D31899
:103E60004FEA4303FB60BB883E2B15D9BB884FEA62
:103E70005313BB82BB8803F01F03002B03D1BB8A03
:103E800003F1FF33BB82BB8A4FEA832343F4004331
:103E90001A46FB681A602AE0BB884FEA5303BB82CC
:103EA000BB8803F00103002B03D0BB8A03F101039D
:103EB000BB82BB8A4FEA83231A46FB681A6016E06E
:103EC000BB79022B13D145F65043C4F200031B68A3
:103ED0009BB21A46FB794FEAC303D21843F206039A
:103EE000C2F20003D3184FEA4303BA881A6007F1FD
:103EF0001C07BD4680BC704780B485B000AF134638
:103F00000246FA710A46BA71BB80BB79012B3FD1D8
:103F100045F65043C4F200031B689BB21A46FB7976
:103F20004FEAC303D21843F20203C2F20003D318CC
:103F30004FEA4303BB60BB883E2B15D9BB884FEAD1
:103F40005313FB81BB8803F01F03002B03D1FB89B4
:103F500003F1FF33FB81FB894FEA832343F40043E2
:103F60001A46BB681A602AE0BB884FEA5303FB81FC
:103F7000BB8803F00103002B03D0FB8903F101038D
:103F8000FB81FB894FEA83231A46BB681A6016E05F
:103F9000BB79022B13D145F65043C4F200031B68D2
:103FA0009BB21A46FB794FEAC303D21843F20203CD
:103FB000C2F20003D3184FEA4303BA881A6007F12C
:103FC0001407BD4680BC704780B485B000AF13466F
:103FD0000246FA710A46BA71BB80BB79012B3FD108
:103FE00045F65043C4F200031B689BB21A46FB79A6
:103FF0004FEAC303D21843F20603C2F20003D318F8
:104000004FEA4303BB60BB883E2B15D9BB884FEA00
:104010005313FB81BB8803F01F03002B03D1FB89E3
:1040200003F1FF33FB81FB894FEA832343F4004311
:104030001A46BB681A602AE0BB884FEA5303FB812B
:10404000BB8803F00103002B03D0FB8903F10103BC
:10405000FB81FB894FEA83231A46BB681A6016E08E
:10406000BB79022B13D145F65043C4F200031B6801
:104070009BB21A46FB794FEAC303D21843F20603F8
:10408000C2F20003D3184FEA4303BA881A6007F15B
:104090001407BD4680BC704780B483B000AF0346B0
:1040A000FB7145F65043C4F200031B689BB21A46ED
:1040B000FB794FEAC303D21843F20203C2F20003B2
:1040C000D3184FEA43031B689BB24FEA83534FEA6E
:1040D00093539BB2184607F10C07BD4680BC70474E
:1040E00080B483B000AF0346FB7145F65043C4F281
:1040F00000031B689BB21A46FB794FEAC303D21830
:1041000043F20603C2F20003D3184FEA43031B68CD
:104110009BB24FEA83534FEA93539BB2184607F181
:104120000C07BD4680BC704780B483B000AF034627
:10413000FB7145F65043C4F200031B689BB21A465C
:10414000FB794FEAC303D21843F20603C2F200031D
:10415000D3184FEA43031B689BB203F47C43002B44
:1041600002D04FF001031EE045F65043C4F20003B5
:104170001B689BB21A46FB794FEAC303D21843F27D
:104180000203C2F20003D3184FEA43031B689BB239
:104190004FEA83534FEA9353002B02D04FF00203B0
:1041A00001E04FF00003184607F10C07BD4680BC44
:1041B000704700BF80B483B000AF02460B46FA716F
:1041C000BB71BB79012B19D1FB794FEA830303F152
:1041D000804303F5B843FA794FEA820202F1804244
:1041E00002F5B842126892B2114640F60F720A40C8
:1041F00042F4004242F0C0021A601BE0BB79022B7D
:1042000018D1FB794FEA830303F1804303F5B843E8
:10421000FA794FEA820202F1804202F5B84212684E
:1042200092B2114640F60F720A4042F4404242F008
:1042300080021A6007F10C07BD4680BC704700BFC2
:1042400080B485B000AF02460B46FA71BB71BB79F2
:104250009AB2FB794FEA03239BB213439BB2FB81D3
:10426000FB89184607F11407BD4680BC704700BFA4
:1042700080B485B000AF0346FB80FB88FB73FB88EE
:104280004FEA13239BB29AB2FB7B4FEA03239BB204
:1042900013439BB2BB81BB89184607F11407BD4687
:1042A00080BC704780B400AF45F64443C4F20003BD
:1042B0004FF000021A6040F25063C2F200034FF464
:1042C0003F421A8045F64043C4F2000340F2506278
:1042D000C2F2000212881A604FF000031846BD4671
:1042E00080BC704780B584B000AF0346B9607A6087
:1042F000FB73FB7B03F07F03DBB21846FFF748FB41
:1043000003461A467B689BB2B86811461A46FEF708
:1043100001FEFB7B03F07F03DAB27B689BB21046A1
:104320001946FFF773FB4FF00003184607F110071B
:10433000BD4680BD80B584B000AF03463960FB71D7
:104340004FF00003FB60FB7903F07F03DBB21846FC
:10435000FFF724FC0346FB60FB7903F07F03DBB22D
:104360001846FFF733FB03461A46FB689BB23868D2
:1043700011461A46FEF712FEFB68184607F11007B1
:10438000BD4680BD0749084A084B9A42BEBF51F856
:10439000040B42F8040BFFF7F8BF054880470548B7
:1043A0000047000030630008000000205405002092
:1043B0004544000885010008FEE7FEE7FEE7FEE74A
:1043C000FEE7FEE7FEE7FEE7FEE7FEE7FEE7FEE7C5
:1043D000FEE7FEE7FEE7FEE7FEE7FEE7FEE7FEE7B5
:1043E000FEE7FEE7FEE7FEE7FEE7FEE7FEE7FEE7A5
:1043F000FEE7FEE7FEE7FEE7FEE7FEE7FEE7FEE795
:10440000FEE7FEE7FEE7FEE7FEE7FEE7FEE7FEE784
:10441000FEE7FEE7FEE7FEE7FEE7FEE7FEE7FEE774
:10442000FEE7FEE7FEE7FEE7FEE7FEE7FEE7FEE764
:10443000FEE7FEE7FEE7FEE7FEE7FEE7FEE7FEE754
:10444000FEE7FEE780B500AF4FF48053C4F20203ED
:104450004FF48052C4F20202126842F001021A6064
:104460004FF48052C4F202024FF48053C4F20203AC
:1044700059684FF00003CFF6FF030B4053604FF431
:104480008053C4F202034FF48052C4F20202126855
:1044900022F0847222F480321A604FF48053C4F206
:1044A00002034FF48052C4F20202126822F4802206
:1044B0001A604FF48053C4F202034FF48052C4F2E6
:1044C0000202526822F4FE025A604FF48053C4F292
:1044D00002034FF41F029A6000F0A6F880BD00BFEF
:1044E00080B485B000AF4FF00003FB604FF00003D5
:1044F000BB604FF000037B604FF48053C4F20203B3
:104500005B6803F00C03FB60FB68042B0DD0082BE9
:1045100015D0002B5CD140F2F403C2F200034FF43B
:104520009052C0F27A021A605CE040F2F403C2F2E8
:1045300000034FF49052C0F27A021A6052E04FF436
:104540008053C4F202035B6803F47013BB604FF442
:104550008053C4F202035B6803F480337B60BB6862
:104560004FEA934303F10203BB607B68002B0CD13D
:10457000BA684FF41063C0F23D0303FB02F240F24D
:10458000F403C2F200031A602CE04FF48053C4F22B
:1045900002035B6803F40033002B0CD0BA684FF4BD
:1045A0001063C0F23D0303FB02F240F2F403C2F2D7
:1045B00000031A6016E0BA684FF49053C0F27A0311
:1045C00003FB02F240F2F403C2F200031A6009E0B6
:1045D00040F2F403C2F200034FF49052C0F27A02A8
:1045E0001A6000BF4FF48053C4F202035B6803F00B
:1045F000F0034FEA131240F2F803C2F200039B5C8F
:10460000DBB2FB6040F2F403C2F200031A68FB68FD
:1046100022FA03F240F2F403C2F200031A6007F137
:104620001407BD4680BC704780B500AF00F002F8AB
:1046300080BD00BF80B483B000AF4FF000037B604B
:104640004FF000033B604FF48053C4F202034FF479
:104650008052C4F20202126842F480321A604FF4AF
:104660008053C4F202031B6803F400333B607B6891
:1046700003F101037B603B68002B03D17B68B3F53A
:10468000A06FECD14FF48053C4F202031B6803F413
:104690000033002B03D04FF001033B6002E04FF0EA
:1046A00000033B603B68012B40F094804FF40053C3
:1046B000C4F202034FF40052C4F20202126842F044
:1046C00010021A604FF40053C4F202034FF4005278
:1046D000C4F20202126822F003021A604FF400537F
:1046E000C4F202034FF40052C4F20202126842F014
:1046F00002021A604FF48053C4F202034FF4805256
:10470000C4F2020252685A604FF48053C4F20203AA
:104710004FF48052C4F2020252685A604FF4805340
:10472000C4F202034FF48052C4F20202526842F40F
:1047300080625A604FF48053C4F202034FF48052F7
:10474000C4F20202526822F47C125A604FF4805381
:10475000C4F202034FF48052C4F20202526842F4DF
:10476000E8125A604FF48053C4F202034FF48052AF
:10477000C4F20202126842F080721A6000BF4FF465
:104780008053C4F202031B6803F00073002BF6D0C1
:104790004FF48053C4F202034FF48052C4F2020279
:1047A000526822F003025A604FF48053C4F20203AD
:1047B0004FF48052C4F20202526842F002025A6080
:1047C00000BF4FF48053C4F202035B6803F00C0394
:1047D000082BF6D107F10C07BD4680BC704700BF1F
:1047E00080B483B000AF78604FF46D43CEF2000325
:1047F0007A6842F0BF6242F40032DA6007F10C07D7
:10480000BD4680BC704700BF80B487B000AF786001
:104810004FF000037B614FF000033B614FF00F034B
:10482000FB607B68DB78002B47D04FF46D43CEF202
:104830000003DB686FEA030303F4E0634FEA13232A
:104840007B617B69C3F104033B617B69FA6822FAEF
:1048500003F3FB607B685B781A463B6902FA03F35B
:104860007B617B689B781A46FB6813407A69134327
:104870007B617B694FEA03137B614FF46143CEF2A6
:1048800000037A68127811467A69D2B25B1883F80D
:1048900000234FF46143CEF200037A6812784FEAA6
:1048A0005212D2B27968097801F01F014FF001006D
:1048B00000FA01F143F8221014E04FF46143CEF204
:1048C00000037A6812784FEA5212D2B279680978F6
:1048D00001F01F014FF0010000FA01F102F1200286
:1048E00043F8221007F11C07BD4680BC704700BF8B
:1048F00080B483B000AF786039604FF46D43CEF27E
:1049000000033A6822F0604222F07F0279680A438D
:104910009A6007F10C07BD4680BC704780B483B035
:1049200000AF02460B46FA71BB71BB79002B0CD06D
:104930004FF46D43CEF200034FF46D42CEF200020D
:104940001169FA790A431A610DE04FF46D43CEF212
:1049500000034FF46D42CEF200021169FA796FEA5A
:1049600002020A401A6107F10C07BD4680BC70477D
:1049700080B483B000AF78607B68042B0CD14EF21A
:104980001003CEF200034EF21002CEF200021268C3
:1049900042F004021A600BE04EF21003CEF2000364
:1049A0004EF21002CEF20002126822F004021A60E7
:1049B00007F10C07BD4680BC704700BF80B400AF54
:1049C0004FF48063C4F201034FF000021A604FF409
:1049D0008063C4F201034FF000025A604FF4806319
:1049E000C4F201034FF000029A604FF48063C4F2F6
:1049F00001034FF00002DA604FF48063C4F2010358
:104A00004FF6FF72C0F20F025A61BD4680BC70477C
:104A100080B485B000AF78604FF00003FB604FF4C6
:104A20008063C4F20103FB607B689B79002B78D024
:104A30004FF48063C4F201034FF48062C4F20102B8
:104A400011687A6812686FEA02020A401A604FF42D
:104A50008063C4F201034FF48062C4F20102516822
:104A60007A6812686FEA02020A405A607B681B7912
:104A7000FA68D318FB60FB68FA6811687A681268F4
:104A80000A431A604FF48063C4F201034FF480625A
:104A9000C4F2010291687A6812686FEA02020A4061
:104AA0009A604FF48063C4F201034FF48062C4F251
:104AB0000102D1687A6812686FEA02020A40DA607D
:104AC0007B685B79102B1AD14FF48063C4F2010329
:104AD0004FF48062C4F2010291687A6812680A4356
:104AE0009A604FF48063C4F201034FF48062C4F211
:104AF0000102D1687A6812680A43DA601FE04FF455
:104B00008063C4F20103FB607B685B79FA68D318A9
:104B1000FB60FB68FA6811687A6812680A431A60D9
:104B20000DE07B681B79FA68D318FB60FB68FA68B4
:104B300011687A6812686FEA02020A401A6007F187
:104B40001407BD4680BC704780B483B000AF786066
:104B50007B684FF000021A607B684FF000021A7108
:104B60007B684FF00C025A717B684FF000029A711B
:104B700007F10C07BD4680BC704700BF80B483B00E
:104B800000AF78604FF48063C4F201034FF4806299
:104B9000C4F2010211697A680A431A6107F10C072D
:104BA000BD4680BC704700BF80B485B000AF786060
:104BB0004FF00003FB734FF48063C4F201035A69A2
:104BC0007B681340002B03D04FF00103FB7302E01E
:104BD0004FF00003FB73FB7B184607F11407BD463B
:104BE00080BC704780B483B000AF78604FF48063BE
:104BF000C4F201037A685A6107F10C07BD4680BC14
:104C0000704700BF80B485B000AF78604FF00003FC
:104C1000FB734FF00003BB604FF48063C4F20103E9
:104C20001A687B681340BB604FF48063C4F20103D1
:104C30005A697B681340002B06D0BB68002B03D059
:104C40004FF00103FB7302E04FF00003FB73FB7BAB
:104C5000184607F11407BD4680BC704780B483B086
:104C600000AF78604FF48063C4F201037A685A6140
:104C700007F10C07BD4680BC704700BF80B582B00D
:104C800000AF78607A684FF40063C4F201039A427F
:104C90000CD14FF004004FF0010101F05BF84FF030
:104CA00004004FF0000101F055F876E07A684FF407
:104CB0004063C4F201039A420CD14FF008004FF058
:104CC000010101F047F84FF008004FF0000101F03A
:104CD00041F862E07A684FF48053C4F201039A42CB
:104CE0000CD14FF010004FF0010101F033F84FF0FC
:104CF00010004FF0000101F02DF84EE07A684FF4FB
:104D0000A053C4F201039A420CD14FF020004FF09F
:104D1000010101F01FF84FF020004FF0000101F0F9
:104D200019F83AE07A684FF4C053C4F201039A428A
:104D30000CD14FF040004FF0010101F00BF84FF0A3
:104D400040004FF0000101F005F826E07A684FF4CA
:104D5000E053C4F201039A420CD14FF080004FF0AF
:104D6000010100F0F7FF4FF080004FF0000100F06C
:104D7000F1FF12E07A684FF40053C4F201039A4243
:104D80000BD14FF480704FF0010100F0E3FF4FF4BE
:104D900080704FF0000100F0DDFF07F10807BD460D
:104DA00080BD00BF80B500AF4FF001004FF00101A2
:104DB00000F0D0FF4FF001004FF0000100F0CAFFFB
:104DC00080BD00BF80B489B000AF786039604FF01B
:104DD0000003FB614FF000033B614FF00003BB6138
:104DE0004FF00003FB604FF000037B614FF00003C6
:104DF000BB603B68DB7803F00F03FB613B68DB784B
:104E000003F01003002B04D03B689B78FA6913432E
:104E1000FB613B681B88DBB2002B4ED07B681B68B4
:104E20007B614FF00003BB6141E0BB694FF00102C1
:104E300002FA03F3FB603B681B881A46FB681340C9
:104E40003B613A69FB689A422DD1BB694FEA830303
:104E5000FB60FB684FF00F0202FA03F3BB60BB6814
:104E60006FEA03037A6913407B61FB68FA6902FA0F
:104E700003F37A6913437B613B68DB78282B07D106
:104E8000BB694FF0010202FA03F27B685A610AE043
:104E90003B68DB78482B06D1BB694FF0010202FA70
:104EA00003F27B681A61BB6903F10103BB61BB6953
:104EB000072BBAD97B687A691A603B681B88FF2B7D
:104EC00053D97B685B687B614FF00003BB6146E0B0
:104ED000BB6903F108034FF0010202FA03F3FB6020
:104EE0003B681B881A46FB6813403B613A69FB68C4
:104EF0009A4230D1BB694FEA8303FB60FB684FF0F5
:104F00000F0202FA03F3BB60BB686FEA03037A691E
:104F100013407B61FB68FA6902FA03F37A69134371
:104F20007B613B68DB78282B08D1BB6903F1080360
:104F30004FF0010202FA03F27B685A613B68DB78AA
:104F4000482B08D1BB6903F108034FF0010202FAB4
:104F500003F27B681A61BB6903F10103BB61BB69A2
:104F6000072BB5D97B687A695A6007F12407BD46DB
:104F700080BC704780B483B000AF78607B684FF628
:104F8000FF721A807B684FF002029A707B684FF0C4
:104F90000402DA7007F10C07BD4680BC704700BF01
:104FA00080B485B000AF78600B467B804FF0000383
:104FB000FB737B689A687B881340002B03D04FF00B
:104FC0000103FB7302E04FF00003FB73FB7B184609
:104FD00007F11407BD4680BC704700BF80B483B0A2
:104FE00000AF78607B689B689BB2184607F10C079E
:104FF000BD4680BC704700BF80B485B000AF78600C
:105000000B467B804FF00003FB737B68DA687B887C
:105010001340002B03D04FF00103FB7302E04FF06D
:105020000003FB73FB7B184607F11407BD4680BCE9
:10503000704700BF80B483B000AF78607B68DB68E6
:105040009BB2184607F10C07BD4680BC704700BFF5
:1050500080B483B000AF78600B467B807A887B6831
:105060001A6107F10C07BD4680BC704780B483B05D
:1050700000AF78600B467B807A887B685A6107F1C5
:105080000C07BD4680BC704780B483B000AF786029
:1050900013460A467A807B707B78002B03D07A888F
:1050A0007B681A6102E07A887B685A6107F10C0715
:1050B000BD4680BC704700BF80B483B000AF78604D
:1050C0000B467B807A887B68DA6007F10C07BD4667
:1050D00080BC704780B485B000AF78600B467B80A1
:1050E0004FF48033FB607B88FA681343FB607B6876
:1050F000FA689A617A887B689A617B68FA689A6133
:105100007B689B69FB607B689B69FB6007F1140708
:10511000BD4680BC704700BF80B485B000AF02467A
:105120000B46FA71BB714FF00003FB604FF00003B8
:10513000C4F201031B68FB60FA684FF680731340EA
:10514000FB60FB794FEA0313FA681343FB60BB79FA
:10515000FA681343FB604FF00003C4F20103FA68DE
:105160001A6007F11407BD4680BC704780B483B055
:1051700000AF0346FB714FF01C03C4F22023FA7901
:105180001A6007F10C07BD4680BC704780B487B039
:1051900000AF78600B46FB704FF000033B614FF0AF
:1051A0000003FB604FF000037B614FF00003BB6026
:1051B0007B68002B06DA4FF00003C4F20103DB69C1
:1051C0007B6105E04FF00003C4F201035B687B6183
:1051D0007B6803F470234FEA1343BB607B684FEA9C
:1051E00003434FEA13433B617B6803F44013B3F579
:1051F000401F10D17B6923F070637B614FF0000387
:10520000C4F201034FF00002C4F20102526822F01E
:1052100070625A6026E07B6803F48013002B10D084
:10522000BB684FF0030202FA03F3FB60FB686FEA0E
:1052300003037A6913407B617B6943F070637B6190
:1052400010E07B684FEA53534FEA03133A6902FABE
:1052500003F36FEA03037A6913407B617B6943F0D0
:1052600070637B61FB78002B0AD07B684FEA535355
:105270004FEA03133A6902FA03F37A6913437B6135
:105280007B68002B06DA4FF00003C4F201037A6951
:10529000DA6105E04FF00003C4F201037A695A6055
:1052A00007F11C07BD4680BC704700BF90B484B0B6
:1052B00000AF02460B46FA71BB714FF00003FB6072
:1052C000BB7903F003034FEA83034FF00F0202FAA6
:1052D00003F3FB604FF00003C4F20103BA794FEA15
:1052E0009202D2B210464FF00002C4F20102B97924
:1052F0004FEA9101C9B201F1020152F82110FA6896
:105300006FEA0202114000F1020243F822104FF04E
:105310000003C4F20103BA794FEA9202D2B21046F6
:105320004FF00002C4F20102B9794FEA9101C9B20B
:1053300001F1020152F82110FC79BA7902F003025E
:105340004FEA820204FA02F2114300F1020243F82A
:10535000221007F11007BD4690BC704780B483B09F
:1053600000AF78604FF0DC03C4F220237A681A6043
:1053700007F10C07BD4680BC704700BF80B500AF89
:105380004FF080504FF0010100F00EFD4FF08050C3
:105390004FF0000100F008FD80BD00BF80B483B075
:1053A00000AF0346FB714FF02003C4F20E23FA79DD
:1053B0001A6007F10C07BD4680BC704780B483B00B
:1053C00000AF0346FB714FF01003C4F20E23FA79CD
:1053D0001A6007F10C07BD4680BC704780B485B0E9
:1053E00000AF78604FF00003FB604FF4E043C4F27D
:1053F00000031B68FB60FB6823F0E003FB60FA68B6
:105400007B681343FB604FF4E043C4F20003FA6887
:105410001A6007F11407BD4680BC704780B483B0A2
:1054200000AF0346FB714FF0A003C4F20E23FA79DC
:105430001A6007F10C07BD4680BC704780B485B088
:1054400000AF78600B46FB704FF00003FB604FF439
:10545000E043C4F200031B68FB60FB6823F0030316
:10546000FB60FA687B681343FB604FF4E043C4F2CF
:105470000003FA681A604FF46D43CEF200034FF454
:105480006D42CEF20002126942F004021A61FB780A
:10549000012B01D130BF00E020BF4FF46D43CEF2AD
:1054A00000034FF46D42CEF20002126922F00402B2
:1054B0001A6107F11407BD4680BC704780B400AF85
:1054C0004FF4E043C4F200034FF4E042C4F20002A0
:1054D000126842F004021A604FF4E043C4F2000381
:1054E0004FF4E042C4F20002126842F002021A6075
:1054F0004FF46D43CEF200034FF46D42CEF2000242
:10550000126942F004021A6130BFBD4680BC704788
:1055100080B485B000AF78604FF00003FB734FF4A8
:10552000E043C4F200035A687B681340002B03D0A9
:105530004FF00103FB7302E04FF00003FB73FB7BB2
:10554000184607F11407BD4680BC704780B483B08D
:1055500000AF78604FF4E043C4F200034FF4E04240
:10556000C4F2000211687A684FEA82020A431A60A4
:1055700007F10C07BD4680BC704700BF80B400AF88
:105580004FF48053C4F202034FF48052C4F202027B
:10559000126842F001021A604FF48052C4F2020213
:1055A0004FF48053C4F2020359684FF00003CFF662
:1055B000FF030B4053604FF48053C4F202034FF4D7
:1055C0008052C4F20202126822F0847222F4803205
:1055D0001A604FF48053C4F202034FF48052C4F2B5
:1055E0000202126822F480221A604FF48053C4F23F
:1055F00002034FF48052C4F20202526822F4FE0207
:105600005A604FF48053C4F202034FF41F029A60B1
:10561000BD4680BC704700BF80B483B000AF7860E7
:105620004FF48053C4F202034FF48052C4F20202DA
:10563000126822F480321A604FF48053C4F20203DD
:105640004FF48052C4F20202126822F480221A60DF
:105650007B68B3F5803F03D0B3F5802F0DD019E000
:105660004FF48053C4F202034FF48052C4F202029A
:10567000126842F480321A600DE04FF48053C4F295
:1056800002034FF48052C4F20202126842F4A022D4
:105690001A6000E000BF07F10C07BD4680BC7047F0
:1056A00080B582B000AF4FF000033B604FF00003C5
:1056B000FB714FF00003BB714FF0310000F0CEFBE7
:1056C0000346BB713B6803F101033B603B68B3F5E4
:1056D000A06F02D0BB79002BEED04FF0310000F06C
:1056E000BDFB0346002B03D04FF00103FB7102E02A
:1056F0004FF00003FB71FB79184607F10807BD4620
:1057000080BD00BF80B485B000AF0346FB714FF091
:105710000003FB604FF48053C4F202031B68FB607C
:10572000FB6823F0F803FB60FB794FEAC303FA68D8
:105730001343FB604FF48053C4F20203FA681A600B
:1057400007F11407BD4680BC704700BF80B483B02A
:1057500000AF0346FB714FF00003C4F24223FA7915
:105760001A6007F10C07BD4680BC704780B485B055
:1057700000AF786039604FF00003FB604FF4805356
:10578000C4F202035B68FB60FB6823F47C13FB60DC
:105790007A683B681343FA681343FB604FF4805305
:1057A000C4F20203FA685A6007F11407BD4680BCD0
:1057B000704700BF80B483B000AF0346FB714FF069
:1057C0006003C4F24223FA791A6007F10C07BD4660
:1057D00080BC704780B485B000AF78604FF00003A4
:1057E000FB604FF48053C4F202035B68FB60FB680C
:1057F00023F00303FB60FA687B681343FB604FF4FC
:105800008053C4F20203FA685A6007F11407BD46D8
:1058100080BC704780B400AF4FF48053C4F20203E1
:105820005B68DBB203F00C03DBB21846BD4680BCFC
:10583000704700BF80B485B000AF78604FF00003C0
:10584000FB604FF48053C4F202035B68FB60FB68AB
:1058500023F0F003FB60FA687B681343FB604FF4AE
:105860008053C4F20203FA685A6007F11407BD4678
:1058700080BC704780B485B000AF78604FF0000303
:10588000FB604FF48053C4F202035B68FB60FB686B
:1058900023F4E063FB60FA687B681343FB604FF41A
:1058A0008053C4F20203FA685A6007F11407BD4638
:1058B00080BC704780B485B000AF78604FF00003C3
:1058C000FB604FF48053C4F202035B68FB60FB682B
:1058D00023F46053FB607B684FEAC303FA68134309
:1058E000FB604FF48053C4F20203FA685A6007F178
:1058F0001407BD4680BC704780B483B000AF024639
:105900000B46FA71BB71BB79002B0ED041F2090333
:10591000C4F2020341F20902C4F202021278D1B2C7
:10592000FA790A43D2B21A7010E041F20903C4F2C4
:10593000020341F20902C4F202021278D1B2FA79EA
:105940006FEA0202D2B20A40D2B21A7007F10C0713
:10595000BD4680BC704700BF80B483B000AF7860A4
:105960004FF0D803C4F242237A681A6007F10C079B
:10597000BD4680BC704700BF80B485B000AF786082
:105980004FF00003FB604FF48053C4F202035B68E6
:10599000FB60FB6823F44043FB60FA687B681343B9
:1059A000FB604FF48053C4F20203FA685A6007F1B7
:1059B0001407BD4680BC704780B483B000AF034677
:1059C000FB714FF48153C4F202034FF000021A70CE
:1059D0004FF48153C4F202034FF000021A70FB79B6
:1059E000012B02D0042B08D00FE04FF48153C4F2F6
:1059F00002034FF001021A7008E04FF48153C4F221
:105A000002034FF005021A7000E000BF07F10C0717
:105A1000BD4680BC704700BF80B483B000AF034672
:105A2000FB714FF49063C4F24223FA791A6007F1D4
:105A30000C07BD4680BC704780B483B000AF78606F
:105A40004FF48053C4F202034FF48052C4F20202B6
:105A5000116A7A680A431A6207F10C07BD4680BCD6
:105A6000704700BF80B483B000AF0346FB7140F2C3
:105A70003C43C4F24223FA791A6007F10C07BD4691
:105A800080BC704780B487B000AF78604FF00003EF
:105A90007B614FF000033B614FF00003FB604FF070
:105AA0000003BB604FF48053C4F202035B6803F051
:105AB0000C037B617B69042B0AD0082B0FD0002BD1
:105AC0004DD17A684FF49053C0F27A0313604DE0E1
:105AD0007A684FF49053C0F27A03136046E04FF4B3
