:020000040800F2
:1000000000500020894A0008BD0B0008C90B0008F9
:10001000D10B0008D90B0008E10B0008000000001C
:10002000000000000000000000000000E90B0008D4
:10003000F50B000800000000010C00080D0C000882
:10004000D14A0008D34A0008D54A0008D74A000818
:10005000D94A0008DB4A0008DD4A0008DF4A0008E8
:10006000E14A0008E34A0008E54A0008E74A0008B8
:10007000E94A0008EB4A0008ED4A0008EF4A000888
:10008000F14A0008F34A0008F54A0008F74A000858
:10009000190C0008FB4A0008FD4A0008FF4A000846
:1000A000014B00085D0A0008054B0008074B0008DB
:1000B000094B00080B4B00080D4B00080F4B0008C4
:1000C000114B0008134B0008154B0008174B000894
:1000D000194B00081B4B00081D4B00081F4B000864
:1000E000214B0008234B0008250C000810B5054CD7
:1000F000237833B9044B13B10448AFF300800123D4
:10010000237010BD540500200000000040A8000826
:1001100008B5064B1BB106480649AFF300800648F8
:10012000036813B1054B03B1984708BD00000000F8
:1001300040A80008580500205405002000000000D9
:10014000154B002B08BF134B9D46A3F5803A0021A9
:100150008B460F461348144A121A0AF03DFA0F4B09
:10016000002B00D098470E4B002B00D09847002062
:10017000002104460D4600200C49002200230AF00D
:1001800085F90AF001FA2046294600F091FC0AF0B0
:10019000D5F900BF0000080000500020000000005A
:1001A0000000000054050020360700205DA500086F
:1001B00080B483B000AF4FF00003FB714FF0000339
:1001C000FB7158E0FA7940F28C53C2F200034FEA17
:1001D00002129B1803F104031B68002B47D0FA7925
:1001E00040F28C53C2F200034FEA02129B1803F153
:1001F0000C031A68F97940F28C53C2F200034FEAFB
:1002000001115B1803F108031B689A4217D2FA79AF
:1002100040F28C53C2F200034FEA02115B1803F163
:100220000C031B6803F1010140F28C53C2F200037E
:100230004FEA02129B1803F10C03196017E0FA79D8
:1002400040F28C53C2F200034FEA02129B184FF0A7
:1002500001021A60FA7940F28C53C2F200034FEAAD
:1002600002129B1803F10C034FF000021A60FB7995
:1002700003F10103FB71FB79002BA3D007F10C07FD
:10028000BD4680BC704700BF80B485B000AF7860C9
:1002900039604FF00003FB6040F28C53C2F2000360
:1002A0007A684FEA02129B1803F104031B68002BC3
:1002B00019D140F28C53C2F200037A684FEA02125D
:1002C0009B1803F108033A681A6040F28C53C2F29B
:1002D00000037A684FEA02129B1803F104034FF0FF
:1002E00001021A6002E04FF00103FB60FB68184650
:1002F00007F11407BD4680BC704700BF80B483B0CF
:1003000000AF0346FB714FF46143CEF2000397F94F
:1003100007204FEA5212F97901F01F014FF0010056
:1003200000FA01F143F8221007F10C07BD4680BC2A
:10033000704700BF80B582B000AF4FF005004FF0AE
:10034000010107F059FF4FF00803BB804FF0100385
:10035000FB714FF00303BB7107F104034FF400601E
:10036000C4F20100194606F0D3FF4FF400733B803E
:100370004FF01803FB704FF00303BB703B464FF484
:100380004060C4F20100194606F0C2FF07F10807F9
:10039000BD4680BD80B584B000AF4FF00803BB8080
:1003A0004FF00103BB714FF00003FB714FF00B03E3
:1003B0003B724FF004037B724FF00003BB724FF0AF
:1003C0000003FB724FF000033B734FF000037B739D
:1003D0004FF00003BB734FF00003FB7307F10403FE
:1003E0004FF4C840C4F20000194604F081FE4FF4F7
:1003F000C840C4F200004FF002014FF0010205F0C6
:100400000BFD4FF4C840C4F200004FF010014FF054
:10041000010205F001FD4FF4C840C4F200004FF0A6
:1004200001014FF0010205F0F7FC07F11007BD468E
:1004300080BD00BF80B586B000AF4FF442737B60D3
:1004400041F23423BB604FF000033B734FF00003D5
:100450007B734FF00803BB734FF00003FB734FF047
:1004600000033B744FF0B6037B744FF01D03BB7465
:100470004FF02F03FB744FF010033B754FF07E03DA
:100480007B754FF03003BB7507F104034FF4C84090
:10049000C4F20000194605F0F5F807F11807BD464B
:1004A00080BD00BF80B584B000AF4FF400604FF056
:1004B000010107F0A1FE07F10403184608F0EAFC69
:1004C00041F61F43BB804FF00003FB804FF00A034F
:1004D0003B8107F104034FF43050C4F20100194688
:1004E00008F044F94FF43050C4F201004FF001011C
:1004F0004FF0010208F0A2FD4FF43050C4F20100A9
:100500004FF0010108F052FD4FF01900FFF7F6FE21
:1005100007F11007BD4680BD80B582B000AF4FF037
:1005200080504FF0010107F091FE4FF008004FF0AE
:10053000010107F061FE4FF010004FF0010107F0DC
:100540005BFE4FF020004FF0010107F055FE4FF029
:100550004803FB714FF00103BB804FF00203BB71F6
:1005600007F104034FF48050C4F20100194606F06D
:10057000CFFE4FF04803FB714FF48053BB804FF028
:100580000203BB7107F104034FF4A050C4F2010051
:10059000194606F0BDFE4FF01003FB714FF0C80383
:1005A000BB804FF00203BB7107F104034FF40060FE
:1005B000C4F20100194606F0ABFE4FF4802005F0AE
:1005C000C9FF40F20063C2F200034FF480221A60B8
:1005D00040F20063C2F200034FF008025A7140F289
:1005E0000063C2F200034FF001029A7140F2006012
:1005F000C2F2000005F088FE07F10807BD4680BD85
:1006000080B500AF4FF0000007F04CFC4FF4000045
:100610004FF0010107F01AFE80BD00BF80B500AFAA
:1006200040F28053C2F200034FF003021A604FF011
:1006300001004FF0010107F0A7F980BD80B582B03D
:1006400000AF40F20C73C2F200037B607B689B7AC0
:10065000002B07D040F28053C2F200034FF0050296
:100660001A6006E040F28053C2F200034FF001022C
:100670001A6004F059FA07F10807BD4680BD00BFB3
:1006800080B582B000AF4FF4A06004F01BFC4FF0C7
:1006900014033B714FF002037B714FF00003BB71F9
:1006A0004FF00103FB7107F10403184604F01EFC30
:1006B0004FF02A033B714FF001037B7107F10403F4
:1006C000184604F013FC07F10807BD4680BD00BFC3
:1006D00080B582B000AF0346FB71FB79002B08D0D8
:1006E0004FF48050C4F201004FF4005106F064FF53
:1006F00007E04FF48050C4F201004FF4005106F0BF
:100700004DFF07F10807BD4680BD00BF80B485B02E
:1007100000AF78604FF00003FB604FF00203FB6016
:1007200010E07B681A7840F25463C2F20003F96863
:100730005B181A707B6803F101037B60FB6803F1AF
:100740000103FB60FB683B2BEBDD07F11407BD46A3
:1007500080BC704780B582B000AF4FF00003FB80D3
:100760004FF00003BB804FF48050C4F201004FF003
:10077000010106F0BBFE0346FB804FF4A050C4F21B
:1007800001004FF4805106F0B1FE0346BB8040F2F9
:10079000C053C2F200034FF004021A7040F2C0537B
:1007A000C2F200034FF002025A7040F2C053C2F28C
:1007B00000034FF000029A7040F2C053C2F20003EF
:1007C0004FF00102DA7040F20003C2F200034FF072
:1007D00000021A7040F25463C2F200034FF00402A8
:1007E0001A704FF4F040C0F60000FFF78FFF4FF093
:1007F000810040F25461C2F200014FF03C0204F06B
:10080000F3F84FF0010003F03BF9FB88DAB2BB8844
:100810004FEA4303DBB21343DBB2DBB2184607F106
:100820000807BD4680BD00BF80B584B000AF02465A
:100830000B46FA71BB714FF000033B734FF000039E
:100840007B73FB793B73BB797B7340F20003C2F28D
:1008500000034FF000021A7007F10C034FF0810003
:1008600019464FF0020204F0BFF84FF0010003F008
:1008700007F907F11007BD4680BD00BF80B584B001
:1008800000AF4FF2E873C1F6FF731B68FB604FF2D5
:10089000EC73C1F6FF731B68BB604FF2F073C1F6D7
:1008A000FF731B687B60FA687B68D318FB60FB688A
:1008B000002B0BD0F86807494FF0080200F00EF843
:1008C000B86805494FF0040200F008F807F1100776
:1008D000BD4680BD060000201600002080B487B011
:1008E00000AFF860B9601346FB714FF00003FB7571
:1008F0004FF00003FB7531E0FB684FEA1373092BDF
:100900000DD8FB7D4FEA4303BA68D318FA684FEA63
:100910001272D2B202F13002D2B21A700CE0FB7D38
:100920004FEA4303BA68D318FA684FEA1272D2B298
:1009300002F13702D2B21A70FB684FEA0313FB6070
:10094000FB7D4FEA430303F10103BA68D3184FF06C
:1009500000021A70FB7D03F10103FB75FA7DFB7940
:100960009A42C9D307F11C07BD4680BC704700BF3F
:1009700080B483B000AF0346FB714FF46143CEF205
:10098000000397F907204FEA5212F97901F01F018D
:100990004FF0010000FA01F143F8221007F10C07B3
:1009A000BD4680BC704700BF80B582B000AF4FF03D
:1009B00005004FF0010107F01FFC4FF00203BB8060
:1009C0004FF04803FB714FF00203BB7107F10403C2
:1009D0004FF40060C4F20100194606F099FC07F1DB
:1009E0000807BD4680BD00BF80B584B000AF4FF49E
:1009F00000604FF0010107F0FFFB07F10403184608
:100A000008F048FA41F2BF23BB804FF00003FB809F
:100A10004FF00A033B8107F104034FF43050C4F256
:100A20000100194607F0A2FE4FF43050C4F2010055
:100A30004FF001014FF0010208F000FB4FF430507D
:100A4000C4F201004FF0010108F0B0FA4FF01900B4
:100A5000FFF78EFF07F11007BD4680BD80B500AFE0
:100A60004FF43050C4F201004FF0010109F0D8FA00
:100A70000346002B09D04FF43050C4F201004FF070
:100A8000010109F0FDFAFFF793FB80BD80B483B04C
:100A900000AF786003E07B6803F1FF337B607B6825
:100AA000002BF8D107F10C07BD4680BC704700BF92
:100AB00080B582B000AFFFF777FF4FF000037B6097
:100AC0004FF40060C4F201004FF0020106F00EFD89
:100AD0000346002B03D04FF001037B6002E04FF090
:100AE00000037B607B68002B3DD1FFF715FDFFF70E
:100AF000C7FDFFF785FD02F0ABFA4FF000004FF0A5
:100B00006401FFF7C1FBFFF76FFF00E000BF40F299
:100B10008C53C2F200031B68012B12D14FF4006307
:100B2000C4F201034FF40062C4F20102D26882F001
:100B30000802DA6040F28C53C2F200034FF0000268
:100B40001A6040F28053C2F200031B68052BDDD10E
:100B500040F20003C2F200031B78DBB2002BD5D0B9
:100B6000FFF7F8FDD2E7FFF7E5FBFFF713FCFFF710
:100B700061FC4FF000004FF44871FFF785FBFFF771
:100B800091FC00E000BF40F28C53C2F200031B68EE
:100B9000012BF7D14FF40063C4F201034FF400625C
:100BA000C4F20102D26882F00802DA6040F28C538B
:100BB000C2F200034FF000021A60E3E780B400AF16
:100BC000BD4680BC704700BF80B400AFFEE700BFE9
:100BD00080B400AFFEE700BF80B400AFFEE700BF07
:100BE00080B400AFFEE700BF80B400AFBD4680BC5C
:100BF000704700BF80B400AFBD4680BC704700BFE7
:100C000080B400AFBD4680BC704700BF80B400AF69
:100C1000BD4680BC704700BF80B500AF00F072F8E1
:100C200080BD00BF80B500AF4FF4802005F092FC7E
:100C300080BD00BF80B582B000AF4FF000037B6085
:100C400005F0FCFC4FF00000C0F6010005F04AFD85
:100C50004FF000037B6016E07B6803F1007303F53F
:100C600080434FEA83031A4640F20C63C2F200034A
:100C700079685B181B781046194605F095FE7B686D
:100C800003F101037B607B68092BE5DD05F006FDC0
:100C900007F10807BD4680BD80B500AF4FF00100E9
:100CA00040F20C61C2F2000103F0C6FE40F20C6398
:100CB000C2F200039B78122B08D14FF40060C4F2FB
:100CC00001004FF0080106F069FC07E04FF40060F6
:100CD000C4F201004FF0080106F06EFC4FF0010075
:100CE0004FF4405102F034FE80BD00BF80B400AF2D
:100CF00040F20003C2F200034FF001021A70BD4639
:100D000080BC704780B58AB000AF4FF000037B62B3
:100D100045F64443C4F200031B689AB240F24C63A8
:100D2000C2F200031A8040F24C63C2F200031B8837
:100D30009BB203F4004240F23073C2F200031B88FE
:100D40001340002B01D002F0B1F940F24C63C2F223
:100D500000031B889BB203F4806240F23073C2F23E
:100D600000031B881340002B0CD045F64443C4F20B
:100D700000034FF6FF321A6040F25C03C2F2000338
:100D80005B68984740F24C63C2F200031B889BB239
:100D900003F4005240F23073C2F200031B88134088
:100DA000002B06D045F64443C4F200034DF6FF7213
:100DB0001A6040F24C63C2F200031B889BB203F43A
:100DC000805240F23073C2F200031B881340002BA4
:100DD0000AD045F64443C4F200034EF6FF721A608F
:100DE0004FF0000000F040FE40F24C63C2F20003FE
:100DF0001B889BB203F4006240F23073C2F200031E
:100E00001B881340002B28D040F2F003C2F20003ED
:100E10001B78DBB2002B15D040F28053C2F20003E6
:100E20001B68052B0ED14FF44063C4F201034FF44D
:100E30004062C4F20102D26842F08002DA6000F03F
:100E4000F3FC03E04FF0020000F00EFE45F64443D1
:100E5000C4F200034FF2FF721A6040F24C63C2F218
:100E600000031B889BB203F4007240F23073C2F29D
:100E700000031B881340002B14D045F64443C4F2F2
:100E800000034FF6FF521A6040F27053C2F20003A3
:100E90001B78DBB203F10103DAB240F27053C2F205
:100EA00000031A7040F24C63C2F200031B889BB22D
:100EB00003F4807240F23073C2F200031B881340C7
:100EC000002B00F0C88045F64443C4F200034FF6FF
:100ED000FF621A6045F64843C4F200031B689BB2E8
:100EE0001BB2002B80F2AC8040F27453C2F20003BC
:100EF0001B6803F1010240F27453C2F200031A604E
:100F000040F27453C2F200031B68032B40F29F802F
:100F100045F64043C4F200031B689BB203F008038C
:100F2000002B40F0948045F64043C4F200031B6858
:100F30009BB21A4640F27853C2F200031A604FF097
:100F400000037B6215E07B6A4FEA830303F1804371
:100F500003F5B8431B689BB21A467B6A4FEA8303CA
:100F600007F12801CB1843F8242C7B6A03F1010315
:100F70007B627B6A072BE6D940F27853C2F200030A
:100F80001B6843F0010240F27853C2F200031A607A
:100F900045F64043C4F2000340F27852C2F2000228
:100FA000126892B21A6040F27853C2F200031B68D2
:100FB00023F0010240F27853C2F200031A6045F6B2
:100FC0004043C4F2000340F27852C2F200021268B9
:100FD00092B21A6000BF45F64443C4F200031B6896
:100FE0009BB203F48063002BF5D045F64443C4F272
:100FF00000034FF6FF321A604FF000037B6214E0EB
:101000007B6A4FEA830303F1804303F5B8437A6AAE
:101010004FEA820207F128018A1852F8242C92B272
:101020001A607B6A03F101037B627B6A072BE7D9B5
:1010300040F27453C2F200034FF000021A6006E05F
:1010400040F27453C2F200034FF000021A604FF0F6
:10105000070000F009FD07F12807BD4680BD00BF6D
:1010600080B500AFFFF70AFC40F22C73C2F2000318
:101070001B684FF000029A7200F076FB03F094FCBC
:1010800040F28053C2F200034FF000021A6080BDAC
:1010900080B500AF40F22C73C2F200031B684FF022
:1010A00000029A7240F22C73C2F200031B684FF0E8
:1010B0000002DA7240F22C73C2F200031A684AF29C
:1010C0009473C0F60003DB7953724FF0000002F016
:1010D0007DFB4FF000004FF4007102F0C1FB4FF0B8
:1010E00000004FF0100102F0F9FB4FF000004FF04C
:1010F000180102F0A9FF4FF000004FF0580102F074
:101100007FFF4FF0000002F06BFD40F25C03C2F283
:10111000000393F82C304FF00000194603F050F80C
:101120004FF0000002F0D8FC4FF001004FF4C06116
:1011300002F096FB4FF001004FF4807102F060FF67
:101140004FF001004FF4A07102F07EFF4FF001005C
:101150004FF0400102F0DCFF4FF001004FF0400182
:1011600003F02EF84FF001004FF4405102F0F0FB75
:101170004FF001004FF0200102F0B0FB4FF00000F3
:1011800001F01CFF40F28053C2F200034FF0010255
:101190001A6080BD80B483B000AF40F20C73C2F21D
:1011A00000037B607B689B7A002B06D040F2805363
:1011B000C2F200034FF005021A6007F10C07BD46AA
:1011C00080BC704780B400AF40F28053C2F200038D
:1011D0004FF004021A60BD4680BC704780B596B0DF
:1011E00000AF78607B687B654FF002033B654FF092
:1011F0000003FB644FF00003BB644FF00003FB648B
:1012000025E040F29463C2F200033A6D9B181B780C
:101210001A463B6D03F1010140F29463C2F20003F0
:101220005B5C4FEA03239BB213439BB29AB2FB6C05
:101230004FEA430307F15801CB1823F8502C3B6DBC
:1012400003F102033B65FB6C03F10103FB64FB6CE0
:101250001F2BD6DD05F0F2F94FF40053C4F2020360
:101260004FF40052C4F20202126942F001021A6104
:101270004FF00003BB6411E0BB6C4FEA430307F17E
:101280005802D31833F8502C7B6D1A807B6D03F114
:1012900002037B65BB6C03F10103BB64BB6C1F2BBA
:1012A000EADD4FF40053C4F202034FF40052C4F2DB
:1012B0000202126922F001021A6105F0EFF907F14A
:1012C0005807BD4680BD00BF80B500AF40F29463B3
:1012D000C2F200035B78A3F1A1032B2B00F2BA80CA
:1012E00001A252F823F000BFAB130008BD130008A1
:1012F000CF130008E1130008F313000805140008D9
:101300001714000829140008551400089913000840
:101310005514000855140008551400085514000809
:1013200055140008551400085514000855140008F9
:1013300055140008551400085514000855140008E9
:1013400055140008551400085514000855140008D9
:1013500055140008551400085514000855140008C9
:1013600055140008551400085514000855140008B9
:1013700055140008551400085514000855140008A9
:101380005514000855140008551400085514000899
:10139000551400083B14000872B64FF4F040C0F634
:1013A0000000FFF71BFF62B654E072B647F640003C
:1013B000C0F60000FFF712FF62B64BE072B64FF4C2
:1013C000F140C0F60000FFF709FF62B642E072B6D6
:1013D00047F6C000C0F60000FFF700FF62B639E034
:1013E00072B64FF4F240C0F60000FFF7F7FE62B6A7
:1013F00030E072B647F64010C0F60000FFF7EEFE90
:1014000062B627E072B64FF4F340C0F60000FFF773
:10141000E5FE62B61EE072B647F6C010C0F60000E8
:10142000FFF7DCFE62B615E072B64FF4F440C0F68A
:101430000000FFF7D3FE62B60CE072B605F0FEF8CE
:101440004FF4F040C0F6000005F04CF905F026F925
:1014500062B600BF80BD00BF80B400AFBD4680BC97
:10146000704700BF80B584B000AF0346FB714FF0FA
:101470000003FB60FB79062B2DD140F22C73C2F2E6
:1014800000031B681B7803F07F03012B23D140F27C
:101490002C73C2F200031B685B79002B1BD140F256
:1014A0002C73C2F200031B689B78222B05D141F2FA
:1014B0007563C0F60003FB6031E040F22C73C2F2AA
:1014C00000031B689B78212B29D141F29D63C0F654
:1014D0000003FB6023E040F22C73C2F200031B68A0
:1014E0001B7803F07F03212B1AD1FB79032B02D049
:1014F000092B06D012E041F22D73C0F60003FB6009
:101500000EE041F26153C0F60003FB6040F27C53F1
:10151000C2F200034FF009021A7001E000E000BFC0
:10152000FB68002B02D14FF0020314E040F22C7351
:10153000C2F200031B68FA689A6140F22C73C2F28F
:1015400000031B684FF000025A82FB684FF0000056
:1015500098474FF00003184607F11007BD4680BDBD
:1015600080B483B000AF0346FB80FB88002B0AD118
:1015700040F22C73C2F200031B684FF040021A8243
:101580004FF0000303E040F29463C2F200031846F8
:1015900007F10C07BD4680BC704700BF80B582B024
:1015A00000AF0346FB7140F22C73C2F200031B68CC
:1015B0001B7803F07F03212B06D1FB790B2B03D182
:1015C00000F09CF8034601E04FF00203184607F1D3
:1015D0000807BD4680BD00BF80B582B000AF03469E
:1015E000FB80FB88184640F2B001C2F2000100F017
:1015F000C9FE0346184607F10807BD4680BD00BF77
:1016000080B582B000AF0346FB80FB88184640F2ED
:10161000B801C2F2000100F0B5FE0346184607F11A
:101620000807BD4680BD00BF80B584B000AF03464B
:10163000FB8040F22C73C2F200031B68DB78FB7363
:10164000FB7B042B02D94FF000030DE0FB7B4FEA3C
:10165000C30240F2D003C2F20003D318FA88104646
:10166000194600F08FFE0346184607F11007BD46E5
:1016700080BD00BF80B582B000AF0346FB80FB8811
:10168000184640F2C001C2F2000100F07BFE0346A2
:10169000184607F10807BD4680BD00BF80B582B07F
:1016A00000AF0346FB80FB88184640F2C801C2F237
:1016B000000100F067FE0346184607F10807BD4623
:1016C00080BD00BF80B483B000AF02460B46FA7104
:1016D000BB71BB79002B02D04FF0020307E0FB790E
:1016E000002B02D04FF0020301E04FF00003184638
:1016F00007F10C07BD4680BC704700BF80B483B0C3
:1017000000AF40F22C73C2F200031B68DB78FB7160
:10171000FA7940F25063C2F200031A604FF00003FE
:10172000184607F10C07BD4680BC704780B483B0F3
:1017300000AF0346FB80FB88002B0AD140F22C73DC
:10174000C2F200031B684FF001021A824FF000033F
:1017500003E040F25063C2F20003184607F10C07A1
:10176000BD4680BC704700BF80B582B000AF4FF06F
:101770000100FEF7ADFF4FF00103FB8045F640434B
:10178000C4F20003FA881A6040F23073C2F2000318
:101790004FF000021A8045F64043C4F2000340F2C5
:1017A0003072C2F2000212881A6045F64443C4F255
:1017B00000034FF000021A6040F23073C2F20003DF
:1017C0004FF4E0521A8045F64043C4F2000340F261
:1017D0003072C2F2000212881A604FF000031846FD
:1017E00007F10807BD4680BD80B500AF45F6404310
:1017F000C4F200034FF001021A6045F64443C4F2FC
:1018000000034FF000021A604FF00000FEF760FF87
:1018100045F64043C4F200034FF003021A604FF054
:101820000003184680BD00BF80B485B000AF4FF004
:101830000003FB604FF00003BB604FF000033B6010
:1018400045F64043C4F200031B68FB804FF00003E1
:10185000FB6014E0FB684FEA830303F1804303F568
:10186000B8431B689BB2194640F2DC63C2F2000326
:10187000FA6843F82210FB6803F10103FB60FB6880
:10188000072BE7D9FB8843F48063FB8045F6404390
:10189000C4F20003FA881A60FB8843F00103FB805E
:1018A00045F64043C4F20003FA881A60FB8823F02F
:1018B0000103FB8045F64043C4F20003FA881A6036
:1018C00000BF45F64443C4F200031B689BB203F417
:1018D0008063002BF5D045F64443C4F200034FF675
:1018E000FF321A604FF00003FB6013E0FB684FEA21
:1018F000830303F1804303F5B84340F2DC62C2F294
:101900000002F96852F8212092B21A60FB6803F1D4
:101910000103FB60FB68072BE8D9FB8843F0080351
:10192000FB8045F64043C4F20003FA881A6045F68E
:101930004043C4F200031B68FB80FB8843F00403B0
:10194000FB8045F64043C4F20003FA881A604FF466
:10195000E043C4F200031B683B604FF4E043C4F271
:1019600000031B68BB60BB6823F00303BB60BB685C
:1019700043F00103BB604FF4E043C4F20003BA68D4
:101980001A604FF46D43CEF200034FF46D42CEF275
:101990000002126942F004021A6145F64443C4F29F
:1019A00000031B689BB203F48053002B0DD130BFA2
:1019B0004FF46D43CEF200034FF46D42CEF20002BD
:1019C000126922F004021A6128E045F64443C4F289
:1019D00000034EF6FF721A6045F64043C4F200035E
:1019E0001B68FB80FB8823F00803FB8045F640431F
:1019F000C4F20003FA881A604FF4E043C4F2000313
:101A00003A681A604FF46D43CEF200034FF46D4212
:101A1000CEF20002126922F004021A6107F11407E3
:101A2000BD4680BC704700BF80B582B000AF45F6B0
:101A30004043C4F200031B68FB80FB8823F00403CF
:101A4000FB8045F64043C4F20003FA881A60FEF7B3
:101A5000F5FD45F64043C4F200034FF43F421A60DF
:101A600007F10807BD4680BD80B584B000AF0346CE
:101A7000FB714FF44063C4F201034FF44062C4F2BF
:101A80000102D26822F08002DA60FB79072B05D0D0
:101A900040F2D863C2F20003FA791A7040F2D863B8
:101AA000C2F200031B78DBB2052B00F2BA8001A260
:101AB00052F823F0CD1A0008FF1A0008211B000875
:101AC0003F1B00087B1B0008B91B000840F2845331
:101AD000C2F200031B68002B09D1FFF7A5FF40F2FB
:101AE000D863C2F200034FF006021A70A5E040F27C
:101AF000D863C2F200034FF005021A709DE0FFF7B1
:101B000093FF40F2D863C2F200034FF004021A7050
:101B100040F28453C2F200034FF001021A608CE0DD
:101B200040F2D863C2F200034FF002025A7040F252
:101B3000D863C2F200034FF003021A707DE040F256
:101B4000D863C2F200035B78DBB203F1FF33DAB291
:101B500040F2D863C2F200035A7040F2D863C2F276
:101B600000035B78DBB2002B64D140F2D863C2F291
:101B700000034FF004021A705CE045F64043C4F2E3
:101B800000031B68FB81FB8943F01003FB8145F6D2
:101B90004043C4F20003FA891A6040F2D863C2F2EB
:101BA00000034FF005021A7040F2D863C2F200033E
:101BB0004FF00A025A7040E040F2D863C2F20003CC
:101BC0005B78DBB203F1FF33DAB240F2D863C2F2E2
:101BD00000035A7040F2D863C2F200035B78DBB2B4
:101BE000002B29D145F64043C4F200031B68FB815A
:101BF000FB8923F01003FB8145F64043C4F2000348
:101C0000FA891A6040F2D863C2F200034FF006026C
:101C10001A7040F28453C2F200034FF000021A60BF
:101C20000AE040F2D863C2F200034FF006021A70D5
:101C300000BF02E000BF00E000BF07F11007BD4693
:101C400080BD00BF80B582B000AF0346FB80FB883B
:101C5000002B0AD140F22C73C2F200031B684FF034
:101C600001021A824FF000030DE040F22873C2F225
:101C700000031B681B68984740F22C73C2F20003F4
:101C80001B6803F10A03184607F10807BD4680BD2B
:101C900080B500AF40F22C73C2F200031B68DA7803
:101CA00040F25803C2F200035B789A4225D840F212
:101CB0002C73C2F200031B689B78002B1DD140F2ED
:101CC0002C73C2F200031B689B88002B15D140F2D5
:101CD0002C73C2F200031A6840F22C73C2F20003A4
:101CE0001B68DB78937240F22873C2F200031B6812
:101CF0005B6898474FF0000301E04FF0020318467D
:101D000080BD00BF80B582B000AF0346FB80FB887A
:101D1000002B0AD140F22C73C2F200031B684FF073
:101D200001021A824FF000030DE040F22873C2F264
:101D300000031B689B68984740F22C73C2F20003B3
:101D40001B6803F10C03184607F10807BD4680BD68
:101D500080B582B000AF40F20473C2F200031B688A
:101D60009A6940F22C73C2F200031B68597940F261
:101D70002C73C2F200031B68DB78084619469047B3
:101D80000346FB7140F22C73C2F200031B689B7A7E
:101D9000002B3AD0FB79002B0FD140F22C73C2F20A
:101DA00000031B681B79002B07D140F22C73C2F291
:101DB00000031B689B78002B02D04FF0020326E043
:101DC000FB79002B21D140F22873C2F200031B687B
:101DD000DB68984740F22C73C2F200031A6840F2A5
:101DE0002C73C2F200031B685B79D37240F22C7330
:101DF000C2F200031A6840F22C73C2F200031B689F
:101E0000DB7813734FF0000301E04FF00203184634
:101E100007F10807BD4680BD80B584B000AF03461A
:101E2000FB80FB88002B0AD140F22C73C2F2000326
:101E30001B684FF002021A824FF00003C5E040F227
:101E4000FC63C2F200034FF000021A8040F22C73D0
:101E5000C2F200031B681B7803F07F03002B47D1FD
:101E600040F22C73C2F200031B685B7AFB73FB7BAE
:101E700003F02003002B0DD040F2FC63C2F20003FC
:101E80001B7843F00203DAB240F2FC63C2F20003B3
:101E90001A700CE040F2FC63C2F200031B7823F0DE
:101EA0000203DAB240F2FC63C2F200031A70FB7B59
:101EB00003F04003002B0DD040F2FC63C2F200039C
:101EC0001B7843F00103DAB240F2FC63C2F2000374
:101ED0001A706FE040F2FC63C2F200031B7823F03B
:101EE0000103DAB240F2FC63C2F200031A7061E04F
:101EF00040F22C73C2F200031B681B7803F07F03CF
:101F0000012B04D140F2FC63C2F200035DE040F219
:101F10002C73C2F200031B681B7803F07F03022BB3
:101F200045D140F22C73C2F200031B685B79BB738E
:101F3000BB7B03F00F037B73BB7B5BB2002B1ADA16
:101F40007B7B4FEA830303F1804303F5B8431B68AF
:101F50009BB203F03003102B2CD140F2FC63C2F291
:101F600000031B7843F00103DAB240F2FC63C2F2D3
:101F700000031A701EE07B7B4FEA830303F180436A
:101F800003F5B8431B689BB203F44053B3F5805F7D
:101F900010D140F2FC63C2F200031B7843F001034E
:101FA000DAB240F2FC63C2F200031A7002E04FF0B2
:101FB00000030AE040F22873C2F200031B681B69A9
:101FC000984740F2FC63C2F20003184607F110077D
:101FD000BD4680BD90B587B000AF40F22C73C2F211
:101FE00000031B681B7803F07F033B613B69002BF8
:101FF00011D140F22C73C2F200031A6840F22C7324
:10200000C2F200031B685B7A23F02003DBB2537239
:102010004FF00003F1E03B69022B40F0EC8040F20E
:102020002C73C2F200031B685B88002B07D140F2BF
:102030002C73C2F200031B681B79002B02D04FF0F7
:102040000203DAE040F25803C2F20003FB6040F200
:102050002C73C2F200031B685B79BB60BB6823F082
:1020600080037B607B683B6040F22C73C2F200030C
:102070001B685B79DBB25BB2002B0CDA3B684FEA82
:10208000830303F1804303F5B8431B689BB203F05D
:1020900030037B610BE03B684FEA830303F180432D
:1020A00003F5B8431B689BB203F440537B61FB68A4
:1020B0001B781A467B689A420AD97B69002B07D0A5
:1020C00040F22C73C2F200031B689B7A002B02D1F2
:1020D0004FF0020391E0BB6803F08003002B19D09E
:1020E0003B684FEA830303F1804303F5B8431B6861
:1020F0009BB203F03003102B73D13B68DBB2184660
:1021000001F00EFF3B68DBB218464FF0300101F0E2
:10211000E5FB66E03B684FEA830303F1804303F588
:10212000B8431B689BB203F44053B3F5805F58D1AA
:102130003B68002B2ED13B68DAB240F25C03C2F25E
:10214000000393F82C301046194602F039F83B682A
:102150004FEA830303F1804303F5B8431B689BB246
:1021600023F4804323F070039CB284F480539CB228
:1021700084F400539CB23B684FEA830303F180422E
:1021800002F5B84248F28003CFF6FF7323439BB2B7
:10219000136026E03B68DBB2184601F091FE3B6815
:1021A0004FEA830303F1804303F5B8431B689BB2F6
:1021B00023F4804323F070039CB284F480539CB2D8
:1021C00084F400539CB23B684FEA830303F18042DE
:1021D00002F5B84248F28003CFF6FF7323439BB267
:1021E000136040F22873C2F200031B685B699847D2
:1021F0004FF0000301E04FF00203184607F11C07FF
:10220000BD4690BD90B585B000AF40F22C73C2F2D0
:1022100000031B685B79BB60BB6823F080037B60B5
:102220007B683B6040F22C73C2F200031B685B7951
:10223000DBB25BB2002B0CDA3B684FEA830303F19D
:10224000804303F5B8431B689BB203F03003FB6087
:102250000BE03B684FEA830303F1804303F5B84387
:102260001B689BB203F44053FB6040F25803C2F278
:1022700000031B781A463B689A4212D940F22C732D
:10228000C2F200031B685B88002B0AD1FB68002B9D
:1022900007D040F22C73C2F200031B689B7A002B1C
:1022A00002D14FF002034CE0BB6803F08003002B27
:1022B0001FD03B684FEA830303F1804303F5B84323
:1022C0001B689BB223F4E04323F040039CB284F0EC
:1022D00010039CB23B684FEA830303F1804202F58E
:1022E000B84248F28003CFF6FF7323439BB21360DA
:1022F0001EE03B684FEA830303F1804303F5B843D4
:102300001B689BB223F4804323F070039CB284F4D7
:1023100080539CB23B684FEA830303F1804202F58D
:10232000B84248F28003CFF6FF7323439BB2136099
:1023300040F22873C2F200031B689B6998474FF074
:102340000003184607F11407BD4690BD80B500AFE5
:1023500040F22C73C2F200031A6840F22C73C2F2EE
:1023600000031B685B7A43F02003DBB2537240F238
:102370002873C2F200031B68DB6998474FF0000323
:10238000184680BD80B485B000AF03463960FB803D
:1023900040F22C73C2F200031B685B8AFB60FB886F
:1023A000002B0ED140F22C73C2F200031B683A6876
:1023B0009188FA6892B28A1A92B21A824FF0000398
:1023C00003E03B681A68FB68D318184607F1140746
:1023D000BD4680BC704700BF80B584B000AF40F2FE
:1023E0002C73C2F200031B6803F11003BB60BB68CF
:1023F0001B887B60BB689B68002B2FD07B68002B01
:102400002CD0BB689B88FB60FA687B689A4201D934
:102410007B68FB60BB689B68FA6892B2104698477D
:102420003860BB681A88FB689BB2D31A9AB2BB6843
:102430001A80BB685A88FB689BB2D3189AB2BB68F3
:102440005A804FF0000001F043FE03461A46FB6835
:102450009BB2386811461A4601F022F9BB681B8806
:10246000002B13D040F23273C2F200034FF44052FB
:102470001A804FF000004FF0000101F049FE40F2D9
:102480003473C2F200034FF030021A80BB681A881E
:10249000BB689B889A4208D340F22C73C2F20003B7
:1024A0001B684FF003021A7230E0BB681B88002BD8
:1024B00008D040F22C73C2F200031B684FF00502F3
:1024C0001A7223E0BB681B88002B1FD140F22C73CB
:1024D000C2F200031B684FF006021A7245F6504321
:1024E000C4F200031B689BB21A4643F20203C2F215
:1024F0000003D3184FEA43034FF000021A6040F282
:102500003473C2F200034FF030021A8007F1100753
:10251000BD4680BD80B586B000AF40F22C73C2F2DC
:1025200000031B6803F11003FB60FB681B88BB60A2
:1025300040F22C73C2F200031B681B7A7B61BB68FC
:10254000002B37D17B69042B34D140F28853C2F27F
:1025500000031B78012B22D145F65043C4F200033F
:102560001B689BB21A4643F20203C2F20003D3185F
:102570004FEA43034FF000021A6040F23473C2F294
:1025800000034FF030021A804FF004037B6140F2E9
:102590008853C2F200034FF000021A7056E04FF069
:1025A00007037B6140F23473C2F200034FF0100264
:1025B0001A804BE0FB689B883B61BA683B699A4292
:1025C00002D84FF0040301E04FF002037B613A6947
:1025D000BB689A4201D9BB683B61FB689B683A695A
:1025E00092B21046984778604FF0000001F052FD1B
:1025F00003461A463B699BB2786811461A4601F0B9
:102600000BF83B699BB24FF00000194601F080FDCA
:10261000FB681A883B699BB2D31A9AB2FB681A808E
:10262000FB685A883B699BB2D3189AB2FB685A8000
:1026300040F23473C2F200034FF030021A8040F2CD
:102640003273C2F200034FF440521A8040F22C73EE
:10265000C2F200031B687A69D2B21A7207F1180736
:10266000BD4680BD80B584B000AF4FF00203FB7360
:1026700040F22C73C2F200031B685B787B6040F26F
:102680002C73C2F200031B681B7803F07F03002B3E
:1026900076D17B68092B04D1FFF7FAFA0346FB7366
:1026A0009EE07B68052B29D140F22C73C2F2000317
:1026B0001B68DB78DBB25BB2002B17DB40F22C73BC
:1026C000C2F200031B689B78002B0FD140F22C73E1
:1026D000C2F200031B689B88002B07D140F22C73C9
:1026E000C2F200031B689B7A002B03D04FF0080353
:1026F000BB60AEE04FF00003FB7371E07B68032B1F
:1027000018D140F22C73C2F200031B68DB78012B56
:102710000CD140F22C73C2F200031B689B88002B83
:1027200004D1FFF713FE0346FB7359E04FF0020399
:10273000FB7356E07B68012B52D140F22C73C2F23E
:1027400000031B68DB78012B16D140F22C73C2F218
:1027500000031B689B88002B0ED140F22C73C2F241
:1027600000031B685B7A03F02003002B04D0FFF703
:1027700031FC0346FB7334E04FF00203FB732FE0A0
:1027800040F22C73C2F200031B681B7803F07F0336
:10279000012B07D17B680B2B23D1FFF7D9FA034616
:1027A000FB731EE040F22C73C2F200031B681B781F
:1027B00003F07F03022B0FD17B68012B04D1FFF7BD
:1027C00009FC0346FB730CE07B68032B09D1FFF780
:1027D00019FD0346FB7304E04FF00203FB7300E0B6
:1027E00000BFFB7B002B12D040F20473C2F2000347
:1027F0001B685B697A68D2B2104698470346FB7340
:10280000FB7B032B03D14FF00903BB6021E0FB7B73
:10281000002B03D04FF00803BB601AE04FF0060313
:10282000BB6045F65043C4F200031B689BB21A46D6
:1028300043F20203C2F20003D3184FEA43034FF0FE
:1028400000021A6040F23473C2F200034FF030020B
:102850001A8040F22C73C2F200031B68BA68D2B22D
:102860001A7200BF07F11007BD4680BD80B58AB05F
:1028700000AF40F22C73C2F200031B685B78BB61AF
:102880004FF000037B624FF000037B61BB69062BB6
:1028900033D140F22C73C2F200031B681B7803F0A3
:1028A0007F03002B40F03C8140F22C73C2F2000306
:1028B0001B689B78FB74FB7C012B07D140F20473EF
:1028C000C2F200031B68DB697B6229E1FB7C022BFF
:1028D00007D140F20473C2F200031B681B6A7B62DB
:1028E0001EE1FB7C032B40F01B8140F20473C2F21B
:1028F00000031B685B6A7B6212E1BB69002B40F03E
:10290000B58040F22C73C2F200031B685B88002B79
:1029100040F0AC8040F22C73C2F200031B68DB88ED
:10292000022B40F0A38040F22C73C2F200031B681C
:102930001B79002B40F09A8040F22C73C2F2000306
:102940001B681B7803F07F03002B0DD140F22C7322
:10295000C2F200031B689B88002B05D141F6196366
:10296000C0F600037B62DAE040F22C73C2F200038F
:102970001B681B7803F07F03012B22D140F2047304
:10298000C2F200031B689A6940F22C73C2F2000382
:102990001B685B7918464FF0000190470346002BF7
:1029A00040F0BD8040F22C73C2F200031B689B7A9A
:1029B000002B00F0B48041F61963C0F600037B627F
:1029C000ADE040F22C73C2F200031B681B7803F0E9
:1029D0007F03022B40F0A38040F22C73C2F200036D
:1029E0001B685B7903F00F03FB6040F22C73C2F2AB
:1029F00000031B685B7903F07003BB6040F22C732B
:102A0000C2F200031B685B79DBB25BB2002B0CDA0D
:102A1000FB684FEA830303F1804303F5B8431B6867
:102A20009BB203F03003FB610BE0FB684FEA8303CA
:102A300003F1804303F5B8431B689BB203F4405392
:102A4000FB6140F25803C2F200031B781A46FB6890
:102A50009A4264D9BB68002B61D1FB69002B5ED020
:102A600041F61963C0F600037B6258E0BB69082B8E
:102A70000FD140F22C73C2F200031B681B7803F0E5
:102A80007F03002B4CD141F64543C0F600037B6227
:102A900046E0BB690A2B43D140F22C73C2F200031B
:102AA0001B681B7803F07F03012B39D140F22C7394
:102AB000C2F200031B689B7A002B31D040F22C73CA
:102AC000C2F200031B685B88002B29D140F22C73F3
:102AD000C2F200031B681B79002B21D140F22C733A
:102AE000C2F200031B68DB88012B19D140F204738A
:102AF000C2F200031B689A6940F22C73C2F2000311
:102B00001B685B7918464FF0000190470346002B85
:102B100006D141F60553C0F600037B6200E000BF1A
:102B20007B6A002B17D040F22C73C2F200031B68A3
:102B30007A6992B25A8240F22C73C2F200031B6887
:102B40007A6A9A617B6A4FF0000098474FF0000361
:102B500087F823301DE040F20473C2F200031B68C3
:102B60001A6940F22C73C2F200031B685B781846A6
:102B70009047034687F8233097F82330032B08D17A
:102B800040F22C73C2F200031B684FF009021A7264
:102B9000ACE040F22C73C2F200031B681A8A4FF6B5
:102BA000FF739A4208D140F22C73C2F200031B68F3
:102BB0004FF009021A7299E097F82330022B07D0E0
:102BC00040F22C73C2F200031B681B8A002B08D151
:102BD00040F22C73C2F200031B684FF008021A7215
:102BE00084E040F22C73C2F200031B681B78DBB256
:102BF0005BB2002B6ADA40F22C73C2F200031B684E
:102C0000DB887B6040F22C73C2F200031B681B8AD6
:102C10001A467B689A4208D940F22C73C2F200032C
:102C20001B687A6892B21A8240E040F22C73C2F2BA
:102C300000031B681A8A40F22C73C2F200031B685F
:102C4000DB889A4232D240F22C73C2F200031B6836
:102C50001A8A40F20473C2F200031B6893F82C3006
:102C60009A4207D240F28853C2F200034FF00002AA
:102C70001A701BE040F22C73C2F200031B681B8A1F
:102C80001A4640F20473C2F200031B6893F82C301A
:102C900092FBF3F103FB01F3D31A002B06D140F2B0
:102CA0008853C2F200034FF001021A7040F22C73F5
:102CB000C2F200031A6840F20473C2F200031B68F8
:102CC00093F82C309382FFF725FC0EE040F22C7332
:102CD000C2F200031B684FF003021A7240F2327313
:102CE000C2F200034FF440521A8000BF07F12807D8
:102CF000BD4680BD90B583B000AF4FF00103FB80AF
:102D000045F65043C4F200031B689BB21A4643F2D7
:102D10000403C2F20003D3184FEA43031B689BB2BB
:102D20004FEA430303F1804303F5C0433B6040F2A5
:102D30002C73C2F200031B681B7A092B4DD040F2A2
:102D40002C73C2F200031A683B681978117003F102
:102D500001033B6040F22C73C2F200031A683B6827
:102D60001978517003F101033B603A68FB884FEA20
:102D70004303D3183B6040F22C73C2F200031C687B
:102D80003B681A8803F102033B60104601F0F2FD34
:102D9000034663803A68FB884FEA4303D3183B60DD
:102DA00040F22C73C2F200031C683B681A8803F1DE
:102DB00002033B60104601F0DDFD0346A3803A6844
:102DC000FB884FEA4303D3183B6040F22C73C2F2F6
:102DD00000031B683A681288DA8040F22C73C2F252
:102DE00000031B684FF001021A7240F22C73C2F20A
:102DF00000031B68DB88002B02D1FFF733FC01E0E6
:102E0000FFF734FD00F0AAF80346184607F10C0757
:102E1000BD4690BD80B582B000AF40F22C73C2F2C7
:102E200000031B681B7A7B607B68022B02D07B68E7
:102E3000042B09D1FFF76EFB40F22C73C2F20003A2
:102E40001B681B7A7B6032E07B68062B2CD140F23A
:102E50002C73C2F200031B685B78052B19D140F27A
:102E60002C73C2F200031B681B7803F07F03002B56
:102E70000FD140F22C73C2F200031B68DB781846B6
:102E800000F09CF840F22873C2F200031B681B6A32
:102E9000984740F20473C2F200031B689B6898478E
:102EA0004FF008037B6002E04FF008037B6040F2C4
:102EB0002C73C2F200031B687A68D2B21A7200F057
:102EC0004DF80346184607F10807BD4680BD00BF10
:102ED00080B582B000AF40F22C73C2F200031B68D1
:102EE0001B7A7B607B68022B02D07B68042B03D1AA
:102EF0004FF008037B6020E07B68032B02D07B68E7
:102F0000052B09D1FFF768FA40F22C73C2F20003D7
:102F10001B681B7A7B6010E07B68072B0AD140F2AC
:102F20000473C2F200031B68DB6898474FF0080384
:102F30007B6002E04FF008037B6040F22C73C2F22A
:102F400000031B687A68D2B21A7200F007F80346D1
:102F5000184607F10807BD4680BD00BF80B500AF29
:102F600040F25C03C2F2000393F82C304FF00000F3
:102F7000194601F025F940F22C73C2F200031B68D8
:102F80001B7A082B0DD140F23273C2F200034FF4CA
:102F900080521A8040F23473C2F200034FF01002E4
:102FA0001A8040F22C73C2F200031B681B7A092BB3
:102FB00014BF00230123DBB2184680BD80B485B066
:102FC00000AF0346FB7140F25803C2F200031B78C6
:102FD000BB604FF00003FB6021E0FB68DBB24FEA0F
:102FE000830303F1804303F5B843FA68D2B24FEA92
:102FF000820202F1804202F5B842126892B2114692
:1030000040F60F720A4042F4004242F08002F96832
:10301000C9B20A431A60FB6803F10103FB60FA6856
:10302000BB689A42D9D345F64C43C4F20003FA79FF
:1030300062F07F02D2B21A6007F11407BD4680BC6D
:10304000704700BF80B400AFBD4680BC704700BF72
:1030500080B500AF40F22C73C2F2000340F20C7254
:10306000C2F200021A6040F22C73C2F200031B6825
:103070004FF002021A7240F20473C2F2000340F2EF
:103080005C02C2F200021A6040F22873C2F200032E
:1030900040F28C02C2F200021A6040F20473C2F2E3
:1030A00000031B681B68984780BD00BF90B583B0C4
:1030B00000AF4FF00003FB80F5E140F24C63C2F239
:1030C00000031B889BB2DBB203F00F03DAB240F2BD
:1030D0000873C2F200031A7040F20873C2F20003D0
:1030E0001B78002B40F06F814FF4B843C4F200030B
:1030F0001B689AB240F23273C2F200031A8040F2A7
:103100003273C2F200031B889BB203F030039AB201
:1031100040F23473C2F200031A8040F23273C2F2FA
:1031200000031B889BB203F440539AB240F23273FF
:10313000C2F200031A804FF4B843C4F200031B68C4
:103140009BB24BF6BF741C4084F4005484F02004FE
:103150004FF4B842C4F20002A1B248F28003CFF6A5
:10316000FF730B439BB2136040F24C63C2F2000347
:103170001B889BB203F01003002B5AD14FF4B843C5
:10318000C4F200034FF4B842C4F20002126892B2D3
:10319000114648F60F720A401A60FFF73BFE4FF4E3
:1031A000B843C4F200031B689BB24BF6BF741C40CB
:1031B00040F23273C2F200031B889BB203F48053C7
:1031C0009BB2002B01D084F4805440F23273C2F2DF
:1031D00000031B889BB203F400539BB2002B01D069
:1031E00084F4005440F23473C2F200031B889BB293
:1031F00003F010039BB2002B01D084F0100440F2C6
:103200003473C2F200031B889BB203F020039BB20D
:10321000002B01D084F020044FF4B842C4F2000225
:10322000A1B248F28003CFF6FF730B439BB2136049
:103230004BE14FF4B843C4F200031B689BB2FB8020
:10324000FB889BB203F40063002B5AD04FF4B843C1
:10325000C4F200034FF4B842C4F20002126892B202
:10326000114640F68F720A401A60FFF743FD4FF493
:10327000B843C4F200031B689BB24BF6BF741C40FA
:1032800040F23273C2F200031B889BB203F48053F6
:103290009BB2002B01D084F4805440F23273C2F20E
:1032A00000031B889BB203F400539BB2002B01D098
:1032B00084F4005440F23473C2F200031B889BB2C2
:1032C00003F010039BB2002B01D084F0100440F2F5
:1032D0003473C2F200031B889BB203F020039BB23D
:1032E000002B01D084F020044FF4B842C4F2000255
:1032F000A1B248F28003CFF6FF730B439BB2136079
:10330000E3E0FB889BB29BB21BB2002B80F2CB8028
:103310004FF4B843C4F200034FF4B842C4F20002C1
:10332000126892B2114640F68F720A401A60FFF797
:10333000CFFD4FF4B843C4F200031B689BB24BF6B9
:10334000BF741C4040F23273C2F200031B889BB270
:1033500003F480539BB2002B01D084F4805440F2DC
:103360003273C2F200031B889BB203F400539BB27A
:10337000002B01D084F4005440F23473C2F20003F5
:103380001B889BB203F010039BB2002B01D084F08A
:10339000100440F23473C2F200031B889BB203F0A6
:1033A00020039BB2002B01D084F020044FF4B842DC
:1033B000C4F20002A1B248F28003CFF6FF730B43C0
:1033C0009BB2136081E040F20873C2F200031B78E5
:1033D0004FEA830303F1804303F5B8431B689BB2B4
:1033E000FB80FB889BB29BB21BB2002B2ADA40F217
:1033F0000873C2F200031B784FEA830303F1804392
:1034000003F5B84340F20872C2F2000212784FEAA4
:10341000820202F1804202F5B842126892B211466D
:1034200040F68F720A401A6040F20873C2F200033D
:103430001B7803F1FF3240F23C03C2F2000353F861
:1034400022309847FB889BB203F08003002B2AD0E0
:1034500040F20873C2F200031B784FEA830303F1C2
:10346000804303F5B84340F20872C2F200021278BA
:103470004FEA820202F1804202F5B842126892B22B
:10348000114648F60F720A401A6040F20873C2F201
:1034900000031B7803F1FF3240F22003C2F2000365
:1034A00053F82230984745F64443C4F200031B68A2
:1034B0009BB21A4640F24C63C2F2000311461980D7
:1034C00093B21BB2002BFFF6F8AD07F10C07BD4617
:1034D00090BD00BF80B582B000AF4FF000037B60AD
:1034E00084E045F64443C4F2000347F6FF721A60D5
:1034F00040F24C63C2F200031B889BB2DBB203F0C4
:103500000F03DAB240F20873C2F200031A7040F2FD
:103510000873C2F200031B784FEA830303F1804370
:1035200003F5B8431B689BB27B607B6803F40043E0
:10353000002B2BD040F20873C2F200031B784FEA35
:10354000830303F1804303F5B84340F20872C2F2EB
:10355000000212784FEA820202F1804202F5B8427C
:10356000126892B2114640F68F720A401A6040F219
:103570000873C2F200031B7803F1FF3240F23C03F0
:10358000C2F2000353F8223098472FE07B6803F023
:103590008003002B2AD040F20873C2F200031B788C
:1035A0004FEA830303F1804303F5B84340F2087206
:1035B000C2F2000212784FEA820202F1804202F562
:1035C000B842126892B2114648F60F720A401A6069
:1035D00040F20873C2F200031B7803F1FF3240F29D
:1035E0002003C2F2000353F82230984745F64443C3
:1035F000C4F200031B689BB21A4640F24C63C2F24D
:1036000000031146198093B21BB2002BFFF669AF7D
:1036100007F10807BD4680BD80B489B000AF78606F
:1036200013460A467A803B803B8803F101034FEA48
:1036300063037B617B8803F1005303F540534FEA3A
:103640004303BB617B69FB6122E07B681B783B61C4
:103650007B6803F101037B607B681B784FEA0323DF
:103660001A463B691343FB60FB689AB2BB691A8038
:10367000BB6903F10203BB61BB6903F10203BB61D8
:103680007B6803F101037B60FB6903F1FF33FB619E
:10369000FB69002BD9D107F12407BD4680BC7047D8
:1036A00080B487B000AF786013460A467A803B80CA
:1036B0003B8803F101034FEA6303FB607B8803F15E
:1036C000005303F540534FEA43033B61FB687B61C2
:1036D00014E03B691B689AB27B681A807B6803F12F
:1036E00001037B603B6903F104033B617B6803F1E9
:1036F00001037B607B6903F1FF337B617B69002BF6
:10370000E7D107F11C07BD4680BC704780B483B089
:1037100000AF0346FB8045F64043C4F20003FA883D
:103720001A6007F10C07BD4680BC704780B400AF3B
:1037300045F64043C4F200031B689BB21846BD46E1
:1037400080BC704780B483B000AF0346FB8045F671
:103750004443C4F20003FA881A6007F10C07BD461F
:1037600080BC704780B400AF45F64443C4F2000308
:103770001B689BB21846BD4680BC704780B400AF42
:1037800045F64843C4F200031B689BB21846BD4689
:1037900080BC704780B483B000AF0346FB8045F621
:1037A0004C43C4F20003FA881A6007F10C07BD46C7
:1037B00080BC704780B400AF45F64C43C4F20003B0
:1037C0001B689BB21846BD4680BC704780B483B06E
:1037D00000AF0346FB8045F65043C4F20003F9886E
:1037E0004FF6F8720A401A6007F10C07BD4680BC1C
:1037F000704700BF80B400AF45F65043C4F20003E9
:103800001B689BB21846BD4680BC704780B483B02D
:1038100000AF02460B46FA71BB80FB794FEA830387
:1038200003F1804303F5B843BA881A6007F10C0727
:10383000BD4680BC704700BF80B483B000AF034674
:10384000FB71FB794FEA830303F1804303F5B8432F
:103850001B689BB2184607F10C07BD4680BC704739
:1038600080B483B000AF02460B46FA71BB80FB798F
:103870004FEA830303F1804303F5B843FA794FEA33
:10388000820202F1804202F5B842126892B222F43A
:10389000EC4222F0700291B2BA880A4392B292B21C
:1038A0001A6007F10C07BD4680BC704780B483B036
:1038B00000AF0346FB71FB794FEA830303F18043BA
:1038C00003F5B8431B689BB203F4C0639BB2184670
:1038D00007F10C07BD4680BC704700BF90B482B0B2
:1038E00000AF02460B46FA71BB80FB794FEA8303B7
:1038F00003F1804303F5B8431B689BB223F4E04314
:1039000023F040039CB2BB8803F010039BB2002B52
:1039100002D084F010039CB2BB8803F020039BB25A
:10392000002B02D084F020039CB2FB794FEA830382
:1039300003F1804202F5B84248F28003CFF6FF73EC
:1039400023439BB2136007F10807BD4690BC704744
:1039500090B482B000AF02460B46FA71BB80FB798F
:103960004FEA830303F1804303F5B8431B689BB21E
:1039700023F4804323F070039CB2BB8803F480538C
:103980009BB2002B02D084F480539CB2BB8803F41A
:1039900000539BB2002B02D084F400539CB2FB79FD
:1039A0004FEA830303F1804202F5B84248F28003F4
:1039B000CFF6FF7323439BB2136007F10807BD46A0
:1039C00090BC704780B584B000AF02460B46FA71D8
:1039D000BB71FB791846FFF72FFF0346FB81BB79CC
:1039E000012B0BD1FB794FEA830303F1804303F5ED
:1039F000B843FA8922F480521A600DE0BB79022B99
:103A00000AD1FB794FEA830303F1804303F5B843FE
:103A1000FA8922F010021A6007F11007BD4680BD36
:103A200080B483B000AF0346FB71FB794FEA830398
:103A300003F1804303F5B8431B689BB203F03003E6
:103A40009BB2184607F10C07BD4680BC704700BF0B
:103A500080B483B000AF0346FB71FB794FEA830368
:103A600003F1804303F5B8431B689BB203F4405352
:103A70009BB2184607F10C07BD4680BC704700BFDB
:103A800090B482B000AF0346FB71FB794FEA830329
:103A900003F1804303F5B8431B689BB223F4E04372
:103AA00023F040039CB284F010039CB284F0200306
:103AB0009CB2FB794FEA830303F1804202F5B842DE
:103AC00048F28003CFF6FF7323439BB2136007F1E4
:103AD0000807BD4690BC704790B482B000AF034663
:103AE000FB71FB794FEA830303F1804303F5B8438D
:103AF0001B689BB223F4804323F070039CB284F4D0
:103B000080539CB284F400539CB2FB794FEA830348
:103B100003F1804202F5B84248F28003CFF6FF730A
:103B200023439BB2136007F10807BD4690BC704762
:103B300080B483B000AF0346FB71FB794FEA830387
:103B400003F1804202F5B842FB794FEA830303F1A7
:103B5000804303F5B8431B689BB223F4F8734FEA24
:103B600003534FEA13539BB243F07F4343F47F0365
:103B700043F4014343F080039BB29BB2136007F10F
:103B80000C07BD4680BC704780B483B000AF0346CD
:103B9000FB71FB794FEA830303F1804202F5B842DF
:103BA000FB794FEA830303F1804303F5B8431B68B5
:103BB0009BB223F4F8734FEA03534FEA13539BB2BB
:103BC00043F07F4343F47F0343F4004343F0800317
:103BD0009BB29BB2136007F10C07BD4680BC7047D7
:103BE00080B483B000AF0346FB71FB794FEA8303D7
:103BF00003F1804202F5B842FB794FEA830303F1F7
:103C0000804303F5B8431B689BB223F4F8734FEA73
:103C100003534FEA13539BB243F07F4343F47F03B4
:103C200043F4004343F080039BB29BB2136007F15F
:103C30000C07BD4680BC704780B483B000AF03461C
:103C4000FB71FB794FEA830303F1804202F5B8422E
:103C5000FB794FEA830303F1804303F5B8431B6804
:103C60009BB223F4F8734FEA03534FEA13539BB20A
:103C700043F07F4343F47F0343F4014343F0800365
:103C80009BB29BB2136007F10C07BD4680BC704726
:103C900080B483B000AF0346FB71FB794FEA830326
:103CA00003F1804202F5B842FB794FEA830303F146
:103CB000804303F5B8431B689BB223F4F8734FEAC3
:103CC00003534FEA13539BB243F07F4343F47F0304
:103CD00043F4014343F080039BB29BB2136007F1AE
:103CE0000C07BD4680BC704780B483B000AF03466C
:103CF000FB71FB794FEA830303F1804202F5B8427E
:103D0000FB794FEA830303F1804303F5B8431B6853
:103D10009BB223F4F8734FEA03534FEA13539BB259
:103D200043F07F4343F47F0343F4004343F08003B5
:103D30009BB29BB2136007F10C07BD4680BC704775
:103D400080B483B000AF0346FB71FB794FEA830375
:103D500003F1804303F5B8431B689BB203F03003C3
:103D6000102B14BF00230123DBB2184607F10C0708
:103D7000BD4680BC704700BF80B483B000AF03462F
:103D8000FB71FB794FEA830303F1804303F5B843EA
:103D90001B689BB203F44053B3F5805F14BF00234C
:103DA0000123DBB2184607F10C07BD4680BC704703
:103DB00080B483B000AF0346FB71FB794FEA830305
:103DC00003F1804303F5B843FA794FEA820202F126
:103DD000804202F5B842126892B2114640F68F72E4
:103DE0000A401A6007F10C07BD4680BC704700BF4F
:103DF00080B483B000AF0346FB71FB794FEA8303C5
:103E000003F1804303F5B843FA794FEA820202F1E5
:103E1000804202F5B842126892B2114648F60F721B
:103E20000A401A6007F10C07BD4680BC704700BF0E
:103E300080B483B000AF0346FB71FB794FEA830384
:103E400003F1804303F5B843FA794FEA820202F1A5
:103E5000804202F5B842126892B2114640F60F72E3
:103E60000A4042F4404242F080021A6007F10C0717
:103E7000BD4680BC704700BF80B483B000AF03462E
:103E8000FB71FB794FEA830303F1804303F5B843E9
:103E9000FA794FEA820202F1804202F5B8421268D2
:103EA00092B2114640F60F720A4042F4004242F0CC
:103EB000C0021A6007F10C07BD4680BC704700BF06
:103EC00080B483B000AF0346FB71FB794FEA8303F4
:103ED00003F1804303F5B8431B689BB203F48043AE
:103EE000002B18D0FB794FEA830303F1804303F5DD
:103EF000B843FA794FEA820202F1804202F5B842F1
:103F0000126892B2114640F60F720A4042F44042E3
:103F100042F080021A6007F10C07BD4680BC704772
:103F200080B483B000AF0346FB71FB794FEA830393
:103F300003F1804303F5B8431B689BB203F04003D1
:103F4000002B18D0FB794FEA830303F1804303F57C
:103F5000B843FA794FEA820202F1804202F5B84290
:103F6000126892B2114640F60F720A4042F40042C3
:103F700042F0C0021A6007F10C07BD4680BC7047D2
:103F800080B483B000AF02460B46FA71BB71FB7977
:103F90004FEA830303F1804303F5B843FA794FEA0C
:103FA000820202F1804202F5B842126892B21146D2
:103FB00040F60F720A4042F4004242F08002B979A2
:103FC0000A431A6007F10C07BD4680BC704700BF6A
:103FD00080B483B000AF0346FB71FB794FEA8303E3
:103FE00003F1804303F5B8431B68DBB203F00F0312
:103FF000DBB2184607F10C07BD4680BC704700BF16
:1040000080B483B000AF02460B46FA71BB8045F620
:104010005043C4F200031B689BB21A46FB794FEA77
:10402000C303D31803F1005303F540534FEA43038E
:10403000BA884FEA520292B24FEA42021A6007F17E
:104040000C07BD4680BC704780B483B000AF024609
:104050000B46FA71BB8045F65043C4F200031B685F
:104060009BB21A46FB794FEAC303D21843F204030A
:10407000C2F20003D3184FEA4303BA884FEA520250
:1040800092B24FEA42021A6007F10C07BD4680BCAB
:10409000704700BF80B483B000AF0346FB7145F6A4
:1040A0005043C4F200031B689BB21A46FB794FEAE7
:1040B000C303D31803F1005303F540534FEA4303FE
:1040C0001B689BB2184607F10C07BD4680BC7047C1
:1040D00080B483B000AF0346FB7145F65043C4F291
:1040E00000031B689BB21A46FB794FEAC303D21840
:1040F00043F20403C2F20003D3184FEA43031B68E0
:104100009BB2184607F10C07BD4680BC704700BF44
:1041100080B483B000AF02460B46FA71BB8045F60F
:104120005043C4F200031B689BB21A46FB794FEA66
:10413000C303D21843F20203C2F20003D3184FEABA
:104140004303BA881A6007F10C07BD4680BC70476C
:1041500080B485B000AF78600B467B807B883E2BB7
:1041600015D97B884FEA5313FB817B8803F01F032B
:10417000002B03D1FB8903F1FF33FB81FB894FEA5D
:10418000832343F400431A467B681A6012E07B885D
:104190004FEA5303FB817B8803F00103002B03D01C
:1041A000FB8903F10103FB81FB894FEA83231A4654
:1041B0007B681A6007F11407BD4680BC704700BFDA
:1041C00080B485B000AF02460B46FA71BB8045F65D
:1041D0005043C4F200031B689BB21A46FB794FEAB6
:1041E000C303D21843F20603C2F20003D3184FEA06
:1041F0004303BB60BB883E2B15D9BB884FEA5313E2
:10420000FB81BB8803F01F03002B03D1FB8903F163
:10421000FF33FB81FB894FEA832343F400431A46B3
:10422000BB681A6012E0BB884FEA5303FB81BB886E
:1042300003F00103002B03D0FB8903F10103FB8191
:10424000FB894FEA83231A46BB681A6007F11407FB
:10425000BD4680BC704700BF80B483B000AF03464A
:10426000FB7145F65043C4F200031B689BB21A462B
:10427000FB794FEAC303D21843F20203C2F20003F0
:10428000D3184FEA43031B689BB24FEA83534FEAAC
:1042900093539BB2184607F10C07BD4680BC70478C
:1042A00080B483B000AF0346FB7145F65043C4F2BF
:1042B00000031B689BB21A46FB794FEAC303D2186E
:1042C00043F20603C2F20003D3184FEA43031B680C
:1042D0009BB24FEA83534FEA93539BB2184607F1C0
:1042E0000C07BD4680BC704780B483B000AF134656
:1042F0000246FA710A46BA807B8045F65043C4F202
:1043000000031B689BB21A46FB794FEAC303D3181C
:1043100003F1005303F540534FEA4303BA884FEAD1
:10432000520292B24FEA42021A6045F65043C4F27A
:1043300000031B689BB21A46FB794FEAC303D218ED
:1043400043F20403C2F20003D3184FEA43037A880E
:104350004FEA520292B24FEA42021A6007F10C078A
:10436000BD4680BC704700BF80B483B000AF02463A
:104370000B46FA71BB8045F65043C4F200031B683C
:104380009BB21A46FB794FEAC303D31803F10053DB
:1043900003F540534FEA4303BA884FEA520292B200
:1043A0004FEA42021A6007F10C07BD4680BC704715
:1043B00080B483B000AF02460B46FA71BB8045F66D
:1043C0005043C4F200031B689BB21A46FB794FEAC4
:1043D000C303D21843F20403C2F20003D3184FEA16
:1043E0004303BA884FEA520292B24FEA42021A607D
:1043F00007F10C07BD4680BC704700BF80B483B096
:1044000000AF0346FB7145F65043C4F200031B683E
:104410009BB21A46FB794FEAC303D31803F100534A
:1044200003F540534FEA43031B689BB2184607F15C
:104430000C07BD4680BC704780B483B000AF034614
:10444000FB7145F65043C4F200031B689BB21A4649
:10445000FB794FEAC303D21843F20403C2F200030C
:10446000D3184FEA43031B689BB2184607F10C07A9
:10447000BD4680BC704700BF80B487B000AF134614
:104480000246FA710A46BA71BB80BB79012B3FD153
:1044900045F65043C4F200031B689BB21A46FB79F1
:1044A0004FEAC303D21843F20203C2F20003D31847
:1044B0004FEA43033B61BB883E2B15D9BB884FEACB
:1044C0005313FB82BB8803F01F03002B03D1FB8A2D
:1044D00003F1FF33FB82FB8A4FEA832343F400435B
:1044E0001A463B691A602AE0BB884FEA5303FB82F5
:1044F000BB8803F00103002B03D0FB8A03F1010307
:10450000FB82FB8A4FEA83231A463B691A6016E056
:10451000BB79022B13D145F65043C4F200031B684C
:104520009BB21A46FB794FEAC303D21843F2020347
:10453000C2F20003D3184FEA4303BA881A60BB796A
:10454000012B3FD145F65043C4F200031B689BB2D8
:104550001A46FB794FEAC303D21843F20603C2F2AC
:104560000003D3184FEA4303FB60BB883E2B15D9E9
:10457000BB884FEA5313BB82BB8803F01F03002B99
:1045800003D1BB8A03F1FF33BB82BB8A4FEA83238B
:1045900043F400431A46FB681A602AE0BB884FEADE
:1045A0005303BB82BB8803F00103002B03D0BB8AFB
:1045B00003F10103BB82BB8A4FEA83231A46FB68DF
:1045C0001A6016E0BB79022B13D145F65043C4F2B2
:1045D00000031B689BB21A46FB794FEAC303D2184B
:1045E00043F20603C2F20003D3184FEA4303BA882A
:1045F0001A6007F11C07BD4680BC704780B485B0C7
:1046000000AF13460246FA710A46BA71BB80BB7905
:10461000012B3FD145F65043C4F200031B689BB207
:104620001A46FB794FEAC303D21843F20203C2F2DF
:104630000003D3184FEA4303BB60BB883E2B15D958
:10464000BB884FEA5313FB81BB8803F01F03002B89
:1046500003D1FB8903F1FF33FB81FB894FEA8323FD
:1046600043F400431A46BB681A602AE0BB884FEA4D
:104670005303FB81BB8803F00103002B03D0FB89AC
:1046800003F10103FB81FB894FEA83231A46BB68D0
:104690001A6016E0BB79022B13D145F65043C4F2E1
:1046A00000031B689BB21A46FB794FEAC303D2187A
:1046B00043F20203C2F20003D3184FEA4303BA885D
:1046C0001A6007F11407BD4680BC704780B485B0FE
:1046D00000AF13460246FA710A46BA71BB80BB7935
:1046E000012B3FD145F65043C4F200031B689BB237
:1046F0001A46FB794FEAC303D21843F20603C2F20B
:104700000003D3184FEA4303BB60BB883E2B15D987
:10471000BB884FEA5313FB81BB8803F01F03002BB8
:1047200003D1FB8903F1FF33FB81FB894FEA83232C
:1047300043F400431A46BB681A602AE0BB884FEA7C
:104740005303FB81BB8803F00103002B03D0FB89DB
:1047500003F10103FB81FB894FEA83231A46BB68FF
:104760001A6016E0BB79022B13D145F65043C4F210
:1047700000031B689BB21A46FB794FEAC303D218A9
:1047800043F20603C2F20003D3184FEA4303BA8888
:104790001A6007F11407BD4680BC704780B483B02F
:1047A00000AF0346FB7145F65043C4F200031B689B
:1047B0009BB21A46FB794FEAC303D21843F20203B5
:1047C000C2F20003D3184FEA43031B689BB24FEABF
:1047D00083534FEA93539BB2184607F10C07BD462B
:1047E00080BC704780B483B000AF0346FB7145F6D0
:1047F0005043C4F200031B689BB21A46FB794FEA90
:10480000C303D21843F20603C2F20003D3184FEADF
:1048100043031B689BB24FEA83534FEA93539BB207
:10482000184607F10C07BD4680BC704780B483B0C2
:1048300000AF0346FB7145F65043C4F200031B680A
:104840009BB21A46FB794FEAC303D21843F2060320
:10485000C2F20003D3184FEA43031B689BB203F470
:104860007C43002B02D04FF001031EE045F650437D
:10487000C4F200031B689BB21A46FB794FEAC303DC
:10488000D21843F20203C2F20003D3184FEA4303E3
:104890001B689BB24FEA83534FEA9353002B02D01D
:1048A0004FF0020301E04FF00003184607F10C0738
:1048B000BD4680BC704700BF80B483B000AF0246E5
:1048C0000B46FA71BB71BB79012B19D1FB794FEA09
:1048D000830303F1804303F5B843FA794FEA820278
:1048E00002F1804202F5B842126892B2114640F6D7
:1048F0000F720A4042F4004242F0C0021A601BE00C
:10490000BB79022B18D1FB794FEA830303F1804373
:1049100003F5B843FA794FEA820202F1804202F5C8
:10492000B842126892B2114640F60F720A4042F441
:10493000404242F080021A6007F10C07BD4680BC7D
:10494000704700BF80B485B000AF02460B46FA71D5
:10495000BB71BB799AB2FB794FEA03239BB2134335
:104960009BB2FB81FB89184607F11407BD4680BC4A
:10497000704700BF80B485B000AF0346FB80FB8862
:10498000FB73FB884FEA13239BB29AB2FB7B4FEA7F
:1049900003239BB213439BB2BB81BB89184607F12B
:1049A0001407BD4680BC704780B400AF45F6444351
:1049B000C4F200034FF000021A6040F23073C2F2FA
:1049C00000034FF43F421A8045F64043C4F200030F
:1049D00040F23072C2F2000212881A604FF00003F7
:1049E0001846BD4680BC704780B584B000AF034612
:1049F000B9607A60FB73FB7B03F07F03DBB2184680
:104A0000FFF748FB03461A467B689BB2B86811461D
:104A10001A46FEF701FEFB7B03F07F03DAB27B68E8
:104A20009BB210461946FFF773FB4FF00003184680
:104A300007F11007BD4680BD80B584B000AF0346C6
:104A40003960FB714FF00003FB60FB7903F07F03DB
:104A5000DBB21846FFF724FC0346FB60FB7903F04A
:104A60007F03DBB21846FFF733FB03461A46FB68A9
:104A70009BB2386811461A46FEF712FEFB681846CC
:104A800007F11007BD4680BD0749084A084B9A4206
:104A9000BEBF51F8040B42F8040BFFF7F8BF0548FE
:104AA00080470548004700004CA80008000000208F
:104AB00054050020294B000841010008FEE7FEE7ED
:104AC000FEE7FEE7FEE7FEE7FEE7FEE7FEE7FEE7BE
:104AD000FEE7FEE7FEE7FEE7FEE7FEE7FEE7FEE7AE
:104AE000FEE7FEE7FEE7FEE7FEE7FEE7FEE7FEE79E
:104AF000FEE7FEE7FEE7FEE7FEE7FEE7FEE7FEE78E
:104B0000FEE7FEE7FEE7FEE7FEE7FEE7FEE7FEE77D
:104B1000FEE7FEE7FEE7FEE7FEE7FEE7FEE7FEE76D
:104B2000FEE7FEE7FEE700BF80B500AF4FF480531D
:104B3000C4F202034FF48052C4F20202126842F03F
:104B400001021A604FF48052C4F202024FF4805303
:104B5000C4F2020359684FF00003CFF6FF030B4085
:104B600053604FF48053C4F202034FF48052C4F2F6
:104B70000202126822F0847222F480321A604FF42A
:104B80008053C4F202034FF48052C4F2020212684E
:104B900022F480221A604FF48053C4F202034FF4CF
:104BA0008052C4F20202526822F4FE025A604FF4AC
:104BB0008053C4F202034FF41F029A6000F0A6F87B
:104BC00080BD00BF80B485B000AF4FF00003FB6034
:104BD0004FF00003BB604FF000037B604FF4805345
:104BE000C4F202035B6803F00C03FB60FB68042B58
:104BF0000DD0082B15D0002B5CD140F2F403C2F28B
:104C000000034FF49052C0F27A021A605CE040F266
:104C1000F403C2F200034FF49052C0F27A021A6019
:104C200052E04FF48053C4F202035B6803F4701344
:104C3000BB604FF48053C4F202035B6803F480331B
:104C40007B60BB684FEA934303F10203BB607B6860
:104C5000002B0CD1BA684FF41063C0F23D0303FB84
:104C600002F240F2F403C2F200031A602CE04FF4A7
:104C70008053C4F202035B6803F40033002B0CD0B2
:104C8000BA684FF41063C0F23D0303FB02F240F236
:104C9000F403C2F200031A6016E0BA684FF49053AE
:104CA000C0F27A0303FB02F240F2F403C2F2000303
:104CB0001A6009E040F2F403C2F200034FF490528C
:104CC000C0F27A021A6000BF4FF48053C4F20203AC
:104CD0005B6803F0F0034FEA131240F2F803C2F2EC
:104CE00000039B5CDBB2FB6040F2F403C2F2000302
:104CF0001A68FB6822FA03F240F2F403C2F20003DE
:104D00001A6007F11407BD4680BC704780B500AF3C
:104D100000F002F880BD00BF80B483B000AF4FF058
:104D200000037B604FF000033B604FF48053C4F2FC
:104D300002034FF48052C4F20202126842F480323D
:104D40001A604FF48053C4F202031B6803F400336B
:104D50003B607B6803F101037B603B68002B03D160
:104D60007B68B3F5A06FECD14FF48053C4F202031B
:104D70001B6803F40033002B03D04FF001033B60AA
:104D800002E04FF000033B603B68012B40F0948051
:104D90004FF40053C4F202034FF40052C4F2020273
:104DA000126842F010021A604FF40053C4F202037A
:104DB0004FF40052C4F20202126822F003021A6099
:104DC0004FF40053C4F202034FF40052C4F2020243
:104DD000126842F002021A604FF48053C4F20203D8
:104DE0004FF48052C4F2020252685A604FF480536A
:104DF000C4F202034FF48052C4F2020252685A60B5
:104E00004FF48053C4F202034FF48052C4F2020202
:104E1000526842F480625A604FF48053C4F2020335
:104E20004FF48052C4F20202526822F47C125A609B
:104E30004FF48053C4F202034FF48052C4F20202D2
:104E4000526842F4E8125A604FF48053C4F20203ED
:104E50004FF48052C4F20202126842F080721A606B
:104E600000BF4FF48053C4F202031B6803F00073C9
:104E7000002BF6D04FF48053C4F202034FF480525B
:104E8000C4F20202526822F003025A604FF48053C7
:104E9000C4F202034FF48052C4F20202526842F09C
:104EA00002025A6000BF4FF48053C4F202035B68F1
:104EB00003F00C03082BF6D107F10C07BD4680BCAC
:104EC000704700BF80B483B000AF78604FF46D438B
:104ED000CEF200037A6842F0BF6242F40032DA6038
:104EE00007F10C07BD4680BC704700BF80B487B097
:104EF00000AF78604FF000037B614FF000033B612F
:104F00004FF00F03FB607B68DB78002B47D04FF43A
:104F10006D43CEF20003DB686FEA030303F4E06342
:104F20004FEA13237B617B69C3F104033B617B6917
:104F3000FA6822FA03F3FB607B685B781A463B69E8
:104F400002FA03F37B617B689B781A46FB68134087
:104F50007A6913437B617B694FEA03137B614FF4EA
:104F60006143CEF200037A68127811467A69D2B2B0
:104F70005B1883F800234FF46143CEF200037A6894
:104F800012784FEA5212D2B27968097801F01F0103
:104F90004FF0010000FA01F143F8221014E04FF441
:104FA0006143CEF200037A6812784FEA5212D2B20D
:104FB0007968097801F01F014FF0010000FA01F152
:104FC00002F1200243F8221007F11C07BD4680BC05
:104FD000704700BF80B483B000AF786039604FF491
:104FE0006D43CEF200033A6822F0604222F07F0265
:104FF00079680A439A6007F10C07BD4680BC704788
:1050000080B483B000AF02460B46FA71BB71BB7926
:10501000002B0CD04FF46D43CEF200034FF46D42E1
:10502000CEF200021169FA790A431A610DE04FF4D9
:105030006D43CEF200034FF46D42CEF200021169CF
:10504000FA796FEA02020A401A6107F10C07BD46BD
:1050500080BC704780B483B000AF78607B68042B5D
:105060000CD14EF21003CEF200034EF21002CEF23B
:105070000002126842F004021A600BE04EF21003C4
:10508000CEF200034EF21002CEF20002126822F0BD
:1050900004021A6007F10C07BD4680BC704700BFD0
:1050A00080B582B000AF78607A684FF4C843C4F22C
:1050B00000039A420CD14FF000704FF0010103F051
:1050C00019F94FF000704FF0000103F013F90BE0F5
:1050D0004FF080604FF0010103F00CF94FF0806059
:1050E0004FF0000103F006F907F10807BD4680BD47
:1050F00080B485B000AF786039604FF00003FB7377
:105100004FF00003BB607B681B6823F002027B68E2
:105110001A607B681B6843F001027B681A6003E039
:10512000BB6803F10103BB607B685B6803F00103AC
:10513000002B04D1BA684FF6FF739A42F0D17B6816
:105140005B6803F00103002B03D14FF00003FB73F6
:10515000A5E03B689B79012B06D17B681B6843F077
:1051600080027B681A6005E07B681B6823F0800280
:105170007B681A603B68DB79012B06D17B681B6872
:1051800043F040027B681A6005E07B681B6823F0EF
:1051900040027B681A603B681B7A012B06D17B6852
:1051A0001B6843F020027B681A6005E07B681B687F
:1051B00023F020027B681A603B685B7A012B06D1E2
:1051C0007B681B6843F010027B681A6005E07B680F
:1051D0001B6823F010027B681A603B689B7A012BE6
:1051E00006D17B681B6843F008027B681A6005E003
:1051F0007B681B6823F008027B681A603B68DB7AD7
:10520000012B06D17B681B6843F004027B681A609F
:1052100005E07B681B6823F004027B681A603B682A
:105220009B784FEA83723B68DB784FEA03631A434B
:105230003B681B794FEA03431A433B685B794FEAAB
:1052400003531A433B681B8803F1FF331A437B68FF
:10525000DA617B681B6823F001027B681A604FF0FB
:105260000003BB6003E0BB6803F10103BB607B6824
:105270005B6803F00103002B04D0BA684FF6FF739C
:105280009A42F0D17B685B6803F00103002B03D0E6
:105290004FF00003FB7302E04FF00103FB73FB7B55
:1052A000184607F11407BD4680BC704780B485B02E
:1052B00000AF78604FF00003FB607B689B7A4FF093
:1052C000010202FA03F3FB604FF4C843C4F2000387
:1052D0004FF4C842C4F20002D2F8002242F00102A8
:1052E000C3F800224FF4C843C4F200034FF4C8428D
:1052F000C4F20002D2F81C12FA686FEA02020A40F5
:10530000C3F81C227B681B7B002B33D14FF4C843AE
:10531000C4F200034FF4C842C4F20002D2F80C12E7
:10532000FA686FEA02020A40C3F80C224FF4C8433D
:10533000C4F200037A68927A7968C9884FEA01401A
:1053400079684988014302F1480243F832104FF46A
:10535000C842C4F200027B689B7A796889884FEA68
:10536000014079680988014303F148034FEAC30308
:10537000D31859607B681B7B012B31D14FF4C84394
:10538000C4F200034FF4C842C4F20002D2F80C1277
:10539000FA680A43C3F80C224FF4C843C4F200036E
:1053A0007A68927A796809884FEA01407968498871
:1053B000014302F1480243F832104FF4C842C4F2EC
:1053C00000027B689B7A796889884FEA0140796896
:1053D000C988014303F148034FEAC303D318596056
:1053E0007B68DB7A002B10D14FF4C843C4F2000372
:1053F0004FF4C842C4F20002D2F80412FA686FEA0D
:1054000002020A40C3F804220DE04FF4C843C4F27C
:1054100000034FF4C842C4F20002D2F80412FA6842
:105420000A43C3F804227B681B89002B0FD14FF479
:10543000C843C4F200034FF4C842C4F20002D2F8D9
:105440001412FA686FEA02020A40C3F814227B6859
:105450001B89012B0DD14FF4C843C4F200034FF454
:10546000C842C4F20002D2F81412FA680A43C3F820
:1054700014227B685B7B012B0DD14FF4C843C4F22F
:1054800000034FF4C842C4F20002D2F81C12FA68BA
:105490000A43C3F81C224FF4C843C4F200034FF47C
:1054A000C842C4F20002D2F8002222F00102C3F87E
:1054B000002207F11407BD4680BC704780B483B05A
:1054C00000AF78607B684FF000029A717B684FF004
:1054D0000002DA717B684FF000021A727B684FF0AD
:1054E00000025A727B684FF000029A727B684FF09C
:1054F0000002DA727B684FF000029A707B684FF00E
:105500000002DA707B684FF003021A717B684FF07B
:1055100002025A717B684FF001021A8007F10C07F2
:10552000BD4680BC704700BF80B483B000AF034667
:10553000FB714FF4C843C4F200034FF4C842C4F2F5
:105540000002D2F8002242F00102C3F800224FF418
:10555000C843C4F200034FF4C842C4F20002D2F8B8
:10556000002222F47C5222F00E02C3F800224FF4F3
:10557000C843C4F200034FF4C842C4F20002D2F898
:105580000012FA794FEA02220A43C3F800224FF4CC
:10559000C843C4F200034FF4C842C4F20002D2F878
:1055A000002222F00102C3F8002207F10C07BD46D9
:1055B00080BC704780B483B000AF78600B46FB704E
:1055C000FB78002B06D07B681B6843F480327B6835
:1055D0001A6005E07B681B6823F480327B681A60E0
:1055E00007F10C07BD4680BC704700BF80B483B094
:1055F00000AF78600B46FB70FB78002B1ED07B68F9
:105600001B6843F080027B681A607B68D3F88431A2
:1056100043F480727B68C3F884217B68D3F89431AB
:1056200043F480727B68C3F894217B68D3F8A4317B
:1056300043F480727B68C3F8A4211DE07B681B687B
:1056400023F080027B681A607B68D3F8843123F4EE
:1056500080727B68C3F884217B68D3F8943123F48B
:1056600080727B68C3F894217B68D3F8A43123F45B
:1056700080727B68C3F8A42107F10C07BD4680BC8B
:10568000704700BF80B485B000AF786039604FF0DC
:105690000003FB737B689B6803F08063002B03D0DF
:1056A0004FF00003FB7316E07B689B6803F0006318
:1056B000002B03D04FF00103FB730CE07B689B6869
:1056C00003F08053002B03D04FF00203FB7302E082
:1056D0004FF00403FB73FB7B042B00F0BA80FB7BD1
:1056E000FA7B796802F118024FEA02128A181268EE
:1056F00002F00102796803F118034FEA0313CB1893
:105700001A603B681B7A002B18D1FB7BFA7B796807
:1057100002F118024FEA02128A1811683A681268F8
:105720004FEA42503A68527A02430A43796803F1D9
:1057300018034FEA0313CB181A601AE0FB7BFA7BBD
:10574000796802F118024FEA02128A1811683A6861
:1057500052684FEAC2003A68127A10433A68527AA5
:1057600002430A43796803F118034FEA0313CB1885
:105770001A603B689B7A03F00F03DAB23B689A72B7
:10578000FB7BFA7B796802F118024FEA02128A1851
:10579000526822F00F02796803F118034FEA0313ED
:1057A000CB185A60FB7BFA7B796802F118024FEA4A
:1057B00002128A1851683A68927A0A43796803F1AA
:1057C00018034FEA0313CB185A60FB7B3A68927BAD
:1057D0004FEA02613A68527B4FEA024211433A684B
:1057E000127B4FEA022211433A68D27A0A4379685F
:1057F0004FEA0313CB1803F5C4731A60FB7B3A68B6
:10580000927C4FEA02613A68527C4FEA02421143AD
:105810003A68127C4FEA022211433A68D27B0A436B
:1058200079684FEA0313CB1803F5C4735A60FB7B06
:10583000FA7B796802F118024FEA02128A1812689C
:1058400042F00102796803F118034FEA0313CB1801
:105850001A60FB7B184607F11407BD4680BC7047F1
:1058600080B485B000AF78600B46FB704FF000034A
:10587000FB60FB78012B0CD0022B13D0002B1AD12C
:105880007B689A684FF00303C0F200431340FB604B
:1058900015E07B689A684FF44073C0F6000313402C
:1058A000FB600CE07B689A684FF00003C1F20303D1
:1058B0001340FB6003E04FF00003FB6000BFFB6898
:1058C0004FF48072C0F6000293422FD04FF48072E2
:1058D000C0F6000293420ED84FF00102C0F200421F
:1058E00093421FD04FF00302C0F20042934225D0F2
:1058F000002B13D02EE04FF00002C1F201029342C0
:1059000018D04FF00002C1F2030293421ED04FF4B0
:105910004072C0F60002934214D01BE04FF0020325
:10592000FB601BE04FF00003FB6017E04FF000034B
:10593000FB6013E04FF00003FB600FE04FF001034A
:10594000FB600BE04FF00103FB6007E04FF0010349
:10595000FB6003E04FF00003FB6000BFFB68DBB2BD
:10596000184607F11407BD4680BC704780B483B069
:1059700000AF78600B46FB70FB78012B0AD0022B3E
:105980000FD0002B14D17B689B6843F080027B68AA
:105990009A600EE07B689B6843F400427B689A60E3
:1059A00007E07B689B6843F400027B689A6000E034
:1059B00000BF07F10C07BD4680BC704780B485B0BE
:1059C00000AFF8600B467A60FB72FB7AFA6803F16D
:1059D0001B034FEA0313D3181B68DBB203F0040365
:1059E000DAB27B681A727B681B7A002B0CD1FB7AC7
:1059F000FA6803F11B034FEA0313D3181B684FEA3D
:105A000053527B681A600BE0FB7AFA6803F11B03C0
:105A10004FEA0313D3181B684FEAD3027B685A601E
:105A2000FB7AFA6803F11B034FEA0313D3181B68D0
:105A3000DBB203F00203DAB27B685A72FB7AFA68CF
:105A400003F11B034FEA0313D3185B68DBB203F0C7
:105A50000F03DAB27B689A72FB7AFA6803F11B03D0
:105A60004FEA0313D3185B684FEA1323DAB27B685B
:105A7000DA74FB7AFA684FEA0313D31803F5DC7380
:105A80001B68DAB27B68DA72FB7AFA684FEA0313B2
:105A9000D31803F5DC731B684FEA1323DAB27B6873
:105AA0001A73FB7AFA684FEA0313D31803F5DC7311
:105AB0001B684FEA1343DAB27B685A73FB7AFA68C1
:105AC0004FEA0313D31803F5DC731B684FEA136323
:105AD000DAB27B689A73FB7AFA684FEA0313D31839
