:020000040800F2
:1000000000500020ED1C00085106000855060008AD
:10001000590600085D06000861060008000000009F
:10002000000000000000000000000000650600085D
:1000300069060008000000006D0600085105000870
:10004000351D0008371D0008391D00083B1D00083C
:100050003D1D00083F1D0008411D0008431D00080C
:10006000451D0008471D0008491D00084B1D0008DC
:100070004D1D00084F1D0008511D0008531D0008AC
:10008000551D0008571D0008591D00085B1D00087C
:10009000710600085F1D0008611D0008631D00084F
:1000A000651D000855050008691D00086B1D000846
:1000B0006D1D00086F1D0008711D0008731D0008EC
:1000C000751D0008771D0008791D00087B1D0008BC
:1000D0007D1D00087F1D0008811D0008831D00088C
:1000E000851D0008871D00087506000810B5054C21
:1000F000237833B9044B13B10448AFF300800123D4
:10010000237010BD2C050020000000008C27000883
:1001100008B5064B1BB106480649AFF300800648F8
:10012000036813B1054B03B1984708BD00000000F8
:100130008C270008300500202C050020000000005E
:10014000154B002B08BF134B9D46A3F5803A0021A9
:100150008B460F461348144A121A02F0E3F90F4B6C
:10016000002B00D098470E4B002B00D09847002062
:10017000002104460D4600200C490022002302F015
:100180002BF902F0A7F92046294600F0F9F902F010
:100190007BF900BF000008000050002000000000B4
:1001A000000000002C0500204A070020A9240008B8
:1001B00070B4002483B08DF807408DF807409DF897
:1001C0000730082B33D81B4964200A4601250EE06E
:1001D00002EB0313DE680136DE609DF80730013361
:1001E000DBB28DF807309DF80730082B1FD89DF83B
:1001F000073001EB03135B68002BEED09DF807304E
:1002000002EB0313DE689DF8073002EB03139B68D3
:1002100000FB03F3013B9E429DF80730D8D31B013E
:10022000D5509DF8073002EB0313DC60D5E703B02F
:1002300070BC704764050020002382B08DF8073041
:10024000074B03EB0010436833B101238DF80730EF
:100250009DF8070002B07047012381604360F7E713
:100260006405002030B4CAB1551EEDB2013500233B
:100270006D001C4607E03032CA54CA180233000130
:10028000AB4254700AD0020F092AF4D93732CA544B
:10029000CA1802330001AB425470F4D130BC70472D
:1002A00070B5012182B04FF0805001F0E7FF0820C7
:1002B000012101F0D5FF1020012101F0D1FF202004
:1002C000012101F0CDFF4FF4805001230224482585
:1002D00001A9C4F201001E46ADF804308DF80750A4
:1002E0008DF8064001F04CFF4FF4A05001A94FF4E7
:1002F0008053C4F20100ADF804308DF807508DF83A
:10030000064001F03DFF10234FF4406001A98DF835
:100310000730C4F20100C423ADF804308DF8064064
:1003200001F02EFF4FF4802001F044FE40F20C63F8
:10033000C2F200034FF480221A60184608225A7154
:100340009E7101F0F9FD02B070BD00BF002008B53C
:1003500001F080FF4FF400000121BDE8084001F0EA
:100360008DBF00BF054B9B7A23B9054B01221A6054
:1003700001F00CBD024B05221A60F9E720070020AE
:100380005805002010B54FF4A06082B001F08CFD3C
:1003900014238DF804300223012401A88DF80530C0
:1003A00000238DF806308DF8074001F087FD2A23E1
:1003B00001A88DF804308DF8054001F07FFD02B0F2
:1003C00010BD00BF38B94FF48050C4F201004FF4A3
:1003D000005101F03BBF4FF48050C4F201004FF4D4
:1003E000005101F035BF00BF4FF480502DE9F041BE
:1003F0000121C4F2010001F023FF07464FF4A05091
:100400004FF48051C4F2010001F01AFF184B02248E
:1004100004215C708046012400201970154E9870EC
:10042000DC70154B4BF6FF724CF2390518703170C9
:10043000C0F60002C0F6000512F8011F44F20203E4
:100440009419CFF2FF73E318AA421970094BF3D144
:1004500019461122812044249C7201F021FC0120C4
:1004600001F020FB47EA4800C0B2BDE8F08100BFC0
:10047000F805002068060020000000204FF2E87216
:100480004FF2F073C1F6FF72C1F6FF7312681B687A
:100490004FF2EC71C1F6FF71D01810B50C6800D1A5
:1004A00010BD08220449FFF7DDFE0449204604225E
:1004B000BDE81040FFF7D6BE060000201600002061
:1004C00000B5092083B0012101F0CAFE4FF480532A
:1004D000ADF804304FF4406048238DF80730C4F283
:1004E0000100022301A98DF8063001F049FE03B096
:1004F00000BD00BF10B5012184B04FF4006001F0D1
:10050000AFFE01A801F036FF4FF4305441F2BF2393
:10051000C4F20104ADF80430002301A92046ADF86F
:1005200006300A23ADF8083001F0C4FE01210A4666
:10053000204601F037FF2046012101F025FF4FF44E
:100540006143CEF200034FF000721A6004B010BD98
:10055000FFF72EBE4FF4305008B5C4F20100012160
:1005600001F02AFF00B908BD4FF43050C4F2010079
:10057000012101F02DFFBDE80840FFF719BE00BFC3
:100580002DE9F843FFF79CFF4FF44060C4F20100EF
:100590004FF4805101F054FE50B3FFF781FEFFF796
:1005A000F1FEFFF7D3FE01F0FFF814210020FFF762
:1005B00043FEFFF79FFF214C4FF44066204DDFF8CC
:1005C0008C90A046C4F2010600272368012B01BFCE
:1005D000F36883F00403F360C8F800702B68052B00
:1005E000F3D199F80030002BEFD0FFF7FDFEECE7D8
:1005F0004FF48042C0F6000200231168C2F6FE7379
:100600000B40B3F1005F02D00020BDE8F88344F254
:100610000403C0F600031B680A490B600A490B601B
:10062000136883F308884FF40060C4F2010001F0FE
:1006300033FD054B1B689847E6E700BF64050020C3
:1006400058050020180600201C060020000000208D
:10065000704700BFFEE700BFFEE700BFFEE700BF38
:10066000FEE700BF704700BF704700BF704700BF84
:1006700000F028B84FF4802001F09CBC10B50C4C61
:100680000120214601F020FBA3784FF440600421B3
:10069000122BC4F2010008D001F0DAFD01204FF462
:1006A0004051BDE8104001F0DDB901F0CFFDF5E7A4
:1006B0002006002040F20003C2F2000301221A705B
:1006C000704700BF45F64443C4F200031B6870B591
:1006D000714C9BB2714D238022882B8888B01A40C0
:1006E00002F4004292B2002A71D1228802F48062A0
:1006F000134260D1228802F4005213421FBF45F614
:100700004442C4F200024DF6FF711160228802F4E7
:100710008052134243D1228802F40062134212D065
:100720005F4B1B7823B15F4B1B68052B00F0A88043
:10073000022000F03DFB45F64442C4F200024FF2B5
:10074000FF712B881160228802F4007213420BD0D3
:1007500045F64441544AC4F200014FF6FF50086088
:1007600011780131C9B21170228802F480721342EB
:1007700013D045F644424FF6FF61C4F2000245F63D
:1007800048431160C4F200031B68190423D4474B8B
:1007900000221A60072000F00BFB08B070BD45F680
:1007A0004443C4F200034EF6FF721A60002000F0CA
:1007B000FFFA2B88AFE745F64443C4F200034FF637
:1007C000FF321A603A4B5B6898472B8892E701F03A
:1007D0000DF82B8889E735490B6801330B600B68EE
:1007E000032BD7D945F64042C4F20002136813F038
:1007F0000803CFD110682F4D80B24FF4B842286063
:10080000C4F2000252F8044B08AE06EB8300013339
:10081000A4B2082B40F8204CF4D12A6845F6404396
:1008200042F001022A602A68C4F2000392B21A6000
:100830002A6845F6444022F001022A602A68C4F280
:10084000000092B21A60026845F644435205C4F2B1
:100850000003F8D54FF4B8424FF6FF301860C4F2E9
:100860000002002308AC04EB830050F8200C013395
:1008700080B2082B42F8040BF4D100230B6089E707
:100880004FF44063C4F20103DA6842F08002DA6098
:1008900000F0FAF94FE700BF60060020440700208F
:1008A000F0000020580500204C05002050050020D5
:1008B0006000002048050020034B9B7A13B1034BD6
:1008C00005221A60704700BF20070020580500204D
:1008D00040F25853C2F2000304221A60704700BF6E
:1008E000704700BF164B062810B51A6806D012785C
:1008F00002F07F02212A10D0022010BD117801F0F1
:100900007F010129F8D151790029F5D19278222A65
:1009100014D0212AF0D10B4A06E003280CD0092874
:10092000EAD10949094A08701B68002420469A61E7
:100930005C829047204610BD054AF5E7054AF3E77B
:1009400040070020BD09000854050020590900088F
:10095000A5090008C909000808B103487047034BFE
:1009600040221B681A827047A8060020400700201A
:10097000074B1B681A7802F07F02212A01D002205F
:1009800070470B28FBD1DA78024B00201A607047C1
:10099000400700206406002009B1022070470028AB
:1009A000FBD1704708B103487047034B01221B6815
:1009B0001A827047640600204007002040F2B4010C
:1009C000C2F2000100F038BC40F2BC01C2F20001EA
:1009D00000F032BC054B1B68DB78042B04D80449BB
:1009E00001EBC30100F028BC002070474007002045
:1009F000CC00002040F25801C2F2000100F01CBC03
:100A000040F2C401C2F2000100F016BC40F2407393
:100A100042F2E862C2F20003C0F60002D2791B681B
:100A200010B500245A729C72DC72204600F0E4FF7C
:100A300020464FF4007100F0E9FF2046102100F03D
:100A4000F1FF2046182101F097F85821204601F0C7
:100A500081F8204601F04AF840F26003C2F2000338
:100A600093F82C10204601F0CBF8204601F02CF82A
:100A700001204FF4C06100F0C9FF01204FF48071E4
:100A800001F068F801204FF4A07101F075F8012021
:100A9000402101F0A5F80120402101F0B1F801202A
:100AA0004FF4405100F0DEFF2021012000F0BAFF9A
:100AB000204600F025FE40F25853C2F20003012206
:100AC0001A6010BD10B5FFF7D9FC40F24073C2F2B6
:100AD00000031B6800249C7200F0BAF801F0CAF809
:100AE00040F25853C2F200031C6010BDF0B5184B21
:100AF00091B007460446ADF1020203F14006DD78ED
:100B000013F8021F41EA0521B34222F8021FF6D171
:100B100001F056FA4FF40053C4F202031A6907F1C8
:100B2000400142F001021A616A46D21BA35A24F81E
:100B3000023B8C42FAD14FF40053C4F202031A690B
:100B400022F001021A6111B0BDE8F04001F048BA8C
:100B5000A806002008B53D4B5B78A13B2B2B23D882
:100B6000DFE803F0232C353E47505962226B2222E6
:100B70002222222222222222222222222222222255
:100B80002222222222222222222222222222221651
:100B900072B601F015FA4FF44040C0F6000001F0C3
:100BA0005BFA01F01DFA62B608BD72B64CF2400065
:100BB000C0F60000FFF79AFF62B608BD72B64CF2AD
:100BC0008000C0F60000FFF791FF62B608BD72B664
:100BD0004CF2C000C0F60000FFF788FF62B608BD07
:100BE00072B64FF44140C0F60000FFF77FFF62B6D7
:100BF00008BD72B64CF24010C0F60000FFF776FF59
:100C000062B608BD72B64CF28010C0F60000FFF765
:100C10006DFF62B608BD72B64CF2C010C0F600009F
:100C2000FFF764FF62B608BD72B64FF44240C0F6EB
:100C30000000FFF75BFF62B608BD72B64FF440409C
:100C4000C0F60000FFF752FF62B608BDA8060020FC
:100C500038B50120FFF7B6FB45F6444545F640435D
:100C600040F24472C4F2000300214FF4E05401202A
:100C7000C4F20005C2F2000218601960084629603B
:100C800014801C6038BD00BF70B4002383B045F6EB
:100C90004041C4F2000101934FF4B8420D683B4952
:100CA000C4F2000252F8040B80B241F82300013371
:100CB000082BF7D1AAB24FF6FE7442F4806245F6D3
:100CC00040432C40C4F2000342F0010644F4806526
:100CD00045F644401A60C4F200001E601D600268C0
:100CE00045F644435205C4F20003F8D54FF4B84228
:100CF0004FF6FF301860C4F20002002351F82300C1
:100D0000013380B2082B42F8040BF7D145F640437B
:100D1000C4F2000344F481641C601A684FF4E0419B
:100D200092B242F004021A60C4F2000108684FF463
:100D30006D4201900868CEF2000220F0030040F0FE
:100D400001000860146945F6444044F0040414614D
:100D5000C4F20000046814F4805F10D04EF6FF74F3
:100D600004601C684FF6F77020401860019B0B6010
:100D7000136923F00403136103B070BC704730BFE4
:100D8000136923F004031361F6E700BFF0060020A7
:100D900010B545F64044C4F2000422684FF6FB73D8
:100DA00013402360FFF7DEFA4FF43F43236010BD8A
:100DB0004FF44063C4F20103DA6810B52C4C22F002
:100DC00080020728DA6018BF20702378052B19D815
:100DD000DFE803F01B222A2F3A036378013BDBB2E2
:100DE0006370637883B945F64042C4F2000210682C
:100DF0004FF6EF71014011601D4A062111701D4A26
:100E0000136010BD0623237010BD1A4B1B68002B06
:100E100028D00523237010BDFFF7BAFF04232370E9
:100E2000144B01221A6010BD022363700323237048
:100E300010BD6378013BDBB263706378002BE3D1B4
:100E40000B4B04221A7010BD45F64043C4F2000358
:100E50001A6892B242F010021A60052323700A2326
:100E6000637010BDFFF794FF0623237010BD00BF11
:100E7000EC0600205C05002008B538B1064B1B6865
:100E80001B689847054B18680A3008BD034B0122C0
:100E90001B681A8208BD00BF3C07002040070020E5
:100EA00008B538B1064B1B689B689847054B186816
:100EB0000C3008BD034B01221B681A8208BD00BF1D
:100EC0003C0700204007002008B500283BD0234BFA
:100ED000234800211A680180137813F07F0312D190
:100EE000537A03F02002D2B25ABB027803F04003D7
:100EF000DBB213B342F0010202701A4B1B681B698C
:100F00009847174808BD012B16D0022B13D15379EF
:100F100003F00F02920002F1804202F5B84213F092
:100F2000800F136814D103F44053B3F5805FE4D10C
:100F300001230370E1E7084608BD22F001020270B8
:100F4000DBE70222D2E7054B02221B681A8208BDAA
:100F500003F03003102BD0D1EAE700BF4007002098
:100F6000100700203C0700202DE9F8432B4E346881
:100F7000238A207A002B08BF042814BF4FF00008F2
:100F80004FF001080AD1264B1A78012A30D0254BA0
:100F9000102207271A802772BDE8F883A78AA26962
:100FA0009F4234BF3D461D462846BB428CBF0227A8
:100FB000042790478146404600F0F2FD2A4601464C
:100FC000484600F0EDFC2946404600F009FE238A21
:100FD000628A5B1B2382134BAD1830221A80658214
:100FE000114B34684FF440521A802772BDE8F883E1
:100FF00045F65042C4F20002116843F2020289B27F
:10100000C2F200028A18520000211160054A04272A
:101010003020108019702772BDE8F8834007002047
:1010200060050020480700204607002010B50B4B44
:101030000B4A1B685178DA78914201D2022010BD28
:1010400099780029FAD19C88002CF7D19A72054B27
:101050001B685B689847204610BD00BF4007002012
:10106000EC0000203C07002038B5104A104C1268F4
:10107000236892695879D978904723689A7A0AB98F
:10108000022038BD0028FBD11A79002AF8D19D78BA
:10109000002DF5D1074B1B68DB689847236828466D
:1010A0005979DA78D9721A7338BD00BF1807002051
:1010B000400700203C07002038B5354B1B681878E6
:1010C00010F07F0003D0022806D0022038BD5A7AE3
:1010D00022F020025A7238BD5A88002AF6D11A79B5
:1010E000002AF3D15A7922F08000810001F1804476
:1010F000150604F5B84456BF2468256804F4405525
:10110000244C48BF05F030052478A042DDD2002DE4
:10111000DBD09B7A002BD8D002F08003DBB273B116
:1011200001F1804303F5B8431B6803F03003102B33
:1011300021D0194B1B685B699847002038BD01F12D
:10114000804101F5B844236803F44053B3F5805F50
:10115000EFD1C8B9114B93F82C1000F051FD226863
:101160004BF68F73134083F4405343F4004343F032
:1011700080032360DDE7C4B2204600F0D9FC20469E
:10118000302100F04FFCD4E700F0C0FCE7E700BFDF
:1011900040070020EC0000203C07002060000020F9
:1011A00038B5224B19684B7923F08002900000F18A
:1011B00080441D0604F5B84456BF2468256804F42D
:1011C00040551B4C48BF05F030052478A24201D39E
:1011D000022038BD4A88002AFAD1002DF8D08A7A38
:1011E000002AF5D003F0800300F1804202F5B842F6
:1011F000DBB211687BB148F6BF730B4083F010037C
:1012000043F4004343F0800313600A4B1B689B695F
:101210009847002038BD4BF68F730B4083F4805302
:1012200043F4004343F080031360EEE740070020DF
:10123000EC0000203C070020054B1B685A8A10B1C7
:1012400008688018704789888A1A1A82704700BF18
:101250004007002008B50C4B002093F82C1000F03C
:10126000CFFC0A4B1B68187A082806D1084B4FF4AC
:1012700080521A80074B10221A80B0F1090CDCF161
:10128000000050EB0C0008BD60000020400700206B
:1012900046070020480700202DE9F041354D2C6815
:1012A000237A022B18BF042B14BF0026012605D079
:1012B000032B18BF052B07D0072B0ED00823237252
:1012C000BDE8F041FFF7C6BFA169238A11B35BB93E
:1012D000A38A002B49D0284A2EE0284B1B68DB68E4
:1012E00098472C680823EAE7A78A9F4228BF1F4631
:1012F00038468847228A638AD21BFB18638280465D
:101300002282304600F05CFC3A460146404600F03E
:1013100061FB238A002BDBD00020194B01464FF4E0
:1013200040521A8000F05CFC238AA18A124A3020C5
:101330009942108019D9A3B92C68062145F650436B
:101340002172C4F20003196843F2020389B2C2F2A7
:101350000003CB185B000021196030231380237A2F
:10136000ADE72C6805232372A9E72C6803232372B9
:10137000A5E700BF4007002048070020180700200D
:101380004607002070B545F65043C4F200039E4D59
:101390001A682C6843F2040392B2C2F20003D31815
:1013A000227A5B00092A82B01E6845D0B6B2760068
:1013B00006F1804606F5C046337823707378637073
:1013C000B08800F051FC608030892C6800F04CFC43
:1013D000A080B3892C680122E3802272002B30D0D8
:1013E0006178062900F0878000295ED16388002B90
:1013F00000F09480854E336808461B69984703289F
:101400002B6862D01A8A4FF6FF718A425DD002289B
:101410000CD05AB193F900100029C0F2B580032214
:101420001A727B4B4FF440521A8001E008221A7264
:10143000FFF710FF02B070BDE38801222272002B7B
:10144000CED12378667813F07F0341D1092E00F0C6
:10145000FD80052E00F0BF80032E00F0E580012EF8
:101460003BD1E378012B38D1A388002B35D1637AA7
:1014700003F02003DBB2002B2FD0FFF71DFE60BB73
:101480002C6845F65043C4F200031A6843F2020385
:1014900092B2C2F20003D3185B0000221A605D4AC8
:1014A0000623302111802372C2E7082948D123780E
:1014B0005B069FD1584B0020A361608298472B6840
:1014C0004FF6FF711A8A8A42A3D109221A72AFE736
:1014D000012B71D0022B00F08D804C4B30461B68E5
:1014E0005B699847032800F0BA802C680028C8D0B0
:1014F000082323729CE723785B067FF47BAFA378F5
:10150000424E012B00F0A580022B5ED0032B7FF40E
:1015100072AF33685B6A002BCDD16CE7636823F44C
:101520007F43B3F5003F7FF465AF237813F07F036B
:1015300040F09980A388002B7FF45CAF374BBAE76B
:101540000A297FF457AF237803F07F03012B7FF440
:1015500051AFA37A002B3FF44DAF6388002B7FF48B
:1015600049AF6268294E22F47F42B2F5803F7FF492
:1015700042AF32681946607993699847002840F075
:10158000B3802C68264B96E7D98801910198824256
:1015900017D88A421D4E08D2316891F82C108A4221
:1015A00080F08A801F4A00211170326892F82C2046
:1015B0009A82FFF7D9FC3BE70B2E8ED1FFF754FD43
:1015C0005DE7019A114E1A82EFE733681B6A002B20
:1015D0007FF471AF0FE794F90330002B88DBA37819
:1015E000002B85D1A388002B82D1A37A002B3FF456
:1015F00048AF7DE7012E3FF440AF032E7FF46DAF7F
:10160000FFF7CEFD3BE700BF400700201807002092
:101610004607002048070020790E0008C90E000880
:10162000A10E000860050020E378012B7FF455AF80
:10163000A388002B7FF451AF627A2D4B42F0200239
:101640001B686272DB6998472C681AE7FFF7EEFCAB
:1016500015E73368DB69002B7FF42DAFCBE62C68F0
:1016600009232372E4E6012B31D0022B7FF4C2AEB2
:10167000637903F00F02900000F180401E0600F530
:10168000B84056BF0068066800F44056194848BF85
:1016900006F0300600788242BFF4ACAE13F0700F53
:1016A00014BF00230123002E0CBF002603F0010607
:1016B000002E7FF443AF9DE692FBF1F001FB102278
:1016C000002A7FF472AF0C4A012111706DE70B4EB6
:1016D000607933689B69984730B92C68A37A002BEE
:1016E0007FF42CAF617886E62B68597883E600BFDB
:1016F0003C070020EC0000206005002018070020B7
:1017000070B40F4B1E7896B14FF4B844C4F2000485
:101710000023256843F4004140F60F7241F0800138
:101720002A4001330A439E4244F8042BF1D845F67F
:101730004C4340F08000C4F20003186070BC704756
:10174000EC00002010B5144C23681A7A022A18BF46
:10175000042A11D0062A05D008221A72BDE81040CA
:10176000FFF778BD5A78052A0BD00C4B1B689B6895
:10177000984723680822F0E7FFF7F6FB23681A7AF8
:10178000EBE71A785206F0D1D878FFF7B9FF044B8F
:101790001B681B6A9847E8E74007002018070020ED
:1017A0003C070020704700BF10B540F2207240F2A5
:1017B0004074C2F20002C2F20004226002241472D9
:1017C00040F2187040F2600340F23C7140F2900227
:1017D000C2F20003C2F20000C2F20001C2F2000233
:1017E00003600A601B68984710BD00BF2DE9F04FE9
:1017F000DFF8A4A183B045F6444B0023DFF89C91A9
:10180000634DADF80630C4F2000BD046DBF8003073
:101810004FF4B8449AB21B04AAF8002040F1AC80FF
:10182000B8F80020C4F2000402F00F02900000F1AA
:101830008040584E4BF6BF71554F134600F5B840E7
:1018400089F80020002A34D123689BB22B802B8892
:1018500003F0300333802B8803F440532B8023683C
:10186000194081F4005181F0200141F4004141F020
:1018700080012160B8F8003003F010039BB2002B08
:101880004AD023689BB2ADF80630BDF8063003F4A9
:1018900000639BB2002B72D1BDF806301BB2002B47
:1018A000B4DA226840F68F7313402360FFF7F4FC2C
:1018B00039E0026892B2ADF80620BDF8062012B2F7
:1018C000002A1BDBBDF8063003F080039BB2002B1F
:1018D0009CD099F8001048F60F738A0002F18042FC
:1018E00002F5B842106801390340136040F220024B
:1018F000C2F2000252F82130984787E7016840F6AB
:101900008F720A40026040F23C02013BC2F20002C8
:1019100052F823309847D5E7226848F60F731340F2
:101920002360FFF70FFF21683A884BF6BF7302F47C
:10193000805292B20B400AB183F480533A8802F489
:10194000005292B20AB183F40053328802F01002BE
:1019500092B20AB183F01003328802F0200292B2F0
:101960000AB183F0200343F400434FF4B84243F03C
:101970008003C4F20002136003B0BDE8F08F226858
:1019800040F68F7313402360FFF7FCFCCBE700BFEA
:101990004607002048070020600600201C070020A2
:1019A00001F1005101F5405101324900531010B4CA
:1019B0000DD00A1D023010F8014C10F8021C023044
:1019C00041EA042122F8041C0432013BF3D110BC8B
:1019D000704700BF01F1005101F54051013249004B
:1019E000531008D002300A1F52F8041F20F8021CBE
:1019F0000230013BF8D170474FF6F87345F650427C
:101A00000340C4F200021360704700BF800000F181
:101A1000804202F5B842106848F68F13034019431C
:101A200011607047800000F1804202F5B84210B4A6
:101A300001F01000146848F6BF7380B2234068B903
:101A40009BB201F0200189B209B183F0200343F475
:101A5000004343F08003136010BC704783F0100311
:101A6000EFE700BF800000F1804202F5B84210B4F9
:101A700001F4805014684BF68F7380B2234068B92C
:101A80009BB201F4005189B209B183F4005343F4CD
:101A9000004343F08003136010BC704783F480530D
:101AA000EFE700BF800000F1804202F5B842116804
:101AB00048F6BF730B4083F0300343F4004343F018
:101AC00080031360704700BF800000F1804202F580
:101AD000B84211684BF68F730B4083F4405343F4C4
:101AE000004343F080031360704700BF800000F1A3
:101AF000804202F5B842116840F60F630B4043F490
:101B0000004343F080031360704700BF800000F182
:101B1000804303F5B8431A68510408D5196840F6A4
:101B20000F720A4042F4404242F080021A6070474D
:101B3000800000F1804303F5B8431A68500608D5C9
:101B4000196840F60F720A4042F4004242F0C002A7
:101B50001A60704745F65043C4F200031A684FF606
:101B6000FE7392B202EBC00000F1005202F5405247
:101B700052000B401360704745F65043C4F2000317
:101B80001A6843F2040392B202EBC000C2F20003EF
:101B9000C3184FF6FE725B000A401A60704700BF20
:101BA00045F65043C4F200031B689BB203EBC00030
:101BB00000F1005303F540535B001888704700BFE5
:101BC00045F65043C4F200031A6843F2040392B28C
:101BD00002EBC000C2F20003C3185B001888704714
:101BE00045F65043C4F200031A6843F2020392B26E
:101BF00002EBC000C2F20003C3185B00196070471B
:101C000045F65043C4F200031A6843F2060392B249
:101C100002EBC000C2F20003C3185B003E2909D9E1
:101C20004A09C90601D1013A92B2920242F4004235
:101C30001A6070474A08C80748BF013292021A600A
:101C4000704700BF45F65043C4F200031A6843F2E0
:101C5000060392B202EBC000C2F20003C3185B009D
:101C600018688005800D7047C3B2000A40EA03205F
:101C7000704700BF10B440F2447345F6444445F643
:101C800040424FF43F410020C4F20004C2F200037E
:101C9000C4F2000220601980116010BC704700BFC0
:101CA00070B500F07F0528460E4694B2FFF778FF26
:101CB000224601463046FFF773FE28462146FFF7CD
:101CC0008FFF002070BD00BF70B500F07F05284673
:101CD0000E46FFF7B7FF04462846FFF771FF22467E
:101CE00001463046FFF776FE204670BD0749084A98
:101CF000084B9A42BEBF51F8040B42F8040BFFF7A1
:101D0000F8BF0548804705480047000098270008AD
:101D1000000000202C0500208D1D00084101000856
:101D2000FEE7FEE7FEE7FEE7FEE7FEE7FEE7FEE78B
:101D3000FEE7FEE7FEE7FEE7FEE7FEE7FEE7FEE77B
:101D4000FEE7FEE7FEE7FEE7FEE7FEE7FEE7FEE76B
:101D5000FEE7FEE7FEE7FEE7FEE7FEE7FEE7FEE75B
:101D6000FEE7FEE7FEE7FEE7FEE7FEE7FEE7FEE74B
:101D7000FEE7FEE7FEE7FEE7FEE7FEE7FEE7FEE73B
:101D8000FEE7FEE7FEE7FEE7FEE700BF4FF4805305
:101D9000C4F202031968002241F001011960596878
:101DA000CFF6FF020A405A601A68002122F08472BE
:101DB00022F480321A601A6882B022F480221A60FB
:101DC00058681A4620F4FE0058604FF41F009860CF
:101DD00000910191196841F48031196003E0009B82
:101DE000B3F5A06F09D0136803F400330193009B8F
:101DF00001330093019B002BF1D04FF48053C4F2C8
:101E000002031B6813F4003308BF019301D00123C0
:101E10000193019B012B08D04FF46D43CEF20003D8
:101E20004FF000629A6002B070474FF40052C4F263
:101E3000020211684FF4805341F0100111601168E3
:101E4000C4F2020321F0030111601068194640F04A
:101E5000020010605A685A605A685A605A6842F420
:101E600080625A605A6822F47C125A605A6842F4BE
:101E7000E8125A601A6842F080721A600A684FF4D9
:101E800080539201C4F20203F8D559681A4621F032
:101E900003015960596841F002015960536803F029
:101EA0000C03082BFAD1B7E740F0BF604FF46D4345
:101EB00040F40030CEF20003D8607047C37830B4ED
:101EC0007BB90378012103F01F0201FA02F15A09DC
:101ED0004FF46143CEF20003203243F8221030BCAD
:101EE00070474FF46D43CEF20003DB684478DB4368
:101EF000C3F302230F22C3F1040122FA03F304FA0D
:101F000001F48578017803EA0502224301F1604378
:101F10001201D2B203F5614383F800230278012154
:101F200002F01F0301FA03F14FF46143CEF2000304
:101F3000520943F82210D2E7837930B43BB34FF40F
:101F40008063C4F2010301681A68CC4322401A601E
:101F50005D6802792C4002F180425C6002F58232B9
:101F6000156844792943116002689868D143084094
:101F70009860D868102C01EA0001D96013D004F1F0
:101F8000804404F5823423681A43226009E003790F
:101F9000016803F1804303F582331A6822EA0102E3
:101FA0001A6030BC7047996811439960D9680A4338
:101FB000DA60F6E74FF48063C4F2010358617047BA
:101FC0004FF4005340F2231148F6AB12C4F202035F
:101FD000C4F26751CCF6EF5259605A60704700BFA7
:101FE0004FF40053C4F202031A6942F080021A61EE
:101FF000704700BF4FF40053C4F20203DA68D207FF
:102000000BD4DA68500701D502207047DB6813F063
:10201000100F0CBF0420032070470120704700BF41
:1020200010B50446FFF7E6FF411E4B424B41002C22
:1020300008BF002363B1FFF7DDFF013C0CBF0023A5
:102040000123012814BF002303F00103002BF2D168
:10205000002C08BF052010BD38B505464FF43020D0
:10206000FFF7DEFF042800D038BD4FF40054C4F25F
:10207000020423694FF4302043F0020323616561B9
:10208000236943F040032361FFF7CAFF226941F649
:10209000FD731340236138BD08B54FF40063C4F2EB
:1020A0000103984230D04FF44063C4F201039842D8
:1020B00034D04FF48053C4F20103984238D04FF427
:1020C000A053C4F2010398423CD04FF4C053C4F271
:1020D0000103984240D04FF4E053C4F20103984208
:1020E00044D04FF40053C4F20103984200D008BD1D
:1020F00001214FF4807000F0CFF84FF48070002180
:10210000BDE8084000F0C8B80420012100F0C4F880
:1021100004200021BDE8084000F0BEB808200121DD
:1021200000F0BAF808200021BDE8084000F0B4B87B
:102130001020012100F0B0F810200021BDE8084077
:1021400000F0AAB82020012100F0A6F820200021EC
:10215000BDE8084000F0A0B84020012100F09CF844
:1021600040200021BDE8084000F096B88020012101
:1021700000F092F880200021BDE8084000F08CB803
:102180002DE9F003CD78EB0648BF8B78098805F080
:102190000F0748BF1F4311F0FF0F24D0D0F800C035
:1021A000002301264FF00F0802E00133082B18D05E
:1021B00006FA03F202EA01049442F6D19A0008FA00
:1021C00002F907FA02F22CEA090C282D4CEA020C5B
:1021D00008BF4461E9D0482D08BF04610133082BD2
:1021E000E6D1C0F800C0FF2926D9D0F804C00023EA
:1021F00001264FF00F0802E00133082B1AD003F13B
:10220000080206FA02F202EA01049442F4D19A00AA
:1022100008FA02F907FA02F22CEA090C282D4CEA16
:10222000020C08BF4461E7D0482D08BF04610133A8
:10223000082BE4D1C0F804C0BDE8F003704700BF2C
:10224000836819420CBF002001207047016170476C
:1022500041617047D823C4F242231860704700BF21
:102260004FF48053C4F202039A6919B922EA0000BC
:102270009861704710439861704700BF4FF48053D6
:10228000C4F20203DA6919B922EA0000D861704782
:102290001043D861704700BF4FF48053C4F202036B
:1022A000DA6819B922EA0000D86070471043D86094
:1022B000704700BF70B44FF430524FF45054C4F222
:1022C00001020388C4F20104904218BFA0429BB2ED
:1022D00014BF0022012208D04FF48064C4F200042D
:1022E000B0F1804F18BFA04236D14FF68F754C88A1
:1022F0001D4045EA04034FF4A0564FF48055C4F244
:102300000005C4F20006B04218BFA8421FBFCD8826
:102310004FF6FF441C4044EA05038D880C88038077
:10232000858504855AB94FF488424FF48043C4F23E
:102330000102C4F20103984218BF904205D10B7A02
:1023400003860123838270BC70474FF49043C4F22C
:1023500001039842F5D1F2E74FF440654FF4006471
:10236000C4F20005C4F20004A04218BFA842C2D1C2
:10237000BBE700BF00234FF6FF7181800380C3805D
:1023800043800372704700BF038829B923F001031B
:102390001B041B0C038070479BB243F001030380B6
:1023A000704700BF83899BB21AB923EA010181817A
:1023B0007047194381817047038A828911420CBF9B
:1023C0000020012019420CBF002000F001007047DE
:1023D000C94389B2018270472DE9F041284C84B08D
:1023E00025680746D5F84841002C43D066681F2E63
:1023F0001CDD244810B94FF0FF301FE04FF4C870C7
:10240000039102920193AFF3008003990446029A6C
:10241000019B0028EFD0D5F848610020606026605D
:10242000C5F84841C4F88801C4F88C01656847B90B
:10243000AB1C013544F823106560002004B0BDE8F2
:10244000F081012000FA05F0022F04EB8508D4F892
:102450008861C8F8083108BFD4F88C3146EA000614
:1024600008BF1843C8F88820C4F8886108BFC4F8BA
:102470008C01DDE705F5A674C5F84841B6E700BF55
:10248000882700080000000008B50021044600F07D
:102490009DF8044B1868C36B03B19847204600F0C1
:1024A00007F900BF8827000838B5084D084C641BA1
:1024B000A41018BF05EB840504D055F8043D9847D7
:1024C000013CFAD1BDE8384000F0FAB828050020F8
:1024D0002C05002070B50F4D0F4E761BB61007D09F
:1024E000043D002455F8043F01349847A642F9D131
:1024F0000A4D0B4E00F0DEF8761BB61008D0043DF6
:10250000002455F8043F01349847A642F9D170BD24
:1025100070BD00BF20050020200500202005002000
:102520002805002070B48407034642D0541E002AB8
:102530003DD0CEB203E0621E002C38D0144603F822
:10254000016B9A071D46F6D1032C29D9CAB20F2C6C
:1025500042EA022242EA024284BF2B46264611D9B1
:10256000103E1A605A609A60DA6010330F2EF7D866
:10257000A4F1100323F00F0304F00F041033032C15
:102580001D440DD92E462346043B032B46F8042B4D
:10259000FAD8231F23F00303043304F00304ED18D7
:1025A0002CB1C9B22C1905F8011BA542FBD170BC96
:1025B000704705461446C7E7024B13B1024800F0C6
:1025C00071B8704700000000A92400082DE9F04F01
:1025D000334B85B01B680290019303F5A4730F463B
:1025E00003934FF00108019BDDF80CB0D3F848616C
:1025F000AEB175686C1E0CD406F188091F3509EB65
:1026000085057FB12B68BB420CD0013C043D631CA7
:10261000F7D140F20001C0F20001002930D105B02D
:10262000BDE8F08F7368C9EB0502591EB218A142CC
:1026300052F8783C08BF746002D0002142F8781C40
:10264000002BE2D008FA04F2D6F88811D6F804A0DC
:102650000A420FD0D6F88C110A420DD1029855F8D3
:10266000801C984773685345BDD1DBF80030B342F6
:10267000CBD0B8E79847F5E755F8800C9847F1E7D5
:1026800073684BB9336843B13046CBF80030AFF3D1
:102690000080DBF80060ABE73368B3461E46A7E76F
:1026A000882700080146002002460346FFF794BE33
:1026B000FEE700BFF8B500BFF8BC08BC9E467047F7
:1026C000F8B500BFF8BC08BC9E4670470403090477
:1026D0001603530069006D0070006C006500430034
:1026E00041004E002000000009022900010100E025
:1026F0003209040000020300000009210101000169
:10270000224F000705810340002007050103400018
:102710002000000012010002000000408304115755
:1027200000010102030100000600FF0901A101856B
:102730000109011500250175089501B1828501097E
:10274000019182850209021500250175089501B1E4
:102750008285020902918285030903150026FF0084
:102760007508953CB18285030903918285040904AB
:10277000750895108182C0000A0341006C00650055
:102780007800000043000000F80000200000000076
:08279000B0D9FF7F0100000039
:10279800010000001A0341004E002D0030003000F7
:1027A80030003300000000000000000000000000BE
:1027B800B5060008A5170008A5170008A517000802
:1027C800A5170008A5170008A51700087D0600082A
:1027D800A5170008A5170008A5170008A5170008E1
:1027E800A5170008A5170008E8260008290000001A
:1027F800C50A00080D0A0008550B0008E108000882
:10280800E50800087109000899090008010A00088C
:10281800F5090008D5090008000000004000000084
:10282800A5170008B9080008A5170008A51700088B
:10283800A5170008A5170008A5170008A517000880
:10284800D1080008FA260008090000002827000817
:102858004F0000001427000812000000CC260008D2
:1028680004000000782700080A000000D0260008AD
:1028780016000000040000201A00000002010000F9
:10288800010000000000000000000000E403002038
:102898004C040020B40400200000000000000000E8
:1028A8000000000000000000000000000000000020
:1028B800000000000000000000000000842700085D
:1028C8000000000000000000000000000000000000
:1028D80000000000000000000000000000000000F0
:1028E80000000000000000000000000000000000E0
:1028F80000000000000000000000000000000000D0
:1029080000000000000000000000000000000000BF
:1029180000000000000000000000000000000000AF
:10292800000000000000000000000000000000009F
:1029380001000000000000000E33CDAB34126DE63C
:10294800ECDE05000B0000000000000000000000A5
:10295800000000000000000000000000000000006F
:10296800000000000000000000000000000000005F
:10297800000000000000000000000000000000004F
:10298800000000000000000000000000000000003F
:0C2CB800B925000811010008ED0000081B
:0400000508001CEDE6
:00000001FF
