:020000040800F2
:1000000000500020492100087D2100087F210008C0
:1000100081210008832100088521000800000000DC
:100020000000000000000000000000009103000834
:100030008921000800000000C90400080D0500081F
:1000400091210008932100089521000897210008BC
:10005000992100089B2100089D2100089F2100088C
:10006000A1210008A3210008A5210008A72100085C
:10007000A9210008AB210008AD210008AF2100082C
:10008000B1210008B3210008B5210008B7210008FC
:10009000B9210008BB210008BD210008BF210008CC
:1000A000C1210008C3210008C5210008C72100089C
:1000B000C9210008CB210008CD210008CF2100086C
:1000C000D1210008D3210008D5210008D72100083C
:1000D000D9210008DB210008DD210008DF2100080C
:1000E000E1210008E3210008E521000810B5054CD6
:1000F000237833B9044B13B10448AFF300800123D4
:10010000237010BD7C00002000000000B025000816
:1001100008B5064B1BB106480649AFF300800648F8
:10012000036813B1054B03B1984708BD00000000F8
:10013000B0250008800000207C00002000000000A6
:10014000154B002B08BF134B9D46A3F5803A0021A9
:100150008B460F461348144A121A02F0D3F90F4B7C
:10016000002B00D098470E4B002B00D09847002062
:10017000002104460D4600200C490022002302F015
:1001800063F902F099F92046294601F0E3FE02F0F6
:1001900065F900BF000008000050002000000000CA
:1001A000000000007C000020A845002089240008F1
:1001B00080B483B000AF78607B6803F108027B688D
:1001C0005A607B684FF0FF329A607B6803F1080247
:1001D0007B68DA607B6803F108027B681A617B68E0
:1001E0004FF000021A6007F10C07BD4680BC704753
:1001F00080B483B000AF78607B684FF000021A6172
:1002000007F10C07BD4680BC704700BF80B485B0C5
:1002100000AF786039607B685B68FB603B68FA68B8
:100220005A60FB689A683B689A60FB689B683A680A
:100230005A60FB683A689A603B687A681A617B6822
:100240001B6803F101027B681A6007F11407BD46C1
:1002500080BC704780B485B000AF786039603B687F
:100260001B68BB60BB68B3F1FF3F03D17B681B69B0
:10027000FB600DE07B6803F10803FB6002E0FB68B4
:100280005B68FB60FB685B681A68BB689A42F6D9DA
:10029000FB685A683B685A603B685B683A689A60DA
:1002A0003B68FA689A60FB683A685A603B687A680B
:1002B0001A617B681B6803F101027B681A6007F111
:1002C0001407BD4680BC704780B485B000AF78602D
:1002D0007B681B69FB607B685B687A6892689A60E0
:1002E0007B689B687A6852685A60FB685A687B68CA
:1002F0009A4203D17B689A68FB685A607B684FF02A
:1003000000021A61FB681B6803F1FF32FB681A6088
:10031000FB681B68184607F11407BD4680BC704790
:1003200080B485B000AFF860B9607A60FB68A3F173
:100330000403FB60FB684FF080721A60FB68A3F156
:100340000403FB60BA68FB681A60FB68A3F104034E
:10035000FB6040F28533C0F60003FA681360FB6867
:10036000A3F11403FB607A68FB681A60FB68A3F1D1
:100370002003FB60FB68184607F11407BD4680BCEC
:10038000704700BF80B500AF00F090F8FEE700BFF7
:10039000074B19680868B0E8F00F80F30988BFF3CD
:1003A0006F8F4FF0000080F311884EF00D0E7047F4
:1003B000AC44002006480068006880F3088862B6F4
:1003C00061B6BFF34F8FBFF36F8F00DF00BF000038
:1003D00008ED00E080B500AF4EF62053CEF20003EA
:1003E0004EF62052CEF20002126842F47F021A60EA
:1003F0004EF62053CEF200034EF62052CEF200020B
:10040000126842F07F421A6000F096F840F2000352
:10041000C2F200034FF000021A60FFF7CBFFFFF7B4
:10042000B1FF4FF00003184680BD00BF80B400AF9D
:100430004EF60453CEF200034FF080521A60BFF321
:100440004F8FBFF36F8FBD4680BC704780B500AF44
:1004500000F02CF840F20003C2F200031B6803F125
:10046000010240F20003C2F200031A60BFF34F8F93
:10047000BFF36F8F80BD00BF80B500AF40F20003B7
:10048000C2F200031B6803F1FF3240F20003C2F224
:1004900000031A6040F20003C2F200031B68002B45
:1004A00003D14FF0000000F00BF880BDEFF3118096
:1004B0004FF0BF0181F3118870474FF000031846D9
:1004C00080F31188704700BFEFF30980BFF36F8F8F
:1004D0000D4B1A6820E9F00F10602DE908404FF02D
:1004E000BF0080F3118800F06DFC4FF0000080F336
:1004F0001188BDE8084019680868B0E8F00F80F37B
:100500000988BFF36F8F7047AC44002080B500AFFF
:10051000FFF7CCFF00F056FB0346002B06D04EF64B
:100520000453CEF200034FF080521A604FF00000E7
:10053000FFF7C6FF80BD00BF80B400AF4EF21403CA
:10054000CEF2000341F63F12C0F201021A604EF2F1
:100550001003CEF200034FF007021A60BD4680BCC4
:10056000704700BF80B588B000AF78604FF00003DF
:100570007B6100F065FA44F2A843C2F200031B68F5
:10058000002B08D100F0E0F844F2A843C2F20003C7
:100590004FF001021A607B68002B12D042F23053F8
:1005A000C0F600031B887A68D3187B607B6803F071
:1005B0000703002B05D07B6823F0070303F1080332
:1005C0007B607B68002B72D07A6844F2F7339A42E2
:1005D0006DD844F29843C2F20003BB6144F29843E1
:1005E000C2F200031B68FB6104E0FB69BB61FB69AD
:1005F0001B68FB61FB695A687B689A4203D2FB69FE
:100600001B68002BF1D1FA6944F2A043C2F2000347
:100610009A424CD0BB691A6842F23053C0F60003CC
:100620001B88D3187B61FB691A68BB691A60FB6978
:100630005A687B68D21A42F23053C0F600031B8816
:100640004FEA43039A4225D9FA697B68D318FB60C5
:10065000FB695A687B68D21AFB685A60FB697A6842
:100660005A60FB685B68BB6044F29843C2F20003C7
:100670003B6102E03B691B683B613B691B685A6850
:10068000BB689A42F6D33B691A68FB681A603B69FB
:10069000FA681A6040F20403C2F200031A68FB69A8
:1006A0005B68D21A40F20403C2F200031A6000F041
:1006B000D9F97B69184607F12007BD4680BD00BF08
:1006C00080B586B000AF78607B683B617B68002BAB
:1006D00035D042F23053C0F600031B88C3F100034B
:1006E0003A69D3183B613B69FB6000F0A9F9FB68EC
:1006F0005B68BB6044F29843C2F200037B6102E096
:100700007B691B687B617B691B685A68BB689A427E
:10071000F6D37B691A68FB681A607B69FA681A600D
:10072000FB685A6840F20403C2F200031B68D21847
:1007300040F20403C2F200031A6000F093F907F1DB
:100740001807BD4680BD00BF80B483B000AF184B12
:1007500023F007037B6044F29843C2F200037A68F7
:100760001A6044F29843C2F200034FF000025A604C
:1007700044F2A043C2F2000344F2F8325A6044F259
:10078000A043C2F200034FF000021A607B683B6096
:100790003B6844F2F8325A603A6844F2A043C2F22D
:1007A0000003136007F10C07BD4680BC704700BF13
:1007B000A000002080B58AB002AFF860B9603B604D
:1007C0001346FB80FB881846396B00F099FCB86132
:1007D000BB69002B00F09580BB691A6BFB8803F1A5
:1007E000FF334FEA8303D3187B617B6923F0070350
:1007F0007B61FB880093B869B968BA6A7B6B00F0CB
:1008000045FB7869F9683A68FFF78AFD0246BB69DB
:100810001A60FB6A002B02D0FB6ABA691A60FFF704
:1008200015FE44F28453C2F200031B6803F1010277
:1008300044F28453C2F200031A6044F2AC43C2F2A1
:1008400000031B68002B0FD144F2AC43C2F200033B
:10085000BA691A6044F28453C2F200031B68012B88
:1008600018D100F067FB15E044F29053C2F2000388
:100870001B68002B0ED144F2AC43C2F200031B688C
:10088000DA6ABB6A9A4205D844F2AC43C2F200036A
:10089000BA691A6044F2A053C2F200031B6803F164
:1008A000010244F2A053C2F200031A60BB69DB6A82
:1008B0004FF0010202FA03F244F28C53C2F2000339
:1008C0001B681A4344F28C53C2F200031A60BB69DE
:1008D000DA6A13464FEA83039B184FEA830344F214
:1008E000B042C2F200029A18BB6903F10403104639
:1008F0001946FFF78BFC4FF00103FB61FFF7BCFDCE
:1009000002E04FF0FF33FB61FB69012B11D144F290
:100910009053C2F200031B68002B0AD044F2AC4390
:10092000C2F200031B68DA6ABB6A9A4201D2FFF77F
:100930007DFDFB69184607F12007BD4680BD00BF5D
:1009400080B584B000AF78604FF00003FB607B6837
:10095000002B33D000F074F844F28853C2F2000345
:100960001A687B68D318BB6044F2AC43C2F2000340
:100970001B6803F104031846FFF7A6FC0346002B8F
:1009800016D144F2AC43C2F200031B68DB6A4FF09D
:10099000010202FA03F36FEA030244F28C53C2F23B
:1009A00000031B681A4044F28C53C2F200031A6021
:1009B000B86800F05FFB00F055F8F860FB68002BAA
:1009C00001D1FFF733FD07F11007BD4680BD00BF21
:1009D00080B586B004AF4FF0000300934FF00003E2
:1009E00001934FF0000302934FF00003039340F68E
:1009F0006960C0F6000042F23451C0F600014FF0C9
:100A000080024FF00003FFF7D5FE78607B68012B72
:100A100011D1FFF74BFD44F29053C2F200034FF0A7
:100A200001021A6044F28853C2F200034FF0000240
:100A30001A60FFF7CFFC07F10807BD4680BD00BF75
:100A400080B400AF44F2A453C2F200031B6803F168
:100A5000010244F2A453C2F200031A60BD4680BCF6
:100A6000704700BF80B582B000AF4FF000037B60DD
:100A7000FFF7ECFC44F2A453C2F200031B6803F13D
:100A8000FF3244F2A453C2F200031A6044F2A453AA
:100A9000C2F200031B68002B40F08C8044F28453A8
:100AA000C2F200031B68002B00F0848048E044F28F
:100AB0004453C2F20003DB68DB683B603B6803F130
:100AC00018031846FFF700FC3B6803F104031846BF
:100AD000FFF7FAFB3B68DB6A4FF0010202FA03F210
:100AE00044F28C53C2F200031B681A4344F28C5345
:100AF000C2F200031A603B68DA6A13464FEA8303C6
:100B00009B184FEA830344F2B042C2F200029A18E3
:100B10003B6803F1040310461946FFF777FB3B6877
:100B2000DA6A44F2AC43C2F200031B68DB6A9A4201
:100B300006D344F29853C2F200034FF001021A6048
:100B400044F24453C2F200031B68002BAFD144F2BD
:100B50009453C2F200031B68002B1FD017E000F073
:100B600031F80346002B06D044F29853C2F200033A
:100B70004FF001021A6044F29453C2F200031B6862
:100B800003F1FF3244F29453C2F200031A6044F2BC
:100B90009453C2F200031B68002BE0D144F2985337
:100BA000C2F200031B68012B04D14FF001037B60EC
:100BB000FFF73CFCFFF760FC7B68184607F108076D
:100BC000BD4680BD80B586B000AF4FF000037B61AD
:100BD00044F2A453C2F200031B68002B40F0D480FF
:100BE00044F28853C2F200031B6803F1010244F28D
:100BF0008853C2F200031A6044F28853C2F2000321
:100C00001B683B613B69002B23D144F23C53C2F289
:100C100000031B68FB6044F24053C2F200031A68F1
:100C200044F23C53C2F200031A6044F24053C2F251
:100C30000003FA681A6044F29C53C2F200031B6876
:100C400003F1010244F29C53C2F200031A6000F067
:100C500093FA40F20803C2F200031B683A699A4211
:100C600071D300E000BF44F23C53C2F200031B68A2
:100C70001B68002B02D14FF0010301E04FF000038D
:100C8000002B07D040F20803C2F200034FF0FF32FE
:100C90001A6058E044F23C53C2F200031B68DB6860
:100CA000DB68BB60BB685B687B603A697B689A42C3
:100CB00006D240F20803C2F200037A681A6042E0EA
:100CC000BB6803F104031846FFF7FEFABB689B6A92
:100CD000002B05D0BB6803F118031846FFF7F4FAA0
:100CE000BB68DB6A4FF0010202FA03F244F28C5354
:100CF000C2F200031B681A4344F28C53C2F2000391
:100D00001A60BB68DA6A13464FEA83039B184FEAFE
:100D1000830344F2B042C2F200029A18BB6803F1A6
:100D2000040310461946FFF771FABB68DA6A44F209
:100D3000AC43C2F200031B68DB6A9A4292D34FF0C5
:100D400001037B618EE744F2AC43C2F200031B68EF
:100D5000D96A44F2B042C2F200020B464FEA830362
:100D60005B184FEA8303D3181B68012B02D94FF09D
:100D700001037B6144F29453C2F200031B68002B11
:100D800010D101F0DBF90DE044F29453C2F20003FC
:100D90001B6803F1010244F29453C2F200031A608B
:100DA00001F0CCF944F29853C2F200031B68002B07
:100DB00002D04FF001037B617B69184607F11807E9
:100DC000BD4680BD90B484B000AF44F2A453C2F2DB
:100DD00000031B68002B07D044F29853C2F20003B3
:100DE0004FF001021A603AE044F29853C2F2000355
:100DF0004FF000021A6044F28C53C2F200031B68E9
:100E00007B607B68B3FA83F4FC70FB78C3F11F034B
:100E1000FB60FA6813464FEA83039B184FEA83038B
:100E200044F2B042C2F200029B18BB60BB685B6830
:100E30005A68BB685A60BB685A68BB6803F108030C
:100E40009A4204D1BB685B685A68BB685A60BB6849
:100E50005B68DA6844F2AC43C2F200031A6007F13F
:100E60001007BD4690BC704780B582B000AF786077
:100E700000E000BF00F0B0F844F2B043C2F200035B
:100E80001B68012BF5D9FFF7D1FAF2E780B586B0E0
:100E900000AFF860B9607A603B604FF000037B619F
:100EA00013E0BA687B69D3181A78F9687B69CB18A4
:100EB00003F130031A71BA687B69D3181B78002BD1
:100EC00007D07B6903F101037B617B690F2BE8D9B4
:100ED00000E000BFFB684FF0000283F843207B680E
:100EE000042B02D94FF004037B60FB687A68DA6256
:100EF000FB687A685A64FB684FF000029A64FB68EA
:100F000003F104031846FFF773F9FB6803F11803B4
:100F10001846FFF76DF9FB68FA681A617B68C3F140
:100F20000502FB689A61FB68FA685A6207F11807C4
:100F3000BD4680BD80B582B000AF4FF000037B603E
:100F400012E07A6813464FEA83039B184FEA830343
:100F500044F2B042C2F200029B181846FFF728F98B
:100F60007B6803F101037B607B68042BE9D944F2C1
:100F70001450C2F20000FFF71BF944F22850C2F2ED
:100F80000000FFF715F944F24450C2F20000FFF7E9
:100F90000FF944F25850C2F20000FFF709F944F289
:100FA0007050C2F20000FFF703F944F23C53C2F262
:100FB000000344F21452C2F200021A6044F2405399
:100FC000C2F2000344F22852C2F200021A6007F192
:100FD0000807BD4680BD00BF80B582B000AF3DE0D0
:100FE000FFF72EFD44F25853C2F200031B68002B9A
:100FF00014BF00230123DBB27B60FFF733FD7B6866
:10100000002B2BD1FFF722FA44F25853C2F200030F
:10101000DB68DB683B603B6803F104031846FFF7BD
:1010200053F944F28453C2F200031B6803F1FF3208
:1010300044F28453C2F200031A6044F26C53C2F2C9
:1010400000031B6803F1FF3244F26C53C2F2000349
:101050001A60FFF711FA386800F07EF844F26C531A
:10106000C2F200031B68002BBAD107F10807BD4686
:1010700080BD00BF80B582B000AF786044F2AC4361
:10108000C2F200031B687A685A6044F28853C2F2C5
:1010900000031B687A689A4210D244F24053C2F2AD
:1010A00000031A6844F2AC43C2F200031B6803F168
:1010B000040310461946FFF7CDF81DE044F23C53F7
:1010C000C2F200031A6844F2AC43C2F200031B6888
:1010D00003F1040310461946FFF7BCF840F2080379
:1010E000C2F200031B687A689A4205D240F20803F4
:1010F000C2F200037A681A6007F10807BD4680BD96
:1011000080B584B000AF03463960FB804FF04C00DF
:10111000FFF728FAF860FB68002B17D03B68002B1C
:1011200007D1FB884FEA83031846FFF71BFA0346F3
:1011300000E03B68FA681363FB681B6B002B05D16A
:10114000F868FFF7BDFA4FF00003FB60FB68184634
:1011500007F11007BD4680BD80B582B000AF786052
:101160007B681B6B1846FFF7ABFA7868FFF7A8FAA5
:1011700007F10807BD4680BD80B483B000AF44F2DC
:101180003C53C2F200031B681B68002B02D14FF0D6
:10119000010301E04FF00003002B07D040F20803E9
:1011A000C2F200034FF0FF321A600EE044F23C53EB
:1011B000C2F200031B68DB68DB687B607B685A68EF
:1011C00040F20803C2F200031A6007F10C07BD46A3
:1011D00080BC704780B485B000AF786039604FF054
:1011E0000003FB734FF00003BB607B681B6823F0B8
:1011F00002027B681A607B681B6843F001027B680F
:101200001A6003E0BB6803F10103BB607B685B68A5
:1012100003F00103002B04D1BA684FF6FF739A4222
:10122000F0D17B685B6803F00103002B03D14FF022
:101230000003FB73A5E03B689B79012B06D17B681B
:101240001B6843F080027B681A6005E07B681B68BE
:1012500023F080027B681A603B68DB79012B06D1A2
:101260007B681B6843F040027B681A6005E07B687E
:101270001B6823F040027B681A603B681B7A012BD5
:1012800006D17B681B6843F020027B681A6005E08A
:101290007B681B6823F020027B681A603B685B7ADE
:1012A000012B06D17B681B6843F010027B681A6033
:1012B00005E07B681B6823F010027B681A603B68BE
:1012C0009B7A012B06D17B681B6843F008027B6880
:1012D0001A6005E07B681B6823F008027B681A60CF
:1012E0003B68DB7A012B06D17B681B6843F0040264
:1012F0007B681A6005E07B681B6823F004027B684A
:101300001A603B689B784FEA83723B68DB784FEA50
:1013100003631A433B681B794FEA03431A433B6854
:101320005B794FEA03531A433B681B8803F1FF3391
:101330001A437B68DA617B681B6823F001027B68D3
:101340001A604FF00003BB6003E0BB6803F10103C8
:10135000BB607B685B6803F00103002B04D0BA68B4
:101360004FF6FF739A42F0D17B685B6803F001038C
:10137000002B03D04FF00003FB7302E04FF001039A
:10138000FB73FB7B184607F11407BD4680BC704712
:1013900080B485B000AF786039604FF00003FB7314
:1013A0007B689B6803F08063002B03D04FF0000341
:1013B000FB7316E07B689B6803F00063002B03D08F
:1013C0004FF00103FB730CE07B689B6803F08053D4
:1013D000002B03D04FF00203FB7302E04FF0040335
:1013E000FB73FB7B042B00F0BA80FB7BFA7B7968F4
:1013F00002F118024FEA02128A18126802F0010282
:10140000796803F118034FEA0313CB181A603B689D
:101410001B7A002B18D1FB7BFA7B796802F118024A
:101420004FEA02128A1811683A6812684FEA42506D
:101430003A68527A02430A43796803F118034FEA83
:101440000313CB181A601AE0FB7BFA7B796802F170
:1014500018024FEA02128A1811683A6852684FEA75
:10146000C2003A68127A10433A68527A02430A4339
:10147000796803F118034FEA0313CB181A603B682D
:101480009B7A03F00F03DAB23B689A72FB7BFA7B1C
:10149000796802F118024FEA02128A18526822F0A3
:1014A0000F02796803F118034FEA0313CB185A604F
:1014B000FB7BFA7B796802F118024FEA02128A1864
:1014C00051683A68927A0A43796803F118034FEA3F
:1014D0000313CB185A60FB7B3A68927B4FEA026198
:1014E0003A68527B4FEA024211433A68127B4FEA54
:1014F000022211433A68D27A0A4379684FEA031309
:10150000CB1803F5C4731A60FB7B3A68927C4FEAF0
:1015100002613A68527C4FEA024211433A68127CF7
:101520004FEA022211433A68D27B0A4379684FEAB4
:101530000313CB1803F5C4735A60FB7BFA7B7968FD
:1015400002F118024FEA02128A18126842F00102F0
:10155000796803F118034FEA0313CB181A60FB7B79
:10156000184607F11407BD4680BC704780B485B0AB
:1015700000AFF860B9601346FB71FB79002B06D011
:10158000FB685A69BB681A43FB685A6107E0FB684D
:101590005A69BB686FEA03031A40FB685A6107F196
:1015A0001407BD4680BC704780B489B000AF786036
:1015B00039604FF00003FB614FF000033B614FF0D7
:1015C0000003BB614FF00003FB604FF000037B6141
:1015D0004FF00003BB603B68DB7803F00F03FB6157
:1015E0003B68DB7803F01003002B04D03B689B784A
:1015F000FA691343FB613B681B88DBB2002B4ED0BA
:101600007B681B687B614FF00003BB6141E0BB69F5
:101610004FF0010202FA03F3FB603B681B881A4695
:10162000FB6813403B613A69FB689A422DD1BB6964
:101630004FEA8303FB60FB684FF00F0202FA03F3EB
:10164000BB60BB686FEA03037A6913407B61FB6888
:10165000FA6902FA03F37A6913437B613B68DB782A
:10166000282B07D1BB694FF0010202FA03F27B6815
:101670005A610AE03B68DB78482B06D1BB694FF022
:10168000010202FA03F27B681A61BB6903F10103EC
:10169000BB61BB69072BBAD97B687A691A603B6862
:1016A0001B88FF2B53D97B685B687B614FF000037D
:1016B000BB6146E0BB6903F108034FF0010202FA87
:1016C00003F3FB603B681B881A46FB6813403B61D1
:1016D0003A69FB689A4230D1BB694FEA8303FB60E9
:1016E000FB684FF00F0202FA03F3BB60BB686FEABE
:1016F00003037A6913407B61FB68FA6902FA03F31A
:101700007A6913437B613B68DB78282B08D1BB697E
:1017100003F108034FF0010202FA03F27B685A61F9
:101720003B68DB78482B08D1BB6903F108034FF015
:10173000010202FA03F27B681A61BB6903F101033B
:10174000BB61BB69072BB5D97B687A695A6007F121
:101750002407BD4680BC704780B487B000AF786076
:101760000B46FB704FF000033B614FF00003FB6042
:101770004FF000037B614FF00003BB607B68002BE0
:1017800006DA4FF00003C4F20103DB697B6105E078
:101790004FF00003C4F201035B687B617B6803F4D4
:1017A00070234FEA1343BB607B684FEA03434FEA61
:1017B00013433B617B6803F44013B3F5401F10D122
:1017C0007B6923F070637B614FF00003C4F2010377
:1017D0004FF00002C4F20102526822F070625A60B7
:1017E00026E07B6803F48013002B10D0BB684FF019
:1017F000030202FA03F3FB60FB686FEA03037A69F2
:1018000013407B617B6943F070637B6110E07B6810
:101810004FEA53534FEA03133A6902FA03F36FEAAC
:1018200003037A6913407B617B6943F070637B61DA
:10183000FB78002B0AD07B684FEA53534FEA03131F
:101840003A6902FA03F37A6913437B617B68002BE0
:1018500006DA4FF00003C4F201037A69DA6105E0A9
:101860004FF00003C4F201037A695A6007F11C07C4
:10187000BD4680BC704700BF80B483B000AF7860C5
:101880000B46FB70FB78002B0CD04FF48053C4F256
:1018900002034FF48052C4F2020291697A680A434B
:1018A0009A610DE04FF48053C4F202034FF480526A
:1018B000C4F2020291697A686FEA02020A409A61F0
:1018C00007F10C07BD4680BC704700BF80B483B0F1
:1018D00000AF78600B46FB70FB78002B0CD04FF408
:1018E0008053C4F202034FF48052C4F20202D16961
:1018F0007A680A43DA610DE04FF48053C4F20203C0
:101900004FF48052C4F20202D1697A686FEA02028F
:101910000A40DA6107F10C07BD4680BC704700BF82
:1019200080B584B000AF4FF009004FF00101FFF720
:10193000A3FF4FF00403BB814FF01003FB734FF084
:101940000303BB7307F10C034FF44060C4F20100C2
:101950001946FFF729FE4FF005004FF00101FFF790
:101960008BFF4FF004033B814FF01003FB724FF0ED
:101970000303BB7207F108034FF40060C4F20100D7
:101980001946FFF711FE4FF005004FF00101FFF778
:1019900073FF4FF00803BB804FF01003FB714FF053
:1019A0000303BB7107F104034FF40060C4F20100AC
:1019B0001946FFF7F9FD4FF400733B804FF0180311
:1019C000FB704FF00303BB703B464FF44060C4F222
:1019D00001001946FFF7E8FD4FF000704FF00101DC
:1019E000FFF774FF4FF001004FF00101FFF744FFD4
:1019F0004FF4EA104FF00101FFF7AEFE07F11007B8
:101A0000BD4680BD80B584B000AF4FF00403BB80FD
:101A10004FF00103BB714FF00003FB714FF00B035C
:101A20003B724FF004037B724FF00003BB724FF028
:101A30000003FB724FF000033B734FF000037B7316
:101A40004FF00003BB734FF00103FB7307F1040376
:101A50004FF4C840C4F200001946FFF7BBFB4FF437
:101A6000C840C4F200004FF002014FF00102FFF73E
:101A70007DFD4FF4C840C4F200004FF010014FF05C
:101A80000102FFF773FD4FF4C840C4F200004FF0AD
:101A900001014FF00102FFF769FD07F11007BD4694
:101AA00080BD00BF80B588B000AF786040F20C0305
:101AB000C2F200031B68FB6044F6CF43C0F223135D
:101AC0003B614FF000033B754FF000037B754FF017
:101AD0000803BB754FF00003FB754FF000033B7626
:101AE0004FF000037B764FF00003BB764FF000030E
:101AF000FB764FF000033B774FF01F037B774FF0EF
:101B0000AB03BB7707F10C034FF4C840C4F20000ED
:101B10001946FFF73DFC4FF4C843C4F200034FF4ED
:101B2000C842C4F20002D26842F02002DA604FF0EC
:101B30000400FEF705FFE5E780B588B000AF7860E8
:101B40004FF44273FB6044F6CF43C0F223133B6172
:101B50004FF000033B754FF000037B754FF0080317
:101B6000BB754FF00003FB754FF000033B764FF061
:101B700000037B764FF00003BB764FF00003FB764B
:101B80004FF000033B774FF01F037B774FF0AB0321
:101B9000BB7707F10C034FF4C840C4F200001946AC
:101BA000FFF7F6FB4FF4C843C4F200034FF4C842FA
:101BB000C4F20002D26842F02002DA604FF009005D
:101BC000FEF7BEFEE5E700BF80B588B000AF7860E5
:101BD00040F21123FB6044F6CF43C0F223133B6174
:101BE0004FF000033B754FF000037B754FF0080387
:101BF000BB754FF00003FB754FF000033B764FF0D1
:101C000000037B764FF00003BB764FF03303FB7687
:101C10004FF000033B774FF01F037B774FF0AB0390
:101C2000BB7707F10C034FF4C840C4F2000019461B
:101C3000FFF7AEFB4FF4C843C4F200034FF4C842B1
:101C4000C4F20002D26842F02002DA604FF00A00CB
:101C5000FEF776FEE5E700BF80B588B000AF78609C
:101C60004FF4F073FB6044F6CF43C0F223133B61A3
:101C70004FF000033B754FF000037B754FF00803F6
:101C8000BB754FF00003FB754FF000033B764FF040
:101C900000037B764FF00003BB764FF03303FB76F7
:101CA0004FF000033B774FF01F037B774FF0AB0300
:101CB000BB7707F10C034FF4C840C4F2000019468B
:101CC000FFF766FB4FF4C843C4F200034FF4C84269
:101CD000C4F20002D26842F02002DA604FF00F0036
:101CE000FEF72EFEE5E700BF80B588B000AF786054
:101CF00040F22123FB6044F6CF43C0F223133B6143
:101D00004FF000033B754FF000037B754FF0080365
:101D1000BB754FF00003FB754FF000033B764FF0AF
:101D200000037B764FF00003BB764FF03303FB7666
:101D30004FF000033B774FF01F037B774FF0AB036F
:101D4000BB7707F10C034FF4C840C4F200001946FA
:101D5000FFF71EFB4FF4C843C4F200034FF4C84220
:101D6000C4F20002D26842F02002DA604FF01400A0
:101D7000FEF7E6FDE5E700BF80B588B000AF78600C
:101D800040F61F23FB6044F6CF43C0F223133B61B0
:101D90004FF000033B754FF000037B754FF00803D5
:101DA000BB754FF01103FB754FF000033B764FF00E
:101DB00000037B764FF00003BB764FF03303FB76D6
:101DC0004FF000033B774FF01F037B774FF0AB03DF
:101DD000BB7707F10C034FF4C840C4F2000019466A
:101DE000FFF7D6FA4FF4C843C4F200034FF4C842D9
:101DF000C4F20002D26842F02002DA604FF01A000A
:101E0000FEF79EFDE5E700BF80B588B000AF7860C3
:101E100040F61E23FB6044F6CF43C0F223133B6120
:101E20004FF000033B754FF000037B754FF0080344
:101E3000BB754FF01103FB754FF000033B764FF07D
:101E400000037B764FF00003BB764FF03303FB7645
:101E50004FF000033B774FF01F037B774FF0AB034E
:101E6000BB7707F10C034FF4C840C4F200001946D9
:101E7000FFF78EFA4FF4C843C4F200034FF4C84290
:101E8000C4F20002D26842F02002DA604FF01F0074
:101E9000FEF756FDE5E700BF80B588B000AF78607B
:101EA0004FF4F873FB6044F6CF43C0F223133B6159
:101EB0004FF000033B754FF000037B754FF00803B4
:101EC000BB754FF01103FB754FF000033B764FF0ED
:101ED00000037B764FF00003BB764FF03303FB76B5
:101EE0004FF000033B774FF01F037B774FF0AB03BE
:101EF000BB7707F10C034FF4C840C4F20000194649
:101F0000FFF746FA4FF4C843C4F200034FF4C84247
:101F1000C4F20002D26842F02002DA604FF02500DD
:101F2000FEF70EFDE5E700BF80B582B000AF786038
:101F30004FF44063C4F201034FF44062C4F2010263
:101F4000D26882F00402DA604FF05000FEF7F8FC2D
:101F5000EEE700BF80B584B004AFFFF7E1FCFFF708
:101F600051FD4FF0000300934FF0000301934FF039
:101F7000000302934FF00003039341F6A520C0F63F
:101F8000000042F23C51C0F600014FF080024FF0D9
:101F90000003FEF70FFC4FF0000300934FF0000327
:101FA00001934FF0000302934FF00003039341F6B7
:101FB0003930C0F6000042F24851C0F600014FF03F
:101FC00080024FF00003FEF7F5FB4FF00003009393
:101FD0004FF0000301934FF0000302934FF0000312
:101FE000039341F6C930C0F6000042F25451C0F6E6
:101FF00000014FF080024FF00003FEF7DBFB4FF0D3
:10200000000300934FF0000301934FF0000302938D
:102010004FF00003039341F65940C0F6000042F22E
:102020006051C0F600014FF080024FF00003FEF750
:10203000C1FB4FF0000300934FF0000301934FF0FA
:10204000000302934FF00003039341F6E940C0F60A
:10205000000042F26C51C0F600014FF080024FF0D8
:102060000003FEF7A7FB4FF0000300934FF00003BF
:1020700001934FF0000302934FF00003039341F6E6
:102080007950C0F6000042F27851C0F600014FF0DE
:1020900080024FF00003FEF78DFB4FF0000300932A
:1020A0004FF0000301934FF0000302934FF0000341
:1020B000039341F60960C0F6000042F28451C0F675
:1020C00000014FF080024FF00003FEF773FB4FF06A
:1020D000000300934FF0000301934FF000030293BD
:1020E0004FF00003039341F69960C0F6000042F2FE
:1020F0009051C0F600014FF080024FF00003FEF750
:1021000059FB4FF0020300934FF0000301934FF08F
:10211000000302934FF00003039341F62970C0F6C9
:10212000000042F29C51C0F600014FF080024FF0D7
:102130000003FEF73FFBFEF74BFCFEE780B400AF69
:10214000BD4680BC704700BF0749084A084B9A4209
:10215000BEBF51F8040B42F8040BFFF7F8BF054867
:102160008047054800470000BC250008000000200B
:102170007C000020E921000841010008FEE7FEE79D
:10218000FEE7FEE7FEE7FEE7FEE7FEE7FEE7FEE727
:10219000FEE7FEE7FEE7FEE7FEE7FEE7FEE7FEE717
:1021A000FEE7FEE7FEE7FEE7FEE7FEE7FEE7FEE707
:1021B000FEE7FEE7FEE7FEE7FEE7FEE7FEE7FEE7F7
:1021C000FEE7FEE7FEE7FEE7FEE7FEE7FEE7FEE7E7
:1021D000FEE7FEE7FEE7FEE7FEE7FEE7FEE7FEE7D7
:1021E000FEE7FEE7FEE700BF80B500AF4FF4805387
:1021F000C4F202034FF48052C4F20202126842F0A9
:1022000001021A604FF48052C4F202024FF480536C
:10221000C4F2020359684FF00003CFF6FF030B40EE
:1022200053604FF48053C4F202034FF48052C4F25F
:102230000202126822F0847222F480321A604FF493
:102240008053C4F202034FF48052C4F202021268B7
:1022500022F480221A604FF48053C4F202034FF438
:102260008052C4F20202526822F4FE025A604FF415
:102270008053C4F202034FF41F029A6000F008F882
:102280004FF46D43CEF200034FF000629A6080BDC0
:1022900080B500AF00F002F880BD00BF80B483B00D
:1022A00000AF4FF000037B604FF000033B604FF442
:1022B0008053C4F202034FF48052C4F20202126847
:1022C00042F480321A604FF48053C4F202031B6858
:1022D00003F400333B607B6803F101037B603B68E0
:1022E000002B03D17B68B3F5A06FECD14FF4805382
:1022F000C4F202031B6803F40033002B03D04FF039
:1023000001033B6002E04FF000033B603B68012BA0
:1023100040F094804FF40053C4F202034FF4005293
:10232000C4F20202126842F010021A604FF4005325
:10233000C4F202034FF40052C4F20202126822F007
:1023400003021A604FF40053C4F202034FF4005228
:10235000C4F20202126842F002021A604FF4805383
:10236000C4F202034FF48052C4F2020252685A606F
:102370004FF48053C4F202034FF48052C4F20202BD
:1023800052685A604FF48053C4F202034FF48052F3
:10239000C4F20202526842F480625A604FF48053E1
:1023A000C4F202034FF48052C4F20202526822F4D3
:1023B0007C125A604FF48053C4F202034FF48052EF
:1023C000C4F20202526842F4E8125A604FF4805399
:1023D000C4F202034FF48052C4F20202126842F0C7
:1023E00080721A6000BF4FF48053C4F202031B686E
:1023F00003F00073002BF6D04FF48053C4F20203B5
:102400004FF48052C4F20202526822F003025A6072
:102410004FF48053C4F202034FF48052C4F202021C
:10242000526842F002025A6000BF4FF48053C4F277
:1024300002035B6803F00C03082BF6D107F10C07CD
:10244000BD4680BC704700BF10B5034C14B1AFF35C
:10245000008010BD204610BD0000000008B5084BEC
:1024600004461BB10021AFF3008001E000F00CF83E
:10247000044B1868836A03B19847204600F04AF875
:1024800000000000AC25000870B5094B094C002580
:10249000E41AA41003EB840602E072599047013C51
:1024A000043D002CF9D1BDE8704000F03BB800BFFE
:1024B000780000207C00002070B50E4B0E4D0024EB
:1024C000ED1AAD101E4603E056F824209047013463
:1024D000AC42F9D100F020F8084D094B0024ED1A68
:1024E000AD101E4603E056F8242090470134AC425C
:1024F000F9D170BD74000020740000207800002025
:10250000740000208218034601E003F8011B934287
:10251000FBD17047FEE700BFF8B500BFF8BC08BCB0
:102520009E467047F8B500BFF8BC08BC9E46704791
:102530000800000049444C450000000043414E5F44
:102540004D73675F3100000043414E5F4D73675F1D
:102550003200000043414E5F4D73675F330000005F
:1025600043414E5F4D73675F3400000043414E5F4F
:102570004D73675F3500000043414E5F4D73675FE9
:102580003600000043414E5F4D73675F3700000027
:1025900043414E5F4D73675F380000004C45445F18
:1025A000424C494E4B320000430000001000002016
:0425B0000000000027
:0825B4008CDBFF7F0100000039
:1025BC00AAAAAAAAF8430000FFFFFFFFA00500008B
:1025CC0000000000000000000000000000000000FF
:1025DC0000000000000000000000000000000000EF
:1025EC00A82500080000000000000000000000000A
:1025FC0000000000000000000000000000000000CF
:10260C0000000000000000000000000000000000BE
:10261C0000000000000000000000000000000000AE
:0C262C000000000011010008ED00000893
:0400000508000140AE
:00000001FF
